:100000000C9457030C948F030C948F030C94F131D0
:100010000C948F030C948F030C948F030C948F0318
:100020000C948F030C948F030C9495290C945129F4
:100030000C94922A0C948F030C948F030C948F03CE
:100040000C948F030C948F030C948F030C948F03E8
:100050000C948F030C946E2A0C948F030C948F03D2
:100060000C948F030C948F030C948F030C948F03C8
:100070000C948F030C948F030C948F030C948F03B8
:100080000C948F030C948F030C948F030C948F03A8
:100090000C948F030C948F030C948F030C948F0398
:1000A0000C948F030C948F030C948F03050109802B
:1000B000A101850319012AB700150126B700950192
:1000C00075108100C0050C0901A101850419012AE0
:1000D000A002150126A002950175108100C00660DE
:1000E000FF0961A1010962150026FF00952075082E
:1000F00081020963150026FF00952075089102C052
:1001000005010906A101050719E029E715002501E8
:10011000950875018102950175088101050719008F
:1001200029FF150026FF00950675088100050819AE
:1001300001290515002501950575019102950175A7
:10014000039101C0FD377A585A000004E6D6B44640
:100150000200210116000000742FE5A3E0046F01E6
:10016000255D003D8889A654750A36E182AEFA7A8B
:100170001AA6FCA2ED495F2BD164DB963394C5E14E
:1001800088D4E52CA73FC902A99F7A651477542328
:10019000AC4406FB9D0872C8DB930014CCAFDF2A89
:1001A0000E524A25BF4041E26FCD184A1C0EF8A3FB
:1001B0003F7478C040424A97227466EBA4BFFCE8C3
:1001C00039CDA6B8BA0F3DF56E198C761A8E6190AE
:1001D000A289D26C7FD491D19AC1A042DB663D0B3B
:1001E00086EA6AC9DCE52581E1813292A74EE36B9C
:1001F0007885B917409E6DACC31AB47F1E3D0C2E96
:10020000E076D01310407F4BF04649D232C474A23E
:10021000E561996FDFBBE80975CDBC2CB9070462B5
:10022000BE012B54B1449FF12BDFF62CF53F94E82F
:100230003FC5841463A5C6F31DDB17A794B257828C
:10024000A0D3755FEC9DEFC1EC8DE3486831D75DBD
:1002500079018FE15E9510C66AD8E9D8C38660A798
:1002600007A185F833C8501F9379FCF21494B600A7
:10027000BF3F88C05B5AC4D254ABC8F8CCC06645F7
:10028000A302DD4E8CF07AF000000000B37B9F3DAE
:1002900022CCA5440001C102F0080000B30D54EBCC
:1002A000B1C467FB020000000004595A01000100BC
:1002B000D703C90DAE0D000002000200D303C90D23
:1002C000AE0D000003000100D803C90DAE0D000003
:1002D00004000200BD03C90DAE0DE00605000100DB
:1002E000D903C90DAE0D000006000200BF03C90D01
:1002F000AE0D000007000200D503C90DAE0D0000D1
:1003000008000100DA03C90DAE0D00001200020062
:10031000DB03C90DAE0D000013000200DD03C90DA3
:10032000AE0D000014000100DF03C90DAE0D00008A
:1003300015000000000066068315000000000000A4
:100340001700150008001A00140029000000000022
:100350000A000900070016000400E1003944720099
:100360000500190006001B001D00E0002841E10007
:10037000E2004C000000E30000000000000000006C
:100380001C0018000C00120013002A0000000000DE
:100390000B000D000E000F003300340071007300DD
:1003A0001100100036003700380046002B422C00A8
:1003B0002A00292100006500000000000000000064
:1003C000310230022F021F021E0201000000000055
:1003D000350027022602210220020100010001004F
:1003E000350230002F00230222020100010001002B
:1003F00001000100000001000000000000000000FA
:1004000001000100010031000100010000000000B6
:100410002E022D00380025023300010001000100EA
:1004200024022E00360037003800010001000100D0
:1004300001000100000001000000000000000000B9
:100440002200210020001F001E000100000000000B
:10045000A900BB00AE00BC000100010001000100CA
:10046000AA00A80001000100010001000100010034
:100470000100010000000100000000000000000079
:1004800023002400250026002700010000000000B2
:100490005000510052004F00010001000100010016
:1004A0000100500051004F00010001000100010057
:1004B0000100010000000100000000000000000039
:1004C00001003D003C003B003A000100000000003C
:1004D0000100410040003F003E000100010001001A
:1004E00001004500440043004200010001000100FA
:1004F00001000100000001000000000000000000F9
:1005000053005F00600061005700560000000000CB
:1005100001005C005D005E00670055000100010005
:10052000010059005A005B0058005400010001000E
:1005300001006200000063000000000009025B008F
:10054000030100A0FA0904000001030101000921D0
:10055000110100012244000705810308000109047C
:100560000100020300000009211101000122220004
:100570000705820320000107050303200001090489
:1005800002000103000000092111010001223200D4
:100590000705840320000112010002000000081D6D
:1005A0008D9D9D0001010203011C0376006900611D
:1005B000006C003A006600360034006300320062CE
:1005C0000033006300000016034B007900720069DD
:1005D0000061002000720065007600320000001803
:1005E00003730070006C00690074006B0062002EE1
:1005F0000063006F006D00000004030904000000A8
:1006000000000000000000000000000000000000EA
:1006100000000000000000000000000000000000DA
:10062000007E0F00D4FFFFFFC7000000780000002D
:1006300000000000002A2B2800000000000000003D
:10064000000000000000000029000000002C1E3403
:1006500020212224342627252E362D3738271E1F09
:10066000202122232425263333362E37381F040534
:10067000060708090A0B0C0D0E0F101112131415A2
:10068000161718191A1B1C1D2F3130232D35040580
:10069000060708090A0B0C0D0E0F10111213141582
:1006A000161718191A1B1C1D2F3130354C00112438
:1006B0001FBECFEFDAE0DEBFCDBF04B603FE18C029
:1006C00080911A0590911B05A0911C05B0911D0504
:1006D0008730904BA740B04B59F410921A051092F6
:1006E0001B0510921C0510921D05E0E0F8E309952A
:1006F00011E0A0E0B1E0EEE6F8E602C005900D9250
:10070000A839B107D9F725E0A8E9B1E001C01D92E9
:10071000AA31B207E1F70E94B92A0C94E1330C9494
:100720000000482F209118059091CF0459E029131B
:1007300002C080E0089530E0529FF001539FF00D19
:100740001124E053FB4F8181681306C08081481358
:1007500003C085818111EECF2F5F3F4F2770E7CF18
:10076000FC01AC014C5F5F4F8FEF91E32191822739
:1007700028E030E087FF09C0880F89272150310920
:10078000C9F7E417F50791F70895880FF7CFE8ED5B
:10079000F0E080818E7F80831092E2001092DA0078
:1007A0001092E100A0EEB0E08C9181608C9380818A
:1007B0008F77808319BCA7EDB0E08C918E7F8C93EE
:1007C00080818F7E80831092B80408952091E40088
:1007D0003091E50095E6A9012091EC00822F81700F
:1007E00020FF06C08091E80080FF06C080E00895E9
:1007F0002091E80022FD1AC08091C504882389F069
:10080000853089F08091EB0085FD0FC02091E400D8
:100810003091E50042175307F9F29150E1F684E078
:10082000089582E0089583E0089581E0089580911D
:10083000C70487FF13C08091E80082FF06C0809143
:10084000E8008B778093E80004C08091C504811193
:10085000F2CF08958091C5048823D9F38091E800F0
:1008600080FFF8CF8091E8008E77ECCF982F90939F
:10087000E900242F762F50E0891731F07091EC00B9
:100880002091ED005091F00021FD07C09F5F97304F
:1008900071F78093E90081E008953091EB003E7F8D
:1008A0003093EB003091ED003D7F3093ED003091BF
:1008B000EB0031603093EB007093EC002093ED007F
:1008C0005093F0002091EE0027FDE0CF80E00895E6
:1008D000B0E0A0E0EEE6F4E00C941733C8EDD0E011
:1008E00088818F7E8883E7EDF0E08081816080835E
:1008F00084E082BF81E08093B80488818E7F888302
:1009000002EE10E0F80110821092DA0081EEC82E9B
:10091000D12CF601108288818F7788838881806846
:10092000888388818F7D888319BC1092C5041092BA
:10093000C6041092C4041092C30490EEE92EF12C68
:10094000F70180818B7F808388818160888342E08A
:1009500060E080E00E943604F60180818E7F808313
:10096000F801808181608083808188608083F701C5
:1009700080818E7F8083888180618883CDB7DEB758
:10098000E8E00C943333FC018091CD049091CE04C7
:1009900086179707A0F06115710529F49091E8007A
:1009A0009E779093E80090E06115710551F49111E4
:1009B00008C08091E80082FF34C080E00895BC0147
:1009C000F2CF8091C5048823C1F18530C1F18091B7
:1009D000E80083FD30C08091E80082FDEACF80917D
:1009E000E80080FFE1CF8091F3002091F200382FE2
:1009F0006115710519F02830310558F091E0283063
:100A0000310509F090E02091E8002E772093E8006E
:100A1000CBCF81918093F100615071092F5F3F4FDF
:100A2000E7CF8091C504882341F0853041F0809163
:100A3000E80083FFBECF81E0089582E0089583E05F
:100A4000089508958091BA0408959C014FB7F894D1
:100A50008091B4049091B504A091B604B091B7040C
:100A60004FBF821B930B08952FB7F8946091B40485
:100A70007091B5048091B6049091B7042FBF08958A
:100A80002FB7F8948091B4049091B504A091B60466
:100A9000B091B7042FBF08959C01FC0132969FEFDF
:100AA00080E04191461751F09F3F19F4411101C078
:100AB000982F8F5F8630A9F79F3F09F40895290F7B
:100AC000311D97FD3A95F90162830895A3E0B0E0E6
:100AD000ECE6F5E00C941D332091B1043091B204A2
:100AE00028173907A1F09093B2048093B104E091E4
:100AF000AF04F091B004309751F024E029839B8338
:100B00008A830680F781E02DCE0101960995239610
:100B1000E2E00C943933A3E0B0E0E1E9F5E00C94B5
:100B20001D332091AD043091AE0428173907A1F090
:100B30009093AE048093AD04E091AF04F091B004C3
:100B4000309751F023E029839B838A830680F781C5
:100B5000E02DCE01019609952396E2E00C943933FD
:100B60004115510511F0FA0109950895CF93DF93CE
:100B7000EC0140919D0450919E0460919F047091FE
:100B8000A0042FB7F8948091B4049091B504A0917B
:100B9000B604B091B7042FBF841B950BA60BB70BFF
:100BA000843F9140A105B10518F580919D04909175
:100BB0009E04A0919F04B091A00480939904909307
:100BC0009A04A0939B04B0939C0484EF91E0A0E06E
:100BD000B0E08093950490939604A0939704B0930B
:100BE0009804D093A504C093A404DF91CF910895F5
:100BF0000E9434056093990470939A0480939B0437
:100C000090939C0482E390E0A0E0B0E0E2CFFC018E
:100C10008481862351F492819923B9F069238085D8
:100C200083FF05C081E061110FC080E00895892F26
:100C30008F7092959F70982B862F8F7062956F7032
:100C4000682B81E09613F1CF089581E0FDCFDC01A0
:100C50006091910480919204962F891301C00895A8
:100C6000292F30E0F901EE0FFF1FE757FB4F4081BE
:100C700051814A175B07A1F487E08A9FA0018B9FEF
:100C8000500D112448515C4F81E0FA018483961382
:100C9000E6CF2F5F3F4F23703327209391040895B1
:100CA0002F5F3F4F922F9370D8CF1092E603109290
:100CB000E503E8EEF3E08581811102C0148216821B
:100CC000379684E0E032F807B1F70895B0E0A0E08D
:100CD000ECE6F6E00C9415338FEF9FEF44305105AE
:100CE00008F469C040919A0341FB882780F990E09D
:100CF000880F991F42FB002700F910E0000F111F19
:100D0000000F111F802B912B40FBCC24C0F8D12C5D
:100D10008C299D2943FB222720F9C22FE0E0DE2FFA
:100D200053E0CC0FDD1F5A95E1F78C2B9D2B44FB34
:100D3000AA27A0F9B0E0E4E0AA0FBB1FEA95E1F70B
:100D40008A2B9B2B45FBEE27E0F9F0E0A5E0EE0FA8
:100D5000FF1FAA95E1F78E2B9F2B46FB222720F938
:100D600030E0B6E0220F331FBA95E1F7822B932BC8
:100D700047FB222720F930E03695322F222737957E
:100D80002795822B932B20919B03322F3170F32ECA
:100D9000E82EF92A26952170B22EBB0CA82EBF286A
:100DA000C501BB0CAA0BBB0BFB0180839183A28303
:100DB000B38390E080E0CDB7DEB7EAE00C94313346
:100DC0008091BD039091BE0390932F0180932E01DB
:100DD0000895EFE3F2E090E080E062E978E249EB29
:100DE00058E228E038E2778366835187408733876B
:100DF000228797878687019670968830910599F7A4
:100E0000089581152CE7920741F420913201309129
:100E10003301232B11F490E080E0089580E00895E1
:100E2000F894E82FE295EF70F0E031A1282F2F70B1
:100E300081E090E001C0880F2A95EAF7982F9095FD
:100E4000932391A392A1892B82A3789408959091E2
:100E50009A0392FF10C041E0282F2471243009F03A
:100E600040E031E0282F2871283009F030E04317A6
:100E700011F02CE0822793FF10C041E0282F24714D
:100E8000243109F040E031E0282F2871283109F0A1
:100E900030E0431711F02CE0822730919B0330FFA4
:100EA00010C051E0282F2171213009F050E041E0BD
:100EB000282F2871283009F040E0541711F029E05C
:100EC000822731FF10C041E0282F2171213109F024
:100ED00040E031E0282F2871283109F030E0431735
:100EE00011F029E0822794FD877E089582389105CC
:100EF000B9F1B0F48133910509F47DC048F4893229
:100F0000910509F46DC08A32910509F47BC00895FA
:100F10008533910509F45FC08933910509F108957E
:100F2000833E9105D9F138F4803E910529F1823E46
:100F3000910579F10895863E9105D9F1873E910595
:100F400009F43EC0843E910541F520919B0321FFA9
:100F500024C080919A0384FD19C087EE90E0089523
:100F600020919A03237009F05AC020919B0323FF1C
:100F700014C089E290E0089520919A0320FD38C0C2
:100F800030919B0330FF09C024FF43C090E080E014
:100F9000089520919A0322FDF7CF089520919A0396
:100FA00022FD3AC030919B0330FD39C024FFF5CFBC
:100FB000EDCF20919A0323FFF0CF24FDE7CFCDCFD3
:100FC00020919A0323FD2EC030919B0331FFEECF79
:100FD00084EE90E0089520919A0325FFDECFC9CFDB
:100FE00020919A0325FD21C020919B0323FFD5CF9B
:100FF00089E390E0D2CF20919A0326FFCECF8AE2F8
:1010000090E0089520919A0326FFC7CF81E390E0F6
:10101000089583EE90E0089582EE90E0089580EECA
:1010200090E0089586EE90E0089585E390E00895BD
:101030001F93CF93DF930E947607EC01C11580E5E3
:10104000D807F0F5C11580E4D80708F09CC0C03E71
:10105000D10520F5CD3CD10508F082C0C83AD105B4
:1010600078F4C53AD10508F073C0C130D10519F143
:10107000209709F1C430D105F0F4D0E0C0E01BC0E6
:10108000C33CD105D0F7C85AD0E0CC0FDD1FC85BF8
:10109000DE4F0990D881C02DD4640DC0C11580E207
:1010A000D80708F0D1C0C11581E0D80708F05AC0B0
:1010B000C83ED10510F7CE01DF91CF911F91089561
:1010C000C03682E5D80718F5C03482E5D80708F0A5
:1010D0006BC0C03282E5D80708F05FC0C11582E559
:1010E000D80708F497C02C2F2695269580E2289FD4
:1010F000900111248C2F8370C1E0D0E002C0CC0F8E
:10110000DD1F8A95E2F7C22BD32BDD68D4CFC03A1E
:1011100082E5D80760F4C03882E5D80708F459C0E2
:10112000CF71D0E0DC2FCC27C46FD06AC4CFC03CD5
:1011300082E5D80708F462C0C03E82E5D80708F00F
:101140009CCFDC2FCC27CC27DF71C06FD06AB3CF08
:10115000C55AD0E0CB5BDE4FC881D0E0D064ABCFC6
:10116000D065A9CF8D2F0E942707182FCE01992770
:101170000E947607C12FD0E0DC2FCC27CC27DF716F
:10118000C82BD92B98CFCE0199270E947607CC2760
:10119000DF70C82BD92BD06A8ECFCF71D0E0DC2F77
:1011A000CC27C16FD06A87CF2C2F26952695277024
:1011B00080E2289F900111248C2F8370C1E0D0E041
:1011C00002C0CC0FDD1F8A95E2F7C22BD32BDC685F
:1011D00072CF2C2F26952695277080E2289F9001AC
:1011E00011248C2F8370C1E0D0E002C0CC0FDD1F32
:1011F0008A95E2F7C22BD32BDA685DCF8C2F8F71E3
:101200000E942707C82FD0E0DC2FCC27CC27DF7126
:10121000D06251CF8C2F8F710E94270755E0D69551
:10122000C7955A95E1F7CF70D0E0DC2FCC27282F57
:1012300030E084FF05C044E0220F331F4A95E1F7F8
:10124000C22BD32BD06937CF8D2F8F710E942707E8
:10125000182FCE0199270E947607C12FD0E0DC2FEE
:10126000CC27CC27DF71C82BD92BD2CF8091D601C8
:10127000882331F01092D6011092D5011092D4013A
:101280000895CF93C82F80919B0382FF0CC080915B
:10129000D6018C1741F00E9440059093D5018093B0
:1012A000D401C093D601CF9108959091D601292FF2
:1012B000282361F0809589238093D601882339F013
:1012C0000E9440059093D5018093D401089590E049
:1012D00080E0F8CF80959091190598239093190597
:1012E0000895809590919C03982390939C03089572
:1012F00090919C03892B80939C0308951092CB01BD
:101300001092CA011092C90108958091BF03909173
:10131000C003892B89F00E9440052091D4013091AF
:10132000D501AC01421B530B81E02091BF033091EA
:10133000C0034217530708F480E08170089590912C
:10134000C801292F282321F0809589238093C80183
:101350000895ECE9F1E09191891303C0DF01119741
:101360001C9291E0E23AF907B1F7089580911805CF
:101370009091CF04981301C008958F5F8770FACFC2
:10138000983080F5883070F548E0949F90011124E2
:10139000820F932F911D682F677023E09695879594
:1013A0002A95E1F7FC01EE0FFF1FE80FF91FE95541
:1013B000FE4F50E040E080E0219130E0062E02C078
:1013C000369527950A94E2F721703327042E01C041
:1013D000220F0A94EAF7822B4F5F5F4F433051058B
:1013E00059F7089580E00895983098F5883088F589
:1013F00048E0949F90011124820F932F911D282F74
:10140000277041E001C0440F2A95EAF723E0969542
:1014100087952A95E1F7FC01EE0FFF1FE80FF91FF2
:10142000E955FE4F90E080E070E05191DF011197A7
:101430009B01082E02C0369527950A94E2F7217089
:1014400021952527242325272C9301968330910568
:1014500061F708958093090208959091090221E0AF
:1014600030E0F90101C0EE0F8A95EAF7D90102C018
:10147000AA0FBB1F6A95E2F7EA2B01C0220F4A951B
:10148000EAF7892F8E23E81305C0292B822F0E94AB
:101490002A0A089520952923F9CF21E030E001C0E0
:1014A000220F8A95EAF720958091090282230E94F3
:1014B0002A0A08959091CB01809589238093CB01CE
:1014C000282F277069F4891759F090919B0392FF98
:1014D00007C08695869586950E944D0A0E947E09D2
:1014E000089521E030E001C0220F8A95EAF780914B
:1014F0000902822B0E942A0A089590919B0392FF71
:1015000010C098E0899F90011124622B6093CB0159
:101510000E94710A0E9440059093CA018093C901FC
:1015200008950E94710A0895809308020895929583
:101530009F70963091F058F4925F9F70923058F4FB
:10154000803F19F030F4883E30F481E008959A5FCE
:10155000F4CF843FD1F380E00895883EB0F3813F1B
:10156000D1F7F3CF9C013A9521153F4150F5FC018D
:10157000EE27F170BC0166277270AC0144275470ED
:101580009C012227387094FF0EC080E1EF2B09F4F4
:1015900080E0672B09F08062452B09F08064232BE3
:1015A00089F08068089581E0EF2B09F480E0672BD3
:1015B00009F08260452B09F08460232B19F08860C4
:1015C000089580E008950F931F93CF93DF938B01CD
:1015D000EA019091C504943061F58093E9008FEFA2
:1015E0009091E800815095FD06C095ED9A95F1F730
:1015F00000008111F5CF8091E80085FF1AC00E949C
:10160000E603811111C08091E80085FD06C080913C
:10161000E8008E778093E800F2CFF80181918F0186
:101620008093F100219779F78091E8008E7780937D
:10163000E800DF91CF911F910F91089543E050E0B2
:10164000BC0184E00E94E30A0895CF93DF93EC018C
:1016500048E050E0BC0181E00E94E30A88E0FE011E
:10166000ABEBB4E001900D928A95E1F7DF91CF9159
:10167000089581E08093E00080E28093D80010928A
:10168000C9008FE19EE40197F1F700C0000087E0F8
:1016900090EBDC0180931A0590931B05A0931C0529
:1016A000B0931D0588E19CE00FB6F894A89580934F
:1016B00060000FBE90936000FFCF019708F408957B
:1016C000EFE9FFE03197F1F700C00000F6CFB0E09E
:1016D000A0E0EDE6FBE00C9415337C015B016A01B0
:1016E0008091F90101E010E08A3010F40AE010E086
:1016F000C1E0D0E0B501C701F6010995811104C030
:1017000021960C171D072CF4CDB7DEB7EAE00C9438
:101710003133CC9F9001CD9F300D300D112490E0DE
:1017200080E045E34A95F1F70000019682179307A0
:10173000C1F7E0CF8091E301811110C08091D80002
:1017400080618093D8008AE18A95F1F700C080918A
:10175000D90080FF0AC081E08093E30181E090918D
:10176000E301913009F080E0089582E08093E30185
:101770000E94C7031092C504F1CF0E949A0B8823E0
:1017800059F0E091AF04F091B004309729F0019046
:10179000F081E02D0995089580E008950F931F933F
:1017A0000E949A0B882329F00E9434051F910F9103
:1017B00008950E9434050091FA011091FB012091D7
:1017C000FC013091FD01600F711F821F931FEECF4E
:1017D000CF93DF93CDE3D3E060E0CE010E94A53349
:1017E0002196C11584E0D807B9F7DF91CF9108950C
:1017F0001F93CF93DF93122F8430E8F46830D8F42E
:101800004830C8F420E1629FE001112450E0440F09
:10181000551FC40FD51F20E8829FC0011124C80F97
:10182000D91F632FCE0189960E94A533612FCE0167
:101830008A960E94A533DF91CF911F910895CF938F
:10184000C82F6FEF81116FE785E290E00E94A5330A
:101850006FEFC11167E286E290E00E94A5336FEF5F
:10186000C11161E787E290E00E94A533CF9108950E
:101870009B01883070F49AE0899FB0011124635B6A
:101880007D4F4AE050E0C9010E94773390E080E04C
:1018900008958FEF9FEF0895AAE0B0E0E2E5FCE045
:1018A0000C941D339C0137552F3F310509F068F426
:1018B000BE016F5F7F4F0E94380C892B31F4898500
:1018C0009A852A96E2E00C9439338091D503909161
:1018D000D603F7CF0F931F93CF93DF93843038F560
:1018E000683028F5483018F520E1629F8001112406
:1018F00050E0440F551F040F151F30E8839FC001AF
:101900001124080F191FC80189960E948733C82F18
:10191000D0E0DC2FCC27C8018A960E9487339E0135
:10192000282BC901DF91CF911F910F91089590E06D
:1019300080E0F8CF462F2091290230912A02232BF4
:1019400099F4703F39F4603F79F480912B029091C3
:101950002C020895783040F4683030F4843020F45C
:10196000672F0E946A0C089590E080E00895CF925E
:10197000DF92FF920F931F93CF93DF936C0100913F
:10198000090280910802082BC3E0D0E010E0FC2E91
:10199000C8010C2E02C0959587950A94E2F780FD48
:1019A0000CC02197A0F7F12C8F2DDF91CF911F91C3
:1019B0000F91FF90DF90CF900895B6018C2F0E9479
:1019C0009A0C0E941808019761F3EECFCF93DF9332
:1019D000EC010E94B70CBE010E949A0C0E941808EC
:1019E000DF91CF910895FC018481882371F0878174
:1019F0009085009729F00E9418080E94970A089580
:101A0000808191810E94E60CF8CF80E00895A6E0E5
:101A1000B0E0EDE0FDE00C941C3349835A8349812A
:101A20005A819923A1F0222391F0CA010E94B70C98
:101A3000182F682F89819A810E94F40969817A811F
:101A4000812F0E949A0C2696E3E00C943833CA0149
:101A50000E94C009182FF2CFFC01262F87819085A4
:101A6000009741F440815181628173818481958125
:101A70000E94070D08950F931F93CF93DF930DEBF3
:101A800013E0C9E2D2E0CE010E948733F8016191F0
:101A90008F01681719F0CE010E94A5332196CD342D
:101AA000F2E0DF0781F7DF91CF911F910F91089549
:101AB0000F931F93CF93DF930DEB13E0C9E2D2E0B6
:101AC000CE010E948733F80181938F012196CD3496
:101AD000F2E0DF07A9F7C6EBD2E0FE018591949111
:101AE000009711F0FC0109952C96F3E0C634DF074E
:101AF000A1F7DF91CF911F910F91089585E290E0BA
:101B00000E9487338F3789F486E290E00E94873302
:101B1000873259F487E290E00E94873391E0813761
:101B200009F090E0892F8170089580E0FCCF9091BA
:101B30009B0392FB222720F9281779F080FB92F96A
:101B400090939B0360919A0370919B0384E090E0D3
:101B50000E94C33382E00E945A0A0895DA019C0170
:101B60002E5F3F4FF90145915491F9012591349130
:101B7000A217B30758F0FC013496859194910E9406
:101B800067330E943B0D90E080E008958FEF9FEF58
:101B90000895DB01FC0132962591349142175307D9
:101BA00058F0FC01349665917491A901CD010E9411
:101BB000673390E080E008958FEF9FEF0895AAE0EB
:101BC000B0E0E5EEFDE00C94133302E213E080E1B7
:101BD000C82E83E0D82E9DEEE92E92E0F92E27E064
:101BE000922E3FE0A32E33E0B32E88248394D601B7
:101BF0000D931D936D014AE050E0B701CE010196AF
:101C00000E947733F8013896DF01892D1D928A955D
:101C1000E9F789819A81D80111969C938E938F81DF
:101C200012968C9312978D8113968C9313978885B7
:101C300014968C931497898515968C9315978B81A0
:101C40009C8117969C938E93169718961C921897C2
:101C50008A8587FF3CC01E961C921E921D9780FFAE
:101C600003C0D80118968C9281FF04C0F8019085BA
:101C70009260908782FF07C0D80118969C911897B0
:101C8000946018969C9383FF04C0F8019085986037
:101C9000908784FF07C0D80118969C91189790618F
:101CA00018969C9385FF04C0F80180858062808728
:101CB000015F1F4FFAE0EF0EF11C8DE3E81683E0A1
:101CC000F80609F094CF2A96ECE00C942F33F80133
:101CD000B686A586C4CFAAE0B0E0E1E7FEE00C94AA
:101CE0001733EFEBF2E080E5DF011D928A95E9F70B
:101CF000E8EEF3E088E3DF011D928A95E9F78FEBC8
:101D0000C82E82E0D82E7F010DE912E0F701D182C2
:101D1000C0824AE050E0B801CE0101960E947733BC
:101D200088E0FE013196D60101900D928A95E1F787
:101D300089859A85D70113969C938E931297BAE062
:101D4000CB0ED11CE7E0EE0EF11C065F1F4F0D3EDF
:101D5000F2E01F07D9F62A96E8E00C943333A4E0AA
:101D6000B0E0E5EBFEE00C941C334091F50150919E
:101D7000F6016091F7017091F8012FB7F894809106
:101D8000B4049091B504A091B604B091B7042FBFEC
:101D9000841B950BA60BB70B11E084369105A105AA
:101DA000B10570F10E94CE0B6E5F7F4F8F4F9F4F3A
:101DB00069837A838B839C838091120190911301B4
:101DC00084519E4F4091110150E04530510510F073
:101DD00044E050E0BE016F5F7F4F0E94673382E0B6
:101DE00090E00E949732182F882351F00E9434050A
:101DF0006093F5017093F6018093F7019093F801D9
:101E0000812F2496E3E00C943833EF92FF921F93D6
:101E1000CF93DF9300D000D00F92CDB7DEB77B0118
:101E200090E080E00E949732182F882309F487C041
:101E30004091040150E04115510511F041E050E09E
:101E4000609105017091060164517E4FCE010596A7
:101E50000E9467334091E8015091E9016091EA01E5
:101E60007091EB012FB7F8948091B4049091B50470
:101E7000A091B604B091B7042FBF841B950BA60B9D
:101E8000B70B84369105A105B10540F48DEE91E0C4
:101E90000E94B0039D81891709F451C081E090E050
:101EA0000E94973281111AC010E08091E401909154
:101EB000E501A091E601B091E701F70180839183EC
:101EC000A283B383812F0F900F900F900F900F90EC
:101ED000DF91CF911F91FF90EF90089540910C01F9
:101EE00050E04530510510F044E050E060910D01A4
:101EF00070910E0164517E4FCE0101960E946733AE
:101F00008DEE91E00E94B0039D818913CDCF0E9498
:101F100034056093E8017093E9018093EA0190939E
:101F2000EB0189819A81AB81BC818093E40190931C
:101F3000E501A093E601B093E70111E0B6CF8091EF
:101F4000ED019091EE01A091EF01B091F001898334
:101F50009A83AB83BC831111E4CFA7CFACE0B0E090
:101F6000E4EBFFE00C9412338E010F5F1F4F88E00B
:101F7000D8011D928A95E9F781E2C82E81E0D82E1A
:101F8000F12CE12CAA24A394B12C21E2822E21E091
:101F9000922EF60181916F018F3F09F442C0F894AF
:101FA000E82FE295EF70F0E021A18F70A50102C04B
:101FB000440F551F8A95E2F7CA01922F982B91A3DF
:101FC00092A18095892382A3789400C0E9E1F1E091
:101FD000712C31E021912F3F09F46BC0A22FA29503
:101FE000AF70B0E090968C9190E02F7002C0959504
:101FF00087952A95E2F780FD5CC0832F782A330FFE
:102000008E169F0639F7F601319780818F3F11F0C8
:102010000E94100750EA5A95F1F7F801EE0DFF1DE6
:1020200070828FEFE81AF80AA4E0EA16F10409F0CA
:10203000B0CF48E050E0B8018EEF91E00E945A33F3
:10204000009741F028E0F801AEEFB1E001900D9269
:102050002A95E1F700910702892B69F181E08093CD
:10206000DB010E9440059093DA018093D9018091B1
:10207000D9019091DA010E942505059700F110E041
:102080000F5D1D4F44E050E06EEF71E0C8010E940B
:102090005A33B12C892B51F084E0EEEFF1E0D801F6
:1020A00001900D928A95E1F7BB24B3941092DB0165
:1020B00007C080E0A3CF8091DB018111D8CFB12C84
:1020C0000E949A0BF82EE0910702882309F472C04F
:1020D00019861A861B861C860E2F10E00F5D1D4F79
:1020E0008091F9018A3088F545E05FE0BE01675FC5
:1020F0007F4FC8010E94670B882309F44AC04FEA4A
:102100005EE0BE01675F7F4FC8010E94670B8823B6
:1021100009F43FC01092F9018091060290E044E07A
:1021200050E0BE01675F7F4F8F5D9D4F0E945A3325
:1021300021E02093E201892BF1F4F12C1F2D812F56
:102140008B292C96EDE00C942E338091DC0190913C
:10215000DD010E942505843F914030F68091E20127
:10216000882359F3FE01399684E0DF011D928A9598
:10217000E9F71092E201E0910602F0E0EF5DFD4F19
:1021800089859A85AB85BC8580839183A283B3833F
:10219000D5CF8091F9018F3F31F08F5F8093F901A6
:1021A0008A3008F4B9CF0E9440059093DD018093F6
:1021B000DC01D4CFF0E0EF5DFD4F84E0ADEEB1E0A7
:1021C00001900D928A95E1F78DEE91E00E94B003A7
:1021D0008093EC01C090F101D090F201E090F30106
:1021E000F090F4018091DE019091DF01A091E00177
:1021F000B091E101C816D906EA06FB0611F410E019
:102200009ECFC092DE01D092DF01E092E001F09219
:10221000E1010E949A0B182F8111F1CF0E94340521
:10222000C61AD70AE80AF90AC092FA01D092FB014D
:10223000E092FC01F092FD0182CF80919C0390918D
:102240001905892B80939A018091D601882309F181
:102250008091BF039091C003892B29F00E948509CA
:1022600081110E94360980919A019091D601892BA3
:1022700080939A0120E08CE991E0FC013191CF013B
:1022800031112F5FF1E0823A9F07B9F721110E94C7
:1022900036098091A104809590919A0189239091AB
:1022A000A204892B80939A0148E050E06CEC71E025
:1022B0008AE991E00E945A33892BA9F088E0EAE983
:1022C000F1E0ACECB1E001900D928A95E1F7E0917C
:1022D000AF04F091B004309731F00280F381E02D2B
:1022E0008AE991E009950895CF93DF93EC014A853F
:1022F0005B856E857F850E94B0058B810E946A098F
:102300008C810E9471090E941D1186E0FE011192CC
:102310008A95E9F7DF91CF910895CF93DF93EC0190
:102320008D8181FD14C082608D83809119059B8110
:10233000892B809319058C810E9478090E941D11B8
:10234000488559856E857F85CE010E94B005109223
:10235000AC041092AB048D8180FD03C0CE010E94BD
:102360007411DF91CF91089580913001877F809320
:10237000300182E00E946A098091300184FF06C02A
:102380008F7E8093300182E00E9478098091300135
:1023900085FF06C08F7D8093300180E20E9478091E
:1023A0000E941D11089510929C03ECE9F1E086E073
:1023B000DF011D928A95E9F790E080E00E948B058D
:1023C00090E080E00E946605109219050E941D11A0
:1023D0000895AAE2B0E0EFEEF1E10C941C3387EC33
:1023E00094E02091F100DC012D93CD01B4E08F3C0D
:1023F0009B07B9F78091C804833009F472C0B8F420
:10240000813009F449C0823009F4B3C08091E800FA
:1024100083FF96C28091C7049091C8049A3008F057
:102420008FC2E92FF0E0ED51FC4C0C9444338A301C
:1024300009F48EC08B3009F471C0893039F780916E
:10244000C704813219F78091CB049091CC04009796
:1024500011F00297D9F68091E800877F8093E80019
:102460008091E80082FF38C09091F3008091F200E3
:10247000029731F48091F100813011F0863021F41F
:102480008091F1008093BA048091E8008B7780936B
:10249000E8000E941704BACF8091C704813A09F07E
:1024A000B5CF8091E800877F8093E8008091CB04CE
:1024B0009091CC04892B61F468E08BEB94E070E0A0
:1024C0000E94C3048091E8008B778093E8009ECF40
:1024D00060E090E080E0F3CF8091C5048111C0CF2F
:1024E00095CF8091C704813A09F090CF8091CB04B9
:1024F0009091CC04892B09F089CF8091E800877FE7
:102500008093E8008091E80080FFFCCF8091340147
:102510008093F1008091E8008E77B9CF8091C70455
:10252000813209F073CF8091CB049091CC04892B38
:1025300009F06CCF8091E800877F8093E8000E94CB
:1025400017048091C904809334010E94D3115ECF97
:102550008091C704813209F059CF8091E800877FCC
:102560008093E8000E9417048091CA048093B90404
:102570004DCF8091C704813A09F048CF8091E8009F
:10258000877F8093E8008091E80080FFFCCF8091F6
:10259000B904BECF803899F0823809F0D1C180915A
:1025A000CB048F70873008F0CBC18093E900809115
:1025B000EB0085FB882780F91092E90006C0809126
:1025C000C3049091C404911182609091E800977FB8
:1025D0009093E8008093F1001092F1008091E80060
:1025E0008E77AAC1882309F498C1823009F0A8C166
:1025F0008091C90481119BC18091CB048F702FEF12
:10260000280F263008F09CC18093E9002091EB0050
:1026100020FF8DC1933031F48091EB008062809374
:10262000EB0085C19091EB0090619093EB0021E06D
:1026300030E001C0220F8A95EAF72093EA00109259
:10264000EA008091EB008860EACF811179C1109196
:10265000C9041F778091E3008078812B8093E30089
:102660008091E800877F8093E8000E9417048091A2
:10267000E80080FFFCCF8091E30080688093E30056
:1026800082E0111183E08093C5045AC180588230E2
:1026900008F056C12091C9043091CA042C3DE3E0F2
:1026A0003E07A1F583E08A838AE289834FB7F894D5
:1026B000DE01139620E03EE051E2E32FF0E050937C
:1026C0005700E49120FF03C0E295EF703F5FEF7089
:1026D0008E2F90E0EA30C0F0C7968D939D932F5FC8
:1026E000243159F74FBF8091E800877F8093E8003D
:1026F0006AE270E0CE0101960E94C3048091E80076
:102700008B778093E8001CC1C096E7CF8091CB0403
:102710009091CC04432F55274330510509F44AC00A
:1027200078F54130510509F485C08BE590E0ECE384
:10273000F5E04230510509F003C12091E800277F00
:102740002093E8002091CD043091CE0482179307A6
:1027500008F49C0140E02115310509F070C04111D9
:102760006EC08091E80082FDC9CF8091C5048823A6
:1027700029F2853019F28091E80083FFF2CFBECFB5
:102780004132510509F447C04232510509F0D8C021
:102790008330910508F0D4C0FC01EE0FFF1FE55710
:1027A000FE4F0190F081E02D88579E4FDC018C9107
:1027B00090E01DC0332721303105E9F021153105A6
:1027C00079F022303105F9F02330310509F0B8C035
:1027D000E9EAF5E0E4918E2F90E0E9EAF5E007C040
:1027E000E9EFF5E0E4918E2F90E0E9EFF5E0009756
:1027F00009F4A6C0A2CFEFEDF5E0E4918E2F90E0B2
:10280000EFEDF5E0F4CFE7ECF5E0E4918E2F90E00A
:10281000E7ECF5E0ECCF8330910508F091C0880F2C
:10282000991FFC01EF56FE4F0190F081E02D89E0E9
:1028300090E083CF82E190E0E7E9F5E07ECF809100
:10284000C504882309F45ACF853009F457CF809105
:10285000E80083FD53CF8091E80082FD82CF809114
:10286000E80080FF78CF9091F3008091F20021156D
:10287000310519F08830910550F041E0089709F0D2
:1028800040E08091E8008E778093E80064CF449127
:102890004093F1003196215031090196E8CF8038FC
:1028A00009F04EC08091E800877F8093E800809116
:1028B000C6048093F10092CE811142C01091C904E8
:1028C0001230F0F58091E800877F8093E800109344
:1028D000C6040E941704112311F084E005C0809102
:1028E000E30087FDFACF81E08093C50442E061EC0C
:1028F00081E00E94360442E261EC84E00E943604EA
:1029000042E261EC82E00E94360442E260EC83E045
:102910000E9436048091C50413C08091C90481309F
:1029200079F481E0933009F080E08093C404109240
:10293000E9008091E800877F8093E8000E941704F7
:102940008091E80083FF0AC08091E800877F809330
:10295000E8008091EB0080628093EB00AA96E3E0B0
:102960000C943833EDEBF3E0128E138E8FEA90E087
:102970009183808385E0848F28E833E13383228349
:1029800022E330E0378B268B28EC30E0318F208F2C
:10299000158E178E168E20E530E031A320A382A37A
:1029A0000E943B0D0E94D31110929B0310929A0338
:1029B000EBE9F3E080818460808360919A037091F9
:1029C0009B0384E090E00E94C3330E94580D089559
:1029D000AEE1B0E0EEEEF4E10C941233A0903201DF
:1029E000B090330181E090E0909333018093320105
:1029F0008CE3C82E83E0D82E00E0760110E015C0ED
:102A0000F40125913491472D612F802F0E94F80BFE
:102A100082E0880E911C7394E8E07E12F1CFF0E121
:102A2000EF0EF11C1F5F183019F04701712CE8CF31
:102A30000F5F80E8C80ED11C0430F9F60E94B21472
:102A40001A8219821C821B821E821D8218861F8296
:102A500088EC90E09A8789870DE412E04AE050E024
:102A6000B801CE0101960E94C933065F1F4F0D3990
:102A7000E2E01E0799F77E01FBE0EF0EF11C8AE011
:102A8000F70111928A95E9F74AE050E0B801C701D1
:102A90000E94C933065F1F4F0D3EF2E01F07A1F7EA
:102AA0007E0185E1E80EF11C8AE0F70111928A951A
:102AB000E9F78FEF9FEF9A8F898F87E08E8F4AE03B
:102AC00050E0B801C7010E94C933065F1F4F0D33A4
:102AD000F3E01F07A1F7B0923301A09232016E9686
:102AE000EDE00C942E3380E00E941F0C60E088E241
:102AF00090E00E94A5330E94E8140E94E80B81E058
:102B00000E941F0C0895CF92DF92EF92FF928FEFF9
:102B10009FEF4430510508F46CC0FB01C080D180A8
:102B2000E280F3800E94D31180919A03C0FA80F969
:102B3000B701A601769567955795479540FB81F9B2
:102B4000B701A60122E076956795579547952A9596
:102B5000D1F740FB82F9B701A60133E0769567957E
:102B6000579547953A95D1F740FB83F9B701A601F0
:102B7000E4E07695679557954795EA95D1F740FB40
:102B800084F9B701A601F5E07695679557954795C5
:102B9000FA95D1F740FB85F9B701A601A6E0769535
:102BA000679557954795AA95D1F740FB86F9B701E8
:102BB000A601B7E07695679557954795BA95D1F7F1
:102BC00040FB87F980939A0380919B03D0FA80F9A8
:102BD000D1FACC24C0F8C0FA81F980939B036091AC
:102BE0009A0370919B0384E090E00E94C33390E0CD
:102BF00080E0FF90EF90DF90CF9008950E94D31176
:102C00002FEF84E39CE0215080409040E1F700C02A
:102C1000000088E19CE00FB6F894A89580936000CE
:102C20000FBE90936000FFCF882321F00E946A09B5
:102C30000E941D110895882339F090911905982B51
:102C4000909319050E941D110895882321F00E9478
:102C500071090E941D110895882321F00E947809AE
:102C60000E941D110895882339F19CEF980F913A25
:102C700028F40E94A9090E941D11089590E2980F5E
:102C8000983050F4877091E001C0990F8A95EAF767
:102C9000892F0E947109EFCF9BE5980F933028F49C
:102CA00090E080E00E948B050895885A8B3120F4D3
:102CB00090E080E00E9466050895FF920F931F93B5
:102CC000CF93DF93F82E0091A6041091A70401156D
:102CD000110509F449C01092A5041092A4041092A1
:102CE000A1041092A204D8011696CD91DC919E0108
:102CF0003A9521153F4108F4D07ED1E0C11101C0C1
:102D0000D0E0D8011996ED91FC911A97309731F0E7
:102D10001B966D917C9180E00995D823DD2339F0D5
:102D20008CEF8C0F813A30F58C2F0E94A909FF207F
:102D300099F0E091A604F091A704808584FD0CC071
:102D40008091A304882341F0808191819C012150CE
:102D500031092F333E47A0F00E941D111092A704A5
:102D60001092A6041092A304C801CDB7DEB7E5E027
:102D70000C9436330E941D118C2F0E943316D7CF2E
:102D80000E94B605E9CFCF93DF93EC010E94331682
:102D9000CE010E94B20A9E01205E31092830310521
:102DA00010F0CD2B29F40E942516DF91CF910895C4
:102DB0000E941416FACFCF93C82F8823A9F08CEF66
:102DC0008C0F813A98F4ECE9F1E082EA91E02191EC
:102DD000C21799F18E179F07D1F76C2F8AE991E0FE
:102DE0000E944C050E941D11CF91089580E28C0F26
:102DF000883048F4C77081E001C0880FCA95EAF7AF
:102E00000E947809EFCFEBE5EC0FE33040F4F0E0FF
:102E1000EB5BFE4F808190E00E948B05E5CFC85AA6
:102E2000CB3110F7EC2FF0E0EE0FFF1FE85BFE4F09
:102E3000808191810E946605D7CF8C2F0E94A909BD
:102E40000E941D11CACF1F93CF93DF93182FC091FB
:102E5000DD03D091DE03893321F0C091DB03D091F3
:102E6000DC03812F0E94DB16209739F4812F0E940A
:102E70003316DF91CF911F9108958FE99FE001975D
:102E8000F1F700C000002197EFCFB0E0A0E0EBE445
:102E9000F7E10C941533EC018AE0A82E2881222357
:102EA00009F48FC02130C9F599818A81913021F4CC
:102EB00022960E94231705C0923029F422960E9480
:102EC000DB162196EBCF933021F422960E94331625
:102ED000F8CF943011F02196F4CF229630E020E024
:102EE000AE014F5F5F4F8053990B8A30910550F0D0
:102EF0002150310930F38FE99FE00197F1F700C0CD
:102F00000000F6CFA29EB001A39E700D11249C017B
:102F1000260F371F8981EA01E3CFE22FF0E0E35D5E
:102F2000F94FB490822F86958695869590E0FC01A6
:102F3000E35EF94FE4902770F12C022E02C0F59465
:102F4000E7940A94E2F731E0E322FF24FC01E35F17
:102F5000F94FC490D12C022E02C0D594C7940A9484
:102F6000E2F731E0C322DD24FC01E350FA4F049183
:102F700010E002C0159507952A95E2F70170112718
:102F8000E114F10419F081EE0E94DB16C114D104A2
:102F900019F086EE0E94DB168B2D0E942317C114B8
:102FA000D10419F086EE0E943316E114F10419F0F1
:102FB00081EE0E9433160115110509F482CF8CE2CF
:102FC00078CFCDB7DEB7EAE00C943133B0E0A0E0C3
:102FD000ECEEF7E10C9415337C015B01C42FD22F8A
:102FE000FC0185818823A9F04093AA040E94400532
:102FF0009093A9048093A804C77081E001C0880F52
:10300000CA95EAF70E942C16CDB7DEB7EAE00C9419
:1030100031331091AA04141338C08091A804909100
:10302000A9040E9425056C01B701C5010E944C0C42
:10303000C816D90650F5C0E2CD0F1D17C1F080E2C9
:10304000810F883048F4177081E0012E01C0880F8D
:103050000A94EAF70E942516C83048F481E09D2FB3
:10306000977001C0880F9A95EAF70E942C16802F5E
:103070000E942317C83040F6D77081E001C0880F46
:10308000DA95EAF70E942516BFCFC77081E001C02C
:10309000880FCA95EAF7F6CFCF93DF93EC010E9431
:1030A000B20A9E01205E31092830310510F02097C8
:1030B00041F40E942C168C2F0E94DB16DF91CF91D9
:1030C00008950E941B16F7CF662329F02091190559
:1030D0002260209319059C0130522115304308F4D9
:1030E00099270E944C180895B0E0A0E0EAE7F8E1C3
:1030F0000C9417336C018B01E42E8091300182FF18
:1031000087C0C091E303D091E403CC15DD0521F025
:10311000C114D10409F07CC0809130018B7F809371
:10312000300181FD6EC08091E1039091E203A8011E
:10313000481B590B81E020912E0130912F0142173D
:10314000530708F480E08170F82E80913001F0FA86
:1031500081F980933001FE0183E0F695E7958A9529
:10316000E1F7EE71FF27E356FC4F20813181AE017C
:103170004F70552781E090E002C0880F991F4A9553
:10318000E2F7FF2009F43FC0822B932B91838083C9
:1031900080919C0381FF08C0809130018061809301
:1031A000300182E00E94710980919C0385FF08C074
:1031B0008091300180628093300180E20E94710929
:1031C0006F2DCE010E946418EE2031F08091D8035B
:1031D00085FF02C086FF30C08091DB039091DC0345
:1031E0000E945D0B8091E3039091E4039C013052B7
:1031F0002115304308F499270E94C3160E94B41188
:1032000017C081E0A0CF8095909582239323BECFF5
:10321000C601905281159043A0F4C60199270E94DF
:10322000C3168091E3039091E4038C159D0531F35F
:103230001093E2030093E103CDB7DEB7E8E00C940E
:103240003333C601ECCFA7E0B0E0E9E2F9E10C943A
:103250000D337C01DC0114968C91882309F457C14D
:1032600061E0C7010E942C0D8C01F7018581882344
:1032700019F18091AB049091AC040097E9F0081724
:103280001907D1F09927F4E0880F991FFA95E1F713
:10329000FC01EC5BFD4F208124602083815C9D4F0D
:1032A000DC010D931C930E948D111092190561E0B1
:1032B000C7010E942C0D8C01F7018581882309F438
:1032C000B1C0C80197578038910508F0DEC0D02EF4
:1032D000FFE0F01708F40BC18FEF93E00E948733F3
:1032E000811105C10DE313E0D11036C019821A8295
:1032F0001B821C8299249A9468013FEFC31AD30A57
:10330000C8010E94873389831A82882309F4EFC099
:10331000813009F081C0580142E0A40EB11CC60101
:103320000E948733C82E8A83882309F4E0C0C50130
:103330000E948733D82E8FEF8C0D8330D8F458013C
:1033400053E0A50EB11CDB82DD2021F0CE010196F9
:103350000E9445178501D0CF011524E0120709F41A
:10336000C6C0C8010E948733811101C0DA940F5F83
:103370001F4FBACF8BEF8C0D833030F5C801039609
:10338000DB825C01DD2031F35801A4E0AA0EB11C00
:103390000E9487338C838823E9F28B819C81813062
:1033A000BFEF9B0710F0982F8827E6E0CE1631F08C
:1033B000F7E0CF1631F00E948128CCCF0E945C2824
:1033C000C9CF0E94E327C6CF24E0C212C3CF580161
:1033D00034E0A30EB11CC80103960E948733DD20A0
:1033E00009F485C0882309F482C08150990B989E06
:1033F0009001999E300D11244D2D4150550BCA015D
:10340000820F931F019708F4A5CFAFE9BFE0119792
:10341000F1F700C00000F6CFCE0101960E944517DB
:10342000560198CF6801E7E5DE1AFFEFCF16D10409
:1034300009F058F565E372E08C2D0E94380C892B59
:1034400021F5C60174E0880F991F7A95E1F7FC0118
:10345000E15CFD4F22812130A1F5209135023091B0
:103460003602232B91F02091370230913802232B22
:1034700061F02091390230913A0240913B02509123
:103480003C02242B352B232B21F1D70115965C9080
:10349000552009F440C00E35BCE71B0729F10F3554
:1034A000ECE71E0741F00D35FCE71F07A1F5809101
:1034B00000018823C9F01092000180E00E945D168F
:1034C00016C0223011F72091390230913A02232B95
:1034D000E1F2FC01EC5BFD4F20812E7F2083815CBB
:1034E0009D4F0E948D11D1CF81E08093000180918A
:1034F000CB01877061F0D70115968C91882339F044
:1035000080919B0382FF03C082E00E945A0A2796A3
:10351000E2E10C94293380910001882309F467C605
:10352000480120EE821A91084090D6018091C8018E
:10353000482A80919C03482A38E08316910408F0B9
:1035400086C098012770332781E090E001C0880F82
:103550002A95EAF7552009F477C0482AD7018D91BA
:103560009C910E94C00921E030E0390102C0660C44
:10357000771C8A95E2F7E091A604F091A704FF83F7
:10358000EE832090A2013090A3011D822D81E22FB5
:10359000F0E0EE0FFF1FE05FFC4FC080D180C11450
:1035A000D10409F47FC6411005C0D60112968C9152
:1035B000811189C0F601838190E086219721892BB2
:1035C00009F481C08085982F977009F487E0F8E0AE
:1035D0008F16910408F055C0552009F44EC0869509
:1035E0008170882309F46FC0D601AD90BC900A1594
:1035F0001B0519F4552009F466C0EE81FF81CE1633
:10360000DF0609F460C0D6011D96ED91FC9130975C
:1036100021F08081882309F456C0642DC6010E94E0
:103620000706882309F44FC00A151B0509F0A2C636
:103630000115110509F4A3C65110A3C6A214B304C1
:1036400009F041C0512C9DC68095482287CF552056
:1036500009F411C61093A3010093A2010E9434053E
:1036600060939D0470939E0480939F049093A004A4
:103670001092A5041092A40471CF82FB882780F9D0
:10368000B0CF552001F18170ACCF0E94331697C6A0
:103690000497813A910558F46A2D8AE991E00E94D5
:1036A0004C05552009F4A3C50E941D1120CF0E948E
:1036B0001D118FE39CE90197F1F700C000008A2DEE
:1036C0000E94DB16EECF9D819F5F9D835FCFFC0143
:1036D000208131810217130709F082C5511082C57C
:1036E0001092A30480E00E945D1681C5902F812F67
:1036F000BDC5F9014485558566857785C9010E9458
:10370000B005D60115968C9181FFE0C5C6010E94D7
:1037100074118091AB049091AC040817190709F05B
:10372000D5C51092AC041092AB04D0C59091300175
:10373000892F8E7F90FF8160809330010E94B411A9
:10374000F0C5809130018E7FF7CF809130018F7E60
:10375000013E110531F0053E1105E9F4809130017B
:103760008F7D809330018091300180FF29C0D70187
:1037700015968C910832110570F50E31110508F07F
:103780007BC004301105C8F58823D1F01092E40302
:103790001092E30315C0C80190528115904318F7A9
:1037A0008091300182FF0CC08091DA0381FD08C056
:1037B00025E132E040E0B60190E080E00E9474181C
:1037C000F801E851FC47E730F10508F0B4C5E351D2
:1037D000FC4C0C9444330933110558F40D32110597
:1037E00018F40B32110581F69091D80392FDCCCFDD
:1037F00008C004361105C1F3C7CF9091D80394FDDA
:10380000C3CF882309F4A8C08091D60190919C036E
:10381000892B8D7FB1F11092E4031092E303809124
:10382000D80381FD2EC0F80143E0F695E7954A954F
:10383000E1F7EE71FF27E356FC4F98012F70332715
:1038400081E090E002C0880F991F2A95E2F78095E9
:10385000909520813181822393239183808360E03E
:10386000C8010E9464188091D6018D7F0E94410991
:1038700082E00E945A0A3BCE9091D80393FD84CFF8
:10388000C0CF89E0F701A5E1B2E001900D928A95E1
:10389000E1F710921A02109218021092170280910A
:1038A000E3039091E40308171907D1F52091D80399
:1038B00025FF36C03091300131FF02C026FF30C0F5
:1038C0002091E1033091E2035601A21AB30AB70135
:1038D0000E944C0CA816B90618F580919C0381FF34
:1038E00008C08091300180618093300182E00E94A5
:1038F000710980919C0385FF08C08091300180622E
:103900008093300180E20E947109609130016695D8
:1039100061708091E3039091E4030E946418E7CD05
:103920008091D60190919C03982B2091300191FBBE
:1039300021F9209330018D7F0E9441091093E40307
:103940000093E303D092E203C092E103809130013F
:103950008460809330018CCF970140E0B601C801AC
:103960000E947418C4CD06E221EE41EE6AE17CE7C4
:10397000C7010E94E617BBCD07E225EE45EE6BE1DD
:103980007CE7F6CF06E221EE40EE68E17CE7F0CF7F
:1039900007E225EE44EE69E17CE7EACF06E221EE9C
:1039A00042EE6CE17CE7E4CF07E225EE46EE6DE106
:1039B0007CE7DECF08E221E045EE6EE17CE7D8CF80
:1039C00080919A03816080939A0395C080919B03B4
:1039D000886080939B038FC080919A038260F3CFAD
:1039E00080919A038460EFCF80919A038860EBCF37
:1039F00080919B038160EDCF80919B038260E9CF32
:103A000080919A038061DFCF80919A038062DBCF3F
:103A100080919A038064D7CF0E94D31180919A033A
:103A20008068D1CF80919A038C60CDCF80919B0329
:103A30008360CFCF80919A038E7FC5CF80919B0307
:103A4000877FC7CF80919A038D7FBDCF80919A03E6
:103A50008B7FB9CF80919A03877FB5CF80919B03ED
:103A60008E7FB7CF80919B038D7FB3CF80919A03D8
:103A70008F7EA9CF80919A038F7DA5CF80919A03E5
:103A80008F7BA1CF0E94D31180919A038F779BCF18
:103A900080919A03837F97CF80919B038C7F99CFEE
:103AA00080919A0382FB992790F921E0922790FB5D
:103AB00082F990FB83F987CF80919B03982F909593
:103AC00091708E7F892B90FB81F983CF90919A031F
:103AD000892F8F7B96FF806476CF0E94D3119091BF
:103AE0009A03892F97FB87F980586DCF61E08EE0AC
:103AF00090E00E94A53360919A0370919B0384E04B
:103B000090E00E94C3330E94D311F1CC60E0EFCF6C
:103B100090919A03892F8F7E94FF806154CF90916A
:103B20009A03892F8E7F90FF81604DCF90919B03E8
:103B3000892F877F93FF88604CCF0631FCE71F07F2
:103B4000B9F580919C03982F9A7A3091D70330FF72
:103B500004C0482F447409F090E031FF04C0482F9E
:103B6000417109F090E032FF04C0482F487809F015
:103B700090E033FF03C0827209F090E0222371F0DD
:103B800081E0911101C080E08093A40169E291116C
:103B900065E38AE991E00E944C0586CD8091A401FD
:103BA000811104C089E20E94A9097ECD85E3FBCF83
:103BB00007373CE7130709F458C008374CE71407E8
:103BC00009F45EC0222381F003305CE7150709F495
:103BD00077C008F05AC001159CE7190709F463C0C3
:103BE00001301C4709F472C0F70187819085009766
:103BF00009F47AC00E941808182F092FF701B58020
:103C0000C680C2943FE0C3228091CB018770F1F05F
:103C1000AB2CBB20E1F0892F807F803451F080E213
:103C2000810F883098F0C11004C0892F807E8032C7
:103C300069F080919B0382FF09C082E00E945A0ACA
:103C40008091CB018770AA24A3948111A12C902E7E
:103C500092942FE09222FBE0F91508F4D5C0E92DEB
:103C6000F0E0EC50FC4C0C94443381E0222351F002
:103C70000E94710A43E062E081E00E942D0A37CC85
:103C800082E0F4CF0E944D0AF5CF0B35BCE71B074D
:103C900049F10C35ECE71E07D9F00A351C4709F04D
:103CA000A3CF81E01CC00E94D3112FEF34E34CE07E
:103CB000215030404040E1F700C000000E94390B25
:103CC0006FEF7FEF90E080E00E94C3330E94FE150B
:103CD00080919B0382FB882780F991E089270E94CD
:103CE000970D82CF80E0FBCF8581008111818823F1
:103CF00069F0C8010E94B70CD82E682FC8010E9435
:103D0000F409B8018D2D0E949A0C74CFC8010E944D
:103D1000C009D82EF6CF202F2F70D22E802F807F73
:103D200019F0D29490EFD922BB20A9F0DD2059F0F0
:103D300080E2810F883010F0111107C08D2D0E9494
:103D400078090E941D11812F5DC080911905D82A24
:103D5000D0921905F6CF812F0E943316DD2009F489
:103D600053C080E2810F883010F0111104C08D2DF6
:103D70000E94710903C08D2D0E946A090E941D11C5
:103D800043C0302F3F70D32E802F807F803219F0B8
:103D9000D29480EFD822112339F1113009F4B6C042
:103DA000BB2009F4C2C0CC2009F466C020E0D701D2
:103DB0004C9111965C91119712966C9112971396F3
:103DC0007C91139714968C91149715969C910E9450
:103DD000070D8091DA0381FDB6CFF701868180FF60
:103DE000B2CF8F70868348C080919B0382FD40C014
:103DF000BB20C1F1DD2029F08D2D0E9478090E94A1
:103E00001D1180E00E94DB16A92DA850BB0B149752
:103E100010F40E94BD0B812F902F0E94970A8111F0
:103E2000BFC11092A6011092A501AA20B1F0809105
:103E3000CB0180FD12C0D70115961C928695869500
:103E400086950E94710AC7010E9423198091CB01B7
:103E50008695869586950E944D0A60E0C7010E946E
:103E60002C0D55CB80E00E943316DD2069F27FCF08
:103E7000BB2091F1C11004C08D2D0E942C16C4CF1F
:103E800041E0C41211C08090D6018D2D8821D81632
:103E900009F4BACF0E9440059093D5018093D401D4
:103EA000D828D092D601B0CF8091D903823008F4BF
:103EB000ABCFC812A9CF8D2D0E942C168D2D0E943C
:103EC00055098091C8019D2D9823D91609F49CCFDE
:103ED000D82AD092C80198CFC1100AC08D2D0E9457
:103EE00025168D2D0E9455098D2D0E949F098CCF7E
:103EF0008091D903823008F487CF51E0C51284CF76
:103F000080919C038D2109F47FCFE8CF8091DF035E
:103F1000BB2021F08C1508F477CFAECFC81608F07F
:103F200073CF8D2D0E9425166FCFCC20D1F38091B9
:103F3000DD039091DE03193321F08091DB03909132
:103F4000DC030E945D0B812F0E9433165DCF802F12
:103F500086958695837069F0813009F055CF812F61
:103F6000902F9370B11002C080E090E00E9466052F
:103F70004BCF812F902F9370B11002C080E090E062
:103F80000E948B0541CF802F837091F5B1103CCFFB
:103F9000412F429546954770440F440F812F8F70F3
:103FA000042E01C0880F0A94EAF7212F207114FF14
:103FB00007C02FE030E001C0220F4A95EAF72095B4
:103FC000302F369536953370323069F050F4409189
:103FD0000802313029F0822B84230E94940A14CFE6
:103FE000842B822BFACF282B809108028227F5CFD1
:103FF0008695BB2011F0802F8170882309F404CFAF
:10400000412F429546954770440F440F812F8F7082
:10401000042E01C0880F0A94EAF7212F207114FFA3
:1040200007C02FE030E001C0220F4A95EAF7209543
:10403000302F369536953370323069F050F4409118
:104040000902313029F0822B84230E942A0ADCCE17
:10405000842B822BFACF282B809109028227F5CF5F
:10406000F02FFF70DF2EBB2029F08F2F0E94710AE6
:10407000812F03CF812F0E9425168D2D0E944D0A7E
:10408000C3CE123F89F160F4103FB9F0113F81F0C7
:10409000BB2009F480C0C11056CE802F8F7128C07C
:1040A000133F49F1143FA1F780919B0382FD2FC07C
:1040B000802F8F71BB2011F31BC08091DF03BB20C9
:1040C00079F0C81608F0A0CE202F2F7181E090E083
:1040D00001C0880F2A95EAF7909109028927B5CF88
:1040E0008C1508F491CEF0CF802F8F71B110C6CF10
:1040F0000E94710A89CE80E0BB2009F4A6CF81E03E
:10410000902F9F7101C0880F9A95EAF79ECF8091FA
:10411000D903823040F1BB20D1F09091CB01977050
:10412000943041F40E947E09802F8F710E944D0AC5
:10413000A12C6ACEC816E0F7202F2F71D22E822F25
:104140000E94710A63E08D2D0E947D0AF1CFC8168E
:1041500030F00E947E0964E0802F8F71F5CF81E0FE
:104160000E945A0AE5CFBB2059F0302F3F71D32E61
:10417000832F0E94710A63E08D2D0E947D0A44CE38
:1041800081E00E945A0A41E04C1508F03DCE82E0E1
:104190000E945A0A39CEC110CACE802F8F716ECFBD
:1041A000BB2019F0C1103DCE40CEC1103ACE20E068
:1041B000F7014081518162817381848195810E94E0
:1041C000070D8091DA0383FF2CCE8091A501909199
:1041D000A601029709F025CE812F0E94231721CE38
:1041E000552029F0DC0118968C9185FF7BCAC80107
:1041F00097558F3F910511F008F068C0F801FF272F
:1042000054E0EE0FFF1F5A95E1F79F01215C3D4FEF
:104210006901D70115968C91EC5BFD4F908180FB75
:1042200090F99083882309F464CA0E944005909312
:10423000140280931302F60182818F5F8283809142
:10424000190590919C03892B83838091D6018483E7
:104250004681578166857785C6010E94B005D601E3
:1042600015968C9181FF42CA90E080E09093AB0458
:104270008093AC042BC08091A2019091A3010817F8
:10428000190781F41092A3011092A20110929D04CB
:1042900010929E0410929F041092A0041092A50404
:1042A0001092A4048091A6049091A704009709F4A9
:1042B0009ECFA8E08A16910408F009CA642D0E94D6
:1042C0000706811103C081E00E945D168091D8032A
:1042D00080FF76CA0E9440056C01F7018581882322
:1042E00009F433CA8091300182FF08C025E132E031
:1042F00040E0B60190E080E00E9474180431FCE7D1
:104300001F0709F41ECA05312CE7120709F40ECA6B
:1043100003313CE7130729F48091300181608093D9
:104320003001C80190528115904308F01CCA1092C8
:10433000E4031092E303F7012581222309F4FDCB66
:104340001092AA04C8019057839708F0F6CB84E036
:1043500090E00E948F3390939B0380939A03F8011F
:10436000E150F047E232F10508F02ACBE050FC4C76
:104370000C944433A114B10409F060C9512CB12C40
:10438000A12C80E00E945D16D092A704C092A604E2
:1043900081E08093A304F60185818093A1045110EC
:1043A0000EC0AB2861F0F601808191819C01245000
:1043B0003109213A310508F068C90E94A909D601DE
:1043C0001696AD90BC90C5019A9581159F4110F449
:1043D000E0EEBE2277247394C50101978F339E4788
:1043E00008F0712CD6011996ED91FC911A9730972F
:1043F00031F01B966D917C9181E0099578227720B0
:1044000079F0F601868197810E94B20A8093A20416
:10441000C501F8E08F16910408F03AC90E94B6056C
:104420000E941D113EC9B0E0A0E0E9E1F2E20C9467
:1044300018338091C501807F09F054C08091C40178
:10444000882309F44FC0E091180589E0D82E8091A7
:10445000CF048E1709F446C00E2F10E0ED9DF00139
:104460001124E053FB4F8481882309F440C0D09E7F
:10447000E001D19ED00D1124FE01E053FB4F91814C
:104480008091C001981333C090818091BF0198132F
:104490002EC0858181112BC0E280F3808091C10103
:1044A0009091C201E81AF90A60E08FEB91E00E9456
:1044B0002C0D6FEB71E00E944C0CE816F906B8F475
:1044C0008091C5018F7080618093C501CA52DB4F16
:1044D00088818F70806188838FEB91E00E9423191F
:1044E0000E94B609CDB7DEB7E7E00C943433F8018B
:1044F0003196E770ACCFA8E1B0E0E1E8F2E20C94CD
:1045000010338C0186E0F801DE01539601900D9284
:104510008A95E1F7D80114967C9014971596EC9043
:104520008FEBA82E81E0B82E8091C30181112AC0A3
:10453000711003C0FF24F3941CC0EE20F9F0C801F1
:104540000E94F30CF82E8823C9F089E0F801AFEB44
:10455000B1E001900D928A95E1F78091C30181301D
:1045600031F48091BF019091C0010E94E60C0E943D
:1045700013228F2D6896EFE00C942C33C8010E9413
:104580002319D8CFF80150806180C280D38060E0C9
:104590008FEB91E00E942C0DF090C4018091C1013D
:1045A0009091C2014601881A990A60E08FEB91E070
:1045B000FF2009F428C10E942C0D6FEB71E00E94CE
:1045C0004C0C8816990608F0D1C0772009F4B2CFB8
:1045D0008091C501382F307F2091C001D8011196FC
:1045E0009C911197311171C029131FC02091BF01F7
:1045F0009C9129131AC04091C6015091C70117968A
:104600002D913C914217530781F4E11054C08F70F3
:1046100080618093C5018FEB91E00E942319809106
:10462000C501F8018683F12CA4CFE11044C0662DAA
:10463000852D0E949103E82E882381F08091DA0372
:1046400080FFF1CF8FEB91E00E94231989E0EFEB1F
:10465000F1E0DF011D928A95E9F7E5CF5B8A6C8A6C
:104660008B899C890E94E60C292F22952F7024307B
:1046700058F49F70223088F0992399F0F8019681C0
:10468000907F79F4FE2C75CF2A5F2F70223068F06E
:10469000C8010E942319EF2CF5CF992311F088232C
:1046A00089F3805E883070F3F3CF803F58F3815FE9
:1046B000833070F7E7CF8091C50181608093C50199
:1046C0008091DA0381FDAFCFBDCF291320C02091A7
:1046D000BF019C9129131BC04091C6015091C70195
:1046E00017962D913C9118974217530781F4E110CA
:1046F0000EC016968C93C8010E94231989E0F80118
:10470000AFEBB1E001900D928A95E1F732CFC8018D
:104710000E94F30C882309F431CFEE2009F42ECF48
:104720008091C5018032B8F02091BF013091C00165
:104730003B872A87DD86CC869091C3019E871F86A2
:10474000888B8091C6019091C7019A8B898BCE018D
:104750000A960E94231989E0F801AFEBB1E00190BD
:104760000D928A95E1F70E941322E4CE8091C50153
:10477000982F907F09F466CF772009F4DBCE209143
:10478000C001F801918129131AC02091BF019081C5
:10479000291315C04091C6015091C701278130856A
:1047A0004217530761F4E1100AC08683C8010E94D2
:1047B000231989E0D5011D928A95E9F7DACEC8015F
:1047C0000E94F30C882309F4D9CEEE2009F4D6CE4A
:1047D0008091C501803208F4BECF2091BF01309195
:1047E000C0013A832983DC82CB829091C3019D83EF
:1047F0001E828F838091C6019091C7019987888717
:10480000CE010196A6CF0E942C0D6FEB71E00E94A5
:104810004C0C8816990608F04AC0772009F48ACE15
:10482000FE2CEE2009F4AACE9091C001F8018181FE
:1048300098132FC09091BF01808198132AC02091B6
:10484000C6013091C701878190852817390709F57E
:104850008091C1019091C201C81AD90AF8ECCF1613
:10486000D10408F04BCF9091C50190FD47CF907FC8
:1048700009F444CF8091C501D80116968C93169700
:10488000903F09F438CF982F907F905F8F70892BDD
:1048900030CFC8010E94F30C81115DCF8091C5011A
:1048A00081608093C501C8010E94231962CE89E00E
:1048B000F50111928A95E9F75CCEA2E1B0E0E3E65A
:1048C000F4E20C941B330A871B872C873D874E87A5
:1048D0005F87688B798B8A8BCE010A960E947B2238
:1048E00081110CC089E0FE013A96DE01119601901B
:1048F0000D928A95E1F78E8581110BC019E08091A8
:1049000018059091CF04891331C06296E4E00C94AD
:1049100037332091CF0430E0C90101968770992781
:10492000409118054817190699F099E0929FD00117
:10493000939FB00D1124A053BB4FFE0131960190FF
:104940000D929A95E1F78093CF040E94B609D6CFD5
:104950000E94D3111092CF041092180589E0EFEB5A
:10496000F1E0DF011D928A95E9F7C8CF819FC00170
:10497000112480539B4F0E947B22882331F2809127
:10498000180590E001968770992780931805B7CF96
:10499000EF92FF920F931F93CF93DF9380912004A8
:1049A000882361F0E091E7038DE0F82E80912004E8
:1049B000E81748F0109220041092E703CDB7DEB755
:1049C000E6E00C943533EE24E394EE0EE092E70338
:1049D000CE2FD0E0EF9DF0011124EF5DFB4F8481DD
:1049E0008823E9F087819085892B21F48185928540
:1049F000019659F4008111812281338144815581CE
:104A00006681778180850E945D24FC9EF001FD9E79
:104A1000F00D1124EF5DFB4F148210921905EE2D5D
:104A2000C5CF10929404109293041092310180919A
:104A30009204809391040E9455060E94C824089510
:104A4000B0E0A0E0E6E2F5E20C940E33C0919104F0
:104A500097E0992E01E010E02DE0322E34E0432E55
:104A600055245394809192048C1309C00E94C82449
:104A70000E945506CDB7DEB7E1E10C942A33D0E0B1
:104A8000FE01EE0FFF1FE757FB4F80819181989E3B
:104A9000D001999EB00D1124A851BC4F14962C91B1
:104AA0001497211159C060902004E1E2F4E030E055
:104AB00020E0812C5D01261508F04CC0E384F484CD
:104AC000D501CD90DC906FEF7FEF712C472D50E03A
:104AD000DA01AA0FBB1FAC0DBD1D0D90BC91A02D1E
:104AE000109731F0EA16FB0609F4BA017394EECF81
:104AF0006F3F7607A9F1D80102C0AA0FBB1F6A95C4
:104B0000E2F78A2AB801072C02C0660F771F0A94C1
:104B1000E2F7AB01415051098416150601F5329EAA
:104B2000F001339EF00D1124EF5DFB4F989ED001F4
:104B3000999EB00D1124A851BC4F12962D913C9115
:104B4000139730872783448210821182928781874E
:104B500015965C920E9427062196C37083CF14821B
:104B60002F5F3F4F3D96A7CFAEE1B0E0EAEBF5E215
:104B70000C940D334B8B5C8B6D8B7E8B8F8B988F56
:104B8000882349F08091A5019091A6010196909308
:104B9000A6018093A501888D811110921905188AAC
:104BA000198A1A8A86E0FE017396DE011A96019030
:104BB0000D928A95E1F780919B0382FF1EC0809140
:104BC000BF039091C003892BC1F00E944005209142
:104BD000C9013091CA01821B930B2091BF03309110
:104BE000C0038217930720F08091CB0182FFE7C1B9
:104BF0000E94850981110E9436098E85882389F0DB
:104C000061E0CE010A960E942C0D6C018F8520E593
:104C1000C2162CE7D20689F4882329F181E080931B
:104C200031010A851B852C853D854E855F85688908
:104C300079898A890E945D24CDC031E5C3163CE79D
:104C4000D30629F4882379F00E941125EACF42E5A2
:104C5000C4164CE7D40639F4882329F08091310139
:104C60008111F2CFDBCF98EEE92E93E0F92E412CA3
:104C7000B12CA12C88248394912CBE016F5F7F4FAF
:104C80007A8F698F22242394F70140815181662411
:104C90006A94762C20E0822F90E0FC01EE0FFF1F3B
:104CA000E40FF51F608171816115710531F0C61641
:104CB000D70609F43C012F5FEECF312CFFEF6F16C2
:104CC0007F0609F448C0F701448130903101832DFB
:104CD000411180E0F82FF1703F2EF7015580868159
:104CE0009F85992309F4F7C0332009F4F4C000919B
:104CF000D3031091D403511013C0A401062C01C09A
:104D0000440F0A94EAF7842B86838091E5039091FF
:104D1000E6038017910720F41093E6030093E50360
:104D2000C40102C0880F991F2A95E2F70197F70185
:104D300026812817190679F48091930490919404A0
:104D4000009709F44BC00E9425050817190708F0C1
:104D500045C0F70124824328FFEFAF1ABF0A27E0BE
:104D6000E20EF11C38E0A316B10409F08DCF8F8557
:104D7000882309F410C1442009F40DC10E944005A4
:104D8000909394048093930480912004883010F5CC
:104D900091E0980F9093200499E0FE013A96DE018D
:104DA000119601900D929A95E1F74DE0849FC00114
:104DB00011248F5D9B4F29E0FE013196DC010190AB
:104DC0000D922A95E1F72FEF3FEFFC013287218703
:104DD000D486C3866E96E2E10C94293380919104C7
:104DE00050919204982FF0E0E0E0851314C0909366
:104DF0009104EE16FF0609F4AECF90E0FC01EE0F31
:104E0000FF1FE757FB4FB182A0820196837099275D
:104E100080939204A0CF682E712CF301EE0FFF1F38
:104E2000E757FB4F20813181F7E0F29FD001F39FDC
:104E3000B00D1124A851BC4F2D913C9111973E8F7C
:104E40002D8F40E020E030E0E32FF0E0EE0FFF1F79
:104E50006D8D7E8DE60FF71F008111810115110503
:104E6000E1F0F7010190F081E02DFC8FEB8F20E065
:104E700005C00617170709F4432D2F5FE22FF0E056
:104E8000EE0FFF1F6B8D7C8DE60FF71F6081718128
:104E90006115710571F73F5FD7CF4423C9F0F70162
:104EA000231708F0FD012482EE16FF0621F49093EB
:104EB0009104342E50CF981305C0AE17BF0711F4DC
:104EC0009F5F937093012F5F3F4F822F83708DCF31
:104ED000F0E0E0E0F7CF90E0511020C0B40102C054
:104EE000660F771F2A95E2F79B012150310982173F
:104EF000930731F4442309F44CC0C5010E942706EE
:104F0000C401062C01C0880F0A94EAF7982F9095E7
:104F1000F701868189238683352C1DCFAC01062CB1
:104F200002C0559547950A94E2F7BA016170772758
:104F30009C012150310982239323892B31F5672B62
:104F400021F1F70182819381892BE1F0E98DFA8DBE
:104F500027E011922A95E9F70E944005282F8B83BC
:104F60009C8334E03D83F70182819381782F888789
:104F7000998709811A813C8144E05E816F81892F84
:104F80000E945D24F7011582BBCFF42FF1705F2ED4
:104F9000B7CF532CB5CF909191048091920498177C
:104FA00029F00E942025411015CF3BCE0E94C82435
:104FB00010929404109293040E945506F4CF82E05C
:104FC0000E945A0A15CEA6E0B0E0E9EEF7E20C9492
:104FD0001D3390932C0280932B02811520E29207BF
:104FE00030F40E94C3162696E2E00C94393380EF29
:104FF00089838A830E9440058160682F9C838B830C
:1050000049815A817C8181E090E00E94B425EBCFF8
:105010000F931F93CF93DF938C01EB0165E372E055
:105020008C2F0E94380C892BA1F48091DB03909186
:10503000DC030E945D0BDD27C35DDD4F8881F80135
:10504000128218828330F1F048F4813059F08230B6
:1050500081F0DF91CF911F910F9108958430B9F0C5
:105060008530B9F78091350290913602009789F327
:1050700006C08091370290913802009799F30E9400
:10508000E327E7CF8091390290913A02F6CF8091E1
:105090003B0290913C02009791F7209135023091AC
:1050A0003602809137029091380221153105F1F2D4
:1050B000009729F7C901E3CFA6E0B0E0E2E6F8E205
:1050C0000C941D3390932C0280932B02811520E2C7
:1050D000920730F40E944C182696E2E00C94393383
:1050E00080EF89838A830E9440058160682F9C83BA
:1050F0008B8349815A817C8181E091E00E94B425B3
:10510000EBCFCF93DF93EC010E945C288091DB030F
:105110009091DC030E945D0BCE010E94E327DF919A
:10512000CF9108950F931F93CF93DF938C01862F18
:1051300065E372E00E94380C892BB1F4C09135020E
:10514000D0913602209781F0F8018281833051F4AA
:10515000CE010E948128CE010E948128CE010E94AA
:10516000812802C08430D0F7DF91CF911F910F9139
:1051700008950F931F93CF93DF938C01EB0165E3A9
:1051800072E08C2F0E94380C892B09F05CC0FE0164
:10519000FF27D80112968C911297E35DFD4F813065
:1051A000B9F415969C9192FF02C080830AC090FFCB
:1051B000FCCF82E080838091370290913802009783
:1051C000B9F480913502909136020097E1F110C058
:1051D0008230B9F515968C9182FD28C080FD0BC0F8
:1051E00083E080838091390290913A02009701F127
:1051F0000E945C2828C084E0808380913B029091CB
:105200003C020097A9F780913502909136020097F1
:10521000F9F00E948128809137029091380200971E
:1052200039F78091350290913602E2CF85E0808394
:105230008091350290913602009729F00E948128D2
:10524000F0CF86E08083DF91CF911F910F91089579
:105250008091370290913802B8CFA6E0B0E0E3E346
:10526000F9E20C941B330E9440058C018091D70118
:105270009091D8018017910781F019821A820E94BB
:105280004005682F49815A81792F80E090E00E9483
:10529000B4251093D8010093D7012696E4E00C942E
:1052A00037331F920F920FB60F9211242F933F9313
:1052B0004F935F936F937F938F939F93AF93BF931E
:1052C000CF93DF93EF93FF93D091E900DF7080914C
:1052D000EC00C82FC17080FDC0E81092E9008091F9
:1052E000F000877F8093F00078940E94E91110927B
:1052F000E9008091F00088608093F000CD2BCF70A2
:10530000C093E900FF91EF91DF91CF91BF91AF91F1
:105310009F918F917F916F915F914F913F912F91CD
:105320000F900FBE0F901F9018951F920F920FB6FF
:105330000F9211242F933F934F935F936F937F931B
:105340008F939F93AF93BF93EF93FF938091E1006F
:1053500082FF09C08091E20082FF05C08091E100D8
:105360008B7F8093E1008091DA0080FF24C08091E0
:10537000D80080FF20C08091DA008E7F8093DA0011
:105380008091D90080FF9DC080E189BD82E189BD07
:1053900009B400FEFDCF81E08093C5048091B8047C
:1053A000811109C00E94C7030E9468048091E20035
:1053B00084608093E2008091E10080FF17C08091BB
:1053C000E20080FF13C08091E2008E7F8093E200B4
:1053D0008091E20080618093E2008091D800806239
:1053E0008093D80019BC85E08093C5048091E100CA
:1053F00084FF2BC08091E20084FF27C080E189BD3B
:1054000082E189BD89B5982F917080FFFBCF809193
:10541000D8008F7D8093D8008091E1008F7E8093AB
:10542000E1008091E2008F7E8093E2008091E200B3
:1054300081608093E2008091C604882309F447C00C
:1054400084E08093C5048091C5048091E10083FFCE
:1054500027C08091E20083FF23C08091E100877F15
:105460008093E10082E08093C5041092C60480918D
:10547000E1008E7F8093E1008091E2008E7F809337
:10548000E2008091E20080618093E20042E060E00F
:1054900080E00E9436048091F00088608093F000E4
:1054A000FF91EF91BF91AF919F918F917F916F91FC
:1054B0005F914F913F912F910F900FBE0F901F90D2
:1054C000189519BC1092C5041092B80474CF80913D
:1054D000E30087FD93E09093C504B5CF78941F92C5
:1054E0001FB61F9211248F939F93AF93BF93809108
:1054F000B4049091B504A091B604B091B70401969C
:10550000A11DB11D8093B4049093B504A093B6047B
:10551000B093B704BF91AF919F918F911F901FBE21
:105520001F9018951F921FB61F9211248F939F935F
:10553000AF93BF938091B304811113C08091B404E1
:105540009091B504A091B604B091B7044196A11D05
:10555000B11D8093B4049093B504A093B604B093A6
:10556000B704BF91AF919F918F911F901FBE1F9065
:105570001895CDB7DEB7EB970FB6F894DEBF0FBE28
:10558000CDBF85B7806885BF85B7806885BF84B784
:10559000877F84BF0FB6F894A895809160008861DA
:1055A00080936000109260000FBE80E890E00FB61C
:1055B000F89480936100909361000FBE8EE097E0B5
:1055C00090939901809398010E94E9060E946B0EC6
:1055D0000E94DF0D0E94580D0E94C7030E946804BC
:1055E0008091E20084608093E20078948091C50409
:1055F0008823A1F01091E9001F709091EC00892F91
:10560000817090FD80E8182B1092E9008091E800ED
:1056100083FD0E94E9111F701093E90082E084BDB0
:1056200093E095BD9AEF97BD80936E001092FA01BA
:105630001092FB011092FC011092FD010E947E0D60
:10564000811102C00E94731523982B9A6E9A769846
:1056500025E02A95F1F7000083B183FB882780F9C4
:105660006E98769A30EA3A95F1F7809325010E9478
:105670009A0B81110E94AB3180912501811120C0CC
:1056800084E98093210186E68093220187E9809353
:10569000230186EC8093240188E0E5E3F1E0DE015C
:1056A000119601900D928A95E1F7FE013196A9E1DC
:1056B000B1E0CE01099621912D938E179F07D9F75E
:1056C0008091250194E0811190E09093070284E09D
:1056D000891B8093060201E211E0D8018D918D01B2
:1056E0008F3F11F00E941007B1E005321B07A9F7A8
:1056F00009E111E0F80181918F018F3F11F00E94C3
:105700001007F1E001321F07A9F788E0E1E2F2E0BB
:10571000DF01282F1D922A95E9F7EEEFF1E0DF0176
:105720001D928A95E9F790E080E00E948F33863ED3
:105730009E4F21F40E947E0D811167C066EE7EEFC0
:1057400090E080E00E94C33360E082E090E00E943D
:10575000A53360E083E090E00E94A5331092080238
:1057600060E074E184E090E00E94C33360E086E092
:1057700090E00E94A5336FEF87E090E00E94A53390
:1057800040E050E0BA0188E090E00E94B73360E06A
:1057900084E290E00E94A53360E087E190E00E94FF
:1057A000A53360E08CE090E00E94A53360E08DE0DE
:1057B00090E00E94A53319821A821B821C821D82EE
:1057C0001E821F82188648E050E068E170E0CE013A
:1057D00001960E94953340E050E0BA0180E290E0EB
:1057E0000E94B73380E00E941F0C0E94731540E0B6
:1057F00050E0BA018FE090E00E94B73340E050E003
:10580000BA0183E190E00E94B73382E090E00E9409
:10581000873380930A0284E090E00E948F33909354
:105820009B0380939A030E94AE0FEFEFF6E721E00F
:10583000E150F0402040E1F700C000000E94AE0FB0
:1058400083E090E00E9487330E94940A0E949A0BA2
:10585000811102C00E94AE3186E291E09093B004C3
:105860008093AF043E013BE2630E711C8091C5043E
:1058700000E112E1853009F4A1C00E94AE0F6BE097
:10588000C62E62E0D62E71E2E72E72E0F72E80E897
:1058900091E09BAF8AAF23E132E08C01C701F601B2
:1058A0005191DC014D91CD01D8016D918D014623BF
:1058B0002E173F0709F48CC0541791F30E949A0BDE
:1058C000382E40E8A42E41E0B42E51E2852E52E05D
:1058D000952E00E0F40111914F01D5018D915D01EC
:1058E0001823F60121906F01211631F12126512C48
:1058F00044244394822D8421B9F03320A9F05CAA7A
:105900000DAB0E9440059FAB8EABF1E0F8AF91E08C
:10591000812F842109F490E099AF4CA95DA96EA96B
:105920007FA988AD0E94B4255394440C28E05212FC
:10593000E1CFF601319710830F5F083059F60E94CE
:10594000CE0B4AC08091C504843021F11092B3047B
:1059500088E190E0A0E40FB6F894A89580936000E9
:105960000FBEA093600083B7817F846083BF83B73D
:10597000816083BF7894889583B78E7F83BF0FB68D
:10598000F894A895809160008861809360001092DF
:1059900060000FBE8091C404882381F00E94AE0F86
:1059A000E1E2F2E0A0E8B1E081919D91892309F064
:1059B0002BC429E232E02E173F07B1F78091C504CE
:1059C000853009F4BFCF0E94D3110E94BD0B55CF83
:1059D000541374CF0E942D290E949A0B882309F436
:1059E000B9C08091A4049091A504892B09F43EC00C
:1059F0004091990450919A0460919B0470919C0489
:105A00002FB7F8948091B4049091B504A091B60496
:105A1000B091B7042FBF841B950BA60BB70B409119
:105A2000950450919604609197047091980484179E
:105A30009507A607B707D0F08091A4049091A5041C
:105A40000E944C181092A5041092A404109299047C
:105A500010929A0410929B0410929C041092950448
:105A60001092960410929704109298040091AB043F
:105A70001091AC040115110539F180911302909138
:105A800014020E9425056C0189E0D3011D928A95BC
:105A9000E9F7B301C8010E944C0C8C159D05A0F4D8
:105AA0008091AB049091AC04992734E0880F991F42
:105AB0003A95E1F7FC01EC5BFD4F208122FD04C02B
:105AC000815C9D4F0E948D1180913101882301F1ED
:105AD00080919304909194040097D1F00E94250541
