:100000000C94DE080C9416090C9416090C947633A3
:100010000C9416090C9416090C9416090C941609E4
:100020000C9416090C9416090C94B6300C948E316D
:100030000C948E1C0C9416090C9416090C94160939
:100040000C9416090C9416090C9416090C941609B4
:100050000C9416090C9492300C9416090C94160901
:100060000C9416090C9416090C9416090C94160994
:100070000C9416090C9416090C9416090C94160984
:100080000C9416090C9416090C9416090C94160974
:100090000C9416090C9416090C9416090C94160964
:1000A0000C9416090C9416090C9416090501098084
:1000B000A101850319012AB700150126B700950192
:1000C00075108100C0050C0901A101850419012AE0
:1000D000A002150126A002950175108100C00660DE
:1000E000FF0961A1010962150026FF00952075082E
:1000F00081020963150026FF00952075089102C052
:1001000005010906A101050719E029E715002501E8
:10011000950875018102950175088101050719008F
:1001200029FF150026FF00950675088100050819AE
:1001300001290515002501950575019102950175A7
:10014000039101C000AF00AE07087F0807003E5BC7
:100150004F5B3E003E6B4F6B3E001C3E7C3E1C00E6
:10016000183C7E3C18001C577D571C001C5E7F5EAF
:100170001C0000183C180000FFE7C3E7FF00001850
:1001800024180000FFE7DBE7FF0030483A060E00C6
:10019000262979292600407F05050700407F05258F
:1001A0003F005A3CE73C5A007F3E1C1C0800081CDC
:1001B0001C3E7F0014227F2214005F5F005F5F00FF
:1001C00006097F017F00006689956A0060606060B3
:1001D000600094A2FFA2940008047E04080010208E
:1001E0007E20100008082A1C0800081C2A080800A5
:1001F0001E10101010000C1E0C1E0C0030383E3863
:100200003000060E3E0E0600000000000000000058
:100210005F000000000700070000147F147F140037
:10022000242A7F2A120023130864620036495620CC
:100230005000000807030000001C2241000000419C
:10024000221C00002A1C7F1C2A0008083E08080007
:100250000080703000000808080808000000606096
:1002600000002010080402003E5149453E000042B3
:100270007F4000007249494946002141494D330001
:100280001814127F10002745454539003C4A49495A
:1002900031004121110907003649494936004649D4
:1002A00049291E0000001400000000403400000036
:1002B00000081422410014141414140000412214E4
:1002C00008000201590906003E415D594E007C12AA
:1002D00011127C007F49494936003E4141412200CC
:1002E0007F4141413E007F49494941007F09090959
:1002F00001003E41415173007F0808087F00004122
:100300007F4100002040413F01007F08142241004E
:100310007F40404040007F021C027F007F040810A5
:100320007F003E4141413E007F09090906003E41F0
:1003300051215E007F0919294600264949493200AA
:1003400003017F0103003F4040403F001F20402049
:100350001F003F4038403F0063140814630003044B
:10036000780403006159494D4300007F4141410039
:10037000020408102000004141417F0004020102F4
:1003800004004040404040000003070800002054A3
:10039000547840007F2844443800384444442800BE
:1003A000384444287F0038545454180000087E090B
:1003B000020018A4A49C78007F080404780000447C
:1003C0007D4000002040403D00007F102844000098
:1003D00000417F4000007C04780478007C0804041D
:1003E0007800384444443800FC18242418001824A9
:1003F0002418FC007C0804040800485454542400C9
:1004000004043F4424003C4040207C001C20402049
:100410001C003C4030403C004428102844004C90D4
:1004200090907C004464544C440000083641000025
:1004300000007700000000413608000002010204BD
:1004400002003C2623263C00000000000000404043
:1004500040F0F8F8FF38FFF8F83FF8F8FF38FFF8F9
:10046000F8F040404000000000000080C0C0C080A4
:100470000000C0C08000000080C0C000C0C00000FC
:1004800080C0C00000000000C0C0C0C0C000C0C02C
:10049000000000000000000000000000000000005C
:1004A000000000000000000000000000000000004C
:1004B000000000000000000000000000000000003C
:1004C00000000000000000C0F0F8FC3E1E06010025
:1004D00000007F4141417F007F4141417F0000801A
:1004E000C0E07E5B4F5BFEC00000C000DCD7DEDEFC
:1004F000DED7DC00C00000000000000000000000AB
:100500000000000000000000000000000000494959
:1005100049FFFFFFFFE0DFBFBF00BFBFDFE0FFFF1E
:10052000FFFF49494900000000001F3F6060E0BF35
:100530001F007F7F071E381E077F7F007F7F0E1FF3
:100540003B716000000000007F7F0C0C0C007E7E81
:10055000007F7E0303007F7E03037E7E03037F7E96
:10056000000F3E703C063C703E0F00327B49493F15
:100570007E007F7E0303001E3F69696F2600000036
:1005800000000000000000030F1F3F3C7870600077
:1005900000007F4141417F007F4141417F00307B2E
:1005A0007F7830202030787F3B0003000F7F0F0FD3
:1005B0000F7F0F000300000000000000000000009B
:1005C0000000000000000000000000000000010129
:1005D00001070F0F7F0F7F0F0F7E0F0F7F0F7F0F12
:1005E0000F070101010000000000000000000001F1
:1005F00001000000000000000000000000000000FA
:1006000000000000000000000000000000000000EA
:1006100000000000000000000000000000000000DA
:1006200000000000000000000000000000000000CA
:1006300000000000000000000000000000000000BA
:1006400000000000000000000000000000000000AA
:10065000000000000000000000000000000000009A
:10066000000000000000000000000000000000008A
:10067000000000000000000000000000000000007A
:10068000000000000000000000000000000000006A
:10069000000000000000000000000000000000005A
:1006A0000000000000000000000000007E0F00D4E9
:1006B000FFFFFFC7000000780000000000000000FE
:1006C0002A2B2800000000000000000000000000AD
:1006D00000000029000000002C1E342021222434B8
:1006E0002627252E362D3738271E1F20212223248A
:1006F00025263333362E37381F0405060708090A26
:100700000B0C0D0E0F101112131415161718191AC1
:100710001B1C1D2F3130232D350405060708090A3F
:100720000B0C0D0E0F101112131415161718191AA1
:100730001B1C1D2F3130354C09025B00030100A04A
:10074000FA0904000001030101000921110100015F
:100750002244000705810308000109040100020387
:100760000000000921110100012222000705820377
:100770002000010705030320000109040200010312
:100780000000000921110100012232000705840345
:1007900020000112010002000000081D8D9D9D0037
:1007A00001010203011C037600690061006C003A3C
:1007B00000660036003400630032006200330063DC
:1007C00000000016034B00790072006900610020F0
:1007D000007200650076003100000018037300709D
:1007E000006C00690074006B0062002E0063006FF3
:1007F000006D00000004030904000000001700154C
:100800000008001A0014002B00000000000A000974
:1008100000070016000400292139002F00050019E7
:100820000006001B001D00E10021522C002824E3DB
:10083000000100000000000000000000001C001883
:10084000000C00120013002A00000000000B000D35
:10085000000E000F0033003431235230001100101D
:1008600000360037003800E50022522C00E600E791
:100870000065000000000000000000000001000111
:10088000000100010001000100000000000100E182
:1008900000E000E200E30001004700010001000168
:1008A0000001000100010001000100010001000140
:1008B000000100000000000000000000004B004AA2
:1008C0000052004D00A9004C00000000004E0050F6
:1008D0000051004F00AA004900010001004800AC8F
:1008E00000AE00AB00A800460001000100010001BD
:1008F00000010000000000000000000000220021B4
:100900000020001F001E0035000000000022022110
:100910000220021F021E02350201002F022F002DAD
:1009200000330033023100310201000100010001F7
:10093000000100000000000000000000002300246F
:10094000002500260027002E0000000000230224BE
:10095000022502260227022E020100300230002D5D
:1009600002360037003800380201000100010001A2
:100970000001000000000000000000000001004530
:10098000004400430042000100000000000100415B
:100990000040003F003E0001000100010001003D59
:1009A000003C003B003A0001000100010001000191
:1009B0000001000000000000000000000001000134
:1009C000000100010001000100000000000100E53D
:1009D00000E400E200E70001000100010001000165
:1009E00000010001000100010001000100010001FF
:1009F000000100000000000000A900AA004E004B0A
:100A000000A900AA004E004B00A900AA004E004B0E
:100A100000A900AA004E004B0000000000000000EA
:100A20000000000000008080C0E0F07078383C1CBE
:100A30001E0E0E0E0707070707070707070707071A
:100A4000070707070E0E0E1E1C3C387870F0E0C03A
:100A50008080000000000000000000000000000096
:100A60000000000000000000000000000000000086
:100A70000000000000000000000000000000000076
:100A80000000000000000000000000000000000066
:100A90000000000000000000000000000000000056
:100AA000C0E0F07C3E1F0F07030180C0E0F0783803
:100AB0003C1C1E0E0E070787E77F1FFFFF1F7FE707
:100AC0008707070E0E1E1C3C3878F0E0C08001033B
:100AD000070F1F3E7CF0E0C0000000000000000097
:100AE0000000000000000000000000000000000006
:100AF00000000000000000000000000000000000F6
:100B000000000000000000000000000000000000E5
:100B100000000000000000000000000000F0FCFFEA
:100B20001F07010000C0F0FCFEFFF7F3B1B030304A
:100B3000303030303078FE87010000FFFF000001C8
:100B400087FE7830303030303030B0B1F3F7FFFE10
:100B5000FCF0C0000001071FFFFCF00000000000D7
:100B60000000000000000000000000000000000085
:100B70000000000000000000000000000000000075
:100B80000000000000000000000000000000000065
:100B9000000000000000000000000000FFFFFF0058
:100BA00000000000FEFFFF0101071E78E181838342
:100BB00086868C8C9898B1B7FEF8E0FFFFE0F8FECF
:100BC000B7B198988C8C8686838381E1781E070163
:100BD00001FFFFFE0000000000FFFFFF000000001B
:100BE000FFFF0000C0C030300000F0F00000000047
:100BF0000000F0F00000F0F0C0C030303030C0C075
:100C000000003030F3F300000000000030303030DE
:100C10003030C0C00000000000000000FFFFFF00F7
:100C2000000000007FFFFF8080E0781E8781C1C147
:100C30006161313119198DED7F1F07FFFF071F7F9C
:100C4000ED8D191931316161C1C181871E78E08054
:100C500080FFFF7F0000000000FFFFFF000000009A
:100C60003F3F03030C0C30300000000033333333BC
:100C700033330F0F00003F3F000000000000000072
:100C8000000030303F3F303000000C0C3333333342
:100C900033333F3F0000000000000000000F3FFF23
:100CA000F8E0800000030F3F7FFFEFCF8D0D0C0CAD
:100CB0000C0C0C0C0C1E7FE1800000FFFF0000807C
:100CC000E17F1E0C0C0C0C0C0C0C0D8DCFEFFF7F7C
:100CD0003F0F03000080E0F8FF3F0F00000000001E
:100CE0000000000000000000000000000000000004
:100CF00000000000000000000000000000000000F4
:100D000000000000000000000000000000000000E3
:100D100000000000000000000000000000000000D3
:100D200003070F3E7CF8F0E0C0800103070F1E1C94
:100D30003C38787070E0E0E1E7FEF8FFFFF8FEE78E
:100D4000E1E0E0707078383C1C1E0F07030180C0A2
:100D5000E0F0F87C3E0F07030000000000000000F8
:100D60000000000000000000000000000000000083
:100D70000000000000000000000000000000000073
:100D80000000000000000000000000000000000063
:100D90000000000000000000000000000000000053
:100DA000000000000000010103070F0E1E1C3C386C
:100DB00078707070E0E0E0E0E0E0E0E0E0E0E0E0EB
:100DC000E0E0E0E070707078383C1C1E0E0F070306
:100DD0000101000000000000000000000000000011
:100DE0000000000000000000000000000000000003
:100DF00000000000000000000000000000000000F3
:100E000000000000000000000000000000000000E2
:100E100000000000000000000020202020202020F2
:100E2000005343524C434B20002020202020202000
:100E3000004341504C434B20002020202020202004
:100E4000004E554D4C434B2000556E646566696EEF
:100E500065640A0041646A7573740A0046756E63BE
:100E600074696F6E0A0053796D0A004E61760A004C
:100E7000436F6C656D616B2D44480A0044766F7258
:100E8000616B0A005157455254590A004C6179650B
:100E9000723A2000726576310A0A004B79726961F4
:100EA0002000808182838485868788898A8B8C8DC7
:100EB0008E8F9091929394A0A1A2A3A4A5A6A7A877
:100EC000A9AAABACADAEAFB0B1B2B3B4C0C1C2C3EE
:100ED000C4C5C6C7C8C9CACBCCCDCECFD0D1D2D35A
:100EE000D40000010101010101010101020202021D
:100EF00002020202020303030303030303040404C4
:100F0000040404040505050505060606060607078C
:100F100007070708080808090909090A0A0A0B0B44
:100F20000B0C0C0C0D0D0D0E0E0E0F0F0F101011E3
:100F30001111121213131414151516161717181869
:100F400019191A1A1B1B1C1D1D1E1E1F20202122D1
:100F500022232424252626272829292A2B2C2D2D17
:100F60002E2F30313232333435363738393A3B3C34
:100F70003D3E3F404142434445464748494A4C4D27
:100F80004E4F50515354555658595A5B5D5E5F61F0
:100F90006264656668696B6C6D6F70727375777883
:100FA0007A7B7D7E8082838587888A8C8E8F9193E1
:100FB0009596989A9C9EA0A2A3A5A7A9ABADAFB108
:100FC000B3B5B7BABCBEC0C2C4C6C9CBCDCFD1D4ED
:100FD000D6D8DBDDDFE2E4E7E9EBEEF0F3F5F8FA93
:100FE000FDFF00DA1281FFD9F1DB20A4A62EAF00AD
:100FF000A0C0D30000A1C8D30000AED580A83F4058
:101000008D142000FD377A585A000004E6D6B44605
:101010000200210116000000742FE5A3E0059201F3
:10102000775D003D888986D3DC0AE842C324925864
:1010300042597FBD199EB8FF9AB15C1A1E3308450C
:10104000639C1174376FBFEF729718248DD00CE832
:101050000D1B11E825F6C9A1BC22EC4642A682422E
:10106000337E693877149149861D22422B02C8C30A
:1010700016F9837491AE7E82C9EF778A0AFA330E2D
:101080005AA97CE1ADFE341C00FE453EBD04CF06EE
:101090002A363980F90D8D8FA87E17028B64C88798
:1010A000DC47E5BDC27F5076B816D100CE95B0DEE4
:1010B00059B355E9AE00EE5FF5748F1B624E40AC3C
:1010C000F570569EC9420AF847F9638E30050898B4
:1010D000F279EFFB645C0E607DFDB89E51B62D5A2F
:1010E000C97BF11D5FB37AFCD430C3F33E622CECB4
:1010F000D60BD3AE11E4CF3B6864C06CCAB85EAA0D
:101100006A4AEECD137D71A25AC94FB1F33FD47B29
:10111000C99E532E979135CED053484DE5AA2C2623
:10112000F256793C184B4449F81C71070CED003F0E
:10113000A5A7FFB8EADD230515C4B4BF08BF79EA47
:1011400081EA447A3BD0A5226CFA8F4C54799A3AC2
:101150002AE749F9B3E50430E09991465C64B71495
:10116000BAA1A1E25A1FD4C7D9044ADC3F09EDB89D
:10117000C3DFBC08E87ECF024E696BB0C00A689C32
:101180006AE1F8478EDFE639726BECDB14AEF6E00D
:10119000BF612815D27FD8E1CD2D000063D9691C2D
:1011A00012185DB300019303930B00004B6BA7BCB7
:1011B000B1C467FB020000000004595A11241FBE8D
:1011C000CFEFDAE0DEBFCDBF04B603FE18C08091DA
:1011D000070890910808A0910908B0910A08873083
:1011E000904BA740B04B59F4109207081092080892
:1011F0001092090810920A08E0E0F8E3099511E05E
:10120000A0E0B1E0ECE3FCE602C005900D92A43D45
:10121000B107D9F728E0A4EDB1E001C01D92A730D5
:10122000B207E1F70E94ED280C94D5350C9400002C
:101230009C01FB019A9581159F4120F5D901AA27B0
:10124000B270832F8170B90166277470A901442799
:10125000587034FF0DC08295807FAB2B09F08062FF
:10126000672B09F08064452B09F080680995089583
:10127000AB2B09F08260672B09F08460452BB1F33A
:101280008860F4CF80E0F2CF982F82958F7088230A
:1012900011F0982F84E0292F26952695222311F00E
:1012A0008E5F922F969591118F5F08958093C3075B
:1012B00008958093C407089521E030E001C0220F13
:1012C0008A95EAF78091C407822B0E9459090895F4
:1012D00021E030E0A90102C0440F551F8A95E2F7D2
:1012E000CA0180959091C40789230E9459090895E5
:1012F0009B01677091E001C0990F6A95EAF763E07E
:10130000369527956A95E1F7B901660F771F260F85
:10131000371FFA01E20FF31F40E050E0682F70E042
:101320008191DF0111979B01042E02C0369527950C
:101330000A94E2F7217021952827292328272C9346
:101340004F5F5F4F4330510559F708959C01A82F17
:10135000A77083E0369527958A95E1F7C901880F34
:10136000991F820F931FFB01E80FF91F40E050E027
:1013700080E0219130E00A2E02C0369527950A942C
:10138000E2F721703327042E01C0220F0A94EAF7F6
:10139000822B4F5F5F4F4330510559F70895282F37
:1013A000862F903F71F0983068F4283050F438E080
:1013B000939FB0011124620F711D49E157E00E9413
:1013C000780908959C5F9230E0F7622F70E046E163
:1013D00057E0F5CF282F903FB1F0983068F488306F
:1013E00090F438E0939FC001112469E177E0820F07
:1013F000911D0E94A60908959C5F923020F466E139
:1014000077E090E0F6CF80E008959091C40721E066
:1014100030E0F90101C0EE0F8A95EAF7D90102C068
:10142000AA0FBB1F6A95E2F7EA2B01C0220F4A956B
:10143000EAF7892F8E23E81305C0892F822B0E949B
:10144000590908952095822F8923F9CF8091C707E4
:101450009091C607981301C008958F5F8770FACFE7
:10146000803E9105D1F1C8F48133910509F47FC024
:1014700048F48932910509F46FC08A32910509F464
:101480007DC0089589339105E1F082389105C9F056
:101490008533910509F45BC00895843E9105D1F12F
:1014A00048F4823E910531F1833E910541F181EE90
:1014B00090E00895863E9105C1F1873E9105E1F1E6
:1014C0000895209104072370211165C0209105071C
:1014D00023FF14C089E290E008952091040720FDC5
:1014E00043C03091050730FF09C024FF4EC080E0A3
:1014F00090E008952091040722FDF7CF08952091F0
:10150000040722FD45C03091050730FD44C024FF8B
:10151000F5CFEDCF2091050721FFF0CF8091040793
:1015200084FDE5CF87EE90E008952091040723FF26
:10153000E5CF24FDDCCFF6CF2091040723FD2EC09C
:101540003091050731FFE3CF84EE90E008952091BC
:10155000040725FFD3CFBECF2091040725FD21C06E
:101560002091050723FFCACF89E390E008952091D9
:10157000040726FFC3CF8AE290E008952091040774
:1015800026FFBCCF81E390E0089583EE90E00895BC
:1015900082EE90E0089580EE90E0089586EE90E06F
:1015A000089585E390E0AACF9091040792FF10C0C0
:1015B00041E0282F2471243009F040E031E0282F49
:1015C0002871283009F030E0431711F02CE0822711
:1015D00093FF10C041E0282F2471243109F040E02E
:1015E00031E0282F2871283109F030E0431711F03D
:1015F0002CE082273091050730FF10C051E0282FE2
:101600002171213009F050E041E0282F2871283065
:1016100009F040E0541711F029E0822731FF10C093
:1016200041E0282F2171213109F040E031E0282FDD
:101630002871283109F030E0431711F029E08227A2
:1016400094FD877E08951F93CF93DF930E94300A05
:10165000EC01811520E5920708F048C0811540E4AF
:10166000940708F0C2C0803E9105E0F0811550E279
:10167000950798F18D2F8F710E94D40A182FCE01F3
:1016800099270E94300A212F30E0322F222722276B
:101690003F71282B392BE901D062CE01DF91CF9128
:1016A0001F9108958D3C910508F08BC0883A9105F3
:1016B00060F4853A910508F076C08130910569F3B0
:1016C0000497813A910548F305C0885A91094B97D0
:1016D00008F46CC0C0E0D0E0E0CF8F3F910511F07E
:1016E00008F071C0805E91090797EDCFC03682E5A2
:1016F000D80738F5C03422E5D20708F093C0C032CD
:1017000042E5D40738F0CF71D0E0DC2FCC27C16F91
:10171000D06AC3CF8C2FC11552E5D50708F06EC033
:101720008F710E94D40A282F30E084FD9CC085E090
:10173000D695C7958A95E1F7CF703C2BE901D06922
:10174000ACCFC03C82E5D80708F5C03A22E5D20705
:1017500008F07EC0CE0180569245809708F0BACF3F
:101760008C2F86958695877050E2859FC001112445
:10177000C37021E030E0A90102C0440F551FCA9593
:10178000E2F7EA01C82BD92BDA6887CFCE01805C5B
:101790009245809708F09ECFDC2FCC27CC27DF71B5
:1017A000C06FD06A7ACFA497D06477CFC85AD0E000
:1017B000CC0FDD1FC256DE4F0990D881C02DD464F6
:1017C0006CCFD0656ACF8D2F0E94D40A182FCE011E
:1017D00099270E94300A212F30E0322F2227E90179
:1017E000CC27DF71C82BD92B58CF99270E94300AFC
:1017F000CC27DF70C82BD92BD06A4FCF8695869522
:1018000040E2849FC0011124C37021E030E0A901AF
:1018100002C0440F551FCA95E2F7EA01C82BD92B25
:10182000DD683BCF8C2F86958695877050E2859F2B
:10183000C0011124C37021E030E0A90102C0440FAF
:10184000551FCA95E2F7EA01C82BD92BDC6825CFD2
:101850008C2F8F710E94D40AC82FD0E0DC2FCC27A8
:10186000CC27DF711ACF94E0220F331F9A95E1F74E
:101870005ECF80E00895F894E82FE295EF70F0E0F5
:1018800041A18F7021E030E0B90102C0660F771FDF
:101890008A95E2F7CB01962F9095942391A392A17C
:1018A000892B82A3789408958091BA07843038F404
:1018B0008091BA07837084608093BA070895883056
:1018C000B8F70895FA01882311F009950895FB01EE
:1018D000FCCF81152CE7920741F42091C30630918B
:1018E000C406232B11F480E090E00895EFE3F7E0C5
:1018F00080E090E068EB73E24FED53E224E534E2E0
:1019000076836583508747833287218796878587CB
:1019100001963F968830910599F70895FC01680F6C
:10192000791F8FEF91E3E617F70709F408952191E6
:10193000822728E030E087FF08C0880F89272150E0
:10194000310921153105B9F7EECF880FF8CFFA012B
:10195000309709F0099508958091FE06882359F083
:10196000E0910C07F0910D07309729F00190F0817C
:10197000E02D0995089580E00895A3E0B0E0E3EC40
:10198000FCE00C94B5349C01809106029091070212
:1019900082179307A1F03093070220930602E0918B
:1019A0000C07F0910D07309751F083E089833B835A
:1019B0002A830084F185E02DCE01019609952396B6
:1019C000E2E00C94D134A3E0B0E0E9EEFCE00C944A
:1019D000B5349C018091040290910502821793070F
:1019E000A1F03093050220930402E0910C07F091DE
:1019F0000D07309751F084E089833B832A8300846C
:101A0000F185E02DCE01019609952396E2E00C9434
:101A1000D134A4E0B0E0EFE0FDE00C94B5348FB732
:101A2000F8942091E3063091E4064091E506509148
:101A3000E60629833A834B835C838FBF69817A8171
:101A40008B819C812496E2E00C94D134A4E0B0E038
:101A5000ECE2FDE00C94B5348091FE06882371F031
:101A60000E94090D69837A838B839C8369817A81C3
:101A70008B819C812496E2E00C94D1340E94090D64
:101A800069837A838B839C838091000790910107FF
:101A9000A0910207B091030729813A814B815C81B3
:101AA000280F391F4A1F5B1F29833A834B835C83AE
:101AB000DDCF0E94260D08958091030208950895B8
:101AC0000895FC019B018091F9019091FA0186171C
:101AD000970740F0672B29F48091E8008E77809378
:101AE000E800C90140E0009741F4411106C080912F
:101AF000E80082FF2FC080E008952091C5062223D0
:101B0000A9F12530A9F12091E80023FD2DC02091F5
:101B1000E80022FDECCF2091E80020FFE4CF3091D7
:101B2000F3002091F200009719F02830310558F0A9
:101B300041E02830310509F040E02091E8002E779F
:101B40002093E800D0CF41914093F10001972F5F9F
:101B50003F4FE9CF8091C506882341F0853041F0A1
:101B60008091E80083FFC3CF81E0089582E008956B
:101B700083E008958091F30187FF13C08091E8000E
:101B800082FF06C08091E8008B778093E80004C054
:101B90008091C5068111F2CF08958091C5068823F2
:101BA000D9F38091E80080FFF8CF8091E8008E772C
:101BB000ECCF2091E4003091E50095E6A9018091F9
:101BC000EC008170882331F08091E80080FF06C02E
:101BD00080E008952091E80022FD1BC08091C50699
:101BE000882391F0853091F08091EB0085FD10C045
:101BF0002091E4003091E5004217530701F3915022
:101C00009111DCCF84E0089582E0089583E0089587
:101C100081E00895E8EDF0E080818E7F808310926E
:101C2000E2001092DA001092E100A0EEB0E08C9198
:101C300081608C9380818F77808319BCA7EDB0E0A1
:101C40008C918E7F8C9380818F7E80831092F201A5
:101C50000895982FE42FE2709093E900891308C04B
:101C6000762F242F50E0E11111C091E0980FF4CFAE
:101C70007091EC002091ED005091F00021FD06C024
:101C80009F5F973049F78093E90008953091EB000A
:101C90003E7F3093EB003091ED003D7F3093ED00BF
:101CA0003091EB0031603093EB007093EC002093A7
:101CB000ED005093F0002091EE0027FDE1CF089554
:101CC000A0E0B0E0E6E6FEE00C94AF34C8EDD0E072
:101CD00088818F7E8883E7EDF0E08081816080835A
:101CE00084E082BF81E08093F20188818E7F8883C7
:101CF00002EE10E0F80110821092DA0081EEC82E98
:101D0000D12CF601108288818F7788838881806842
:101D1000888388818F7D888319BC1092C5061092B4
:101D2000F1011092A6061092F00190EEE92EF12C2E
:101D3000F70180818B7F808388818160888342E086
:101D400060E080E00E94290EF60180818E7F808312
:101D5000F801808181608083808188608083F701C1
:101D600080818E7F8083888180618883CDB7DEB754
:101D7000E8E00C94CB34E091C7079091C60727E0C8
:101D8000E91302C080E00895AE2FB0E02E9FF0016D
:101D90001124E853F84F3181361306C030813813CF
:101DA00003C03581341304C0FD013196E770E8CFDC
:101DB00081E00895409109018091BA0780FF24C015
:101DC0002091080130E0C901880F991F820F931FED
:101DD0008E5A9D4F539A6BB1677F7BB17860EFB796
:101DE000F89450E09A01220F331F240F351F280F5B
:101DF000391F28173907E9F4EFBF8FE594E0019701
:101E0000F1F700C00000089580910A0190910B0144
:101E1000282F30E0F901EE0FFF1FE20FF31FEE5AFB
:101E2000FD4F891768F61182108212828F5F3396F8
:101E3000F8CFDC014D91CD0158E07BB9000000C026
:101E400047FF6BB9440F000000C000C000C06BB971
:101E500000C05A9591F7CDCF81E08093E00080E2F9
:101E60008093D8001092C9008FE19EE40197F1F7AA
:101E700000C0000087E090EBDC018093070890939E
:101E80000808A0930908B0930A0888E19CE00FB6FF
:101E9000F894A895809360000FBE90936000FFCFE8
:101EA0000F931F93CF93DF93EB018A019091C506A7
:101EB000943079F58093E9008FEF9091E80095FDDB
:101EC00007C095ED9A95F1F7000081508111F5CF8B
:101ED0008091E80085FF1DC00E94D90D811114C0BA
:101EE0008091E80085FD06C08091E8008E778093A0
:101EF000E800F2CF88818093F100015011090115AB
:101F0000110511F02196ECCF8091E8008E77809337
:101F1000E800DF91CF911F910F910895CF93DF9348
:101F2000D82FC92F48E050E0682F792F81E00E9418
:101F3000500F88E0ED2FFC2FABEFB1E001900D9238
:101F40008A95E1F7DF91CF910895BC0143E050E01D
:101F500084E00E94500F0895A0E0B0E0E2EBFFE0C3
:101F60000C94AD34F82EE92EB62EA72E8A0180915E
:101F7000EE01CC24C394D12C8A3018F48AE0C82E08
:101F8000D12CC1E0D0E06B2D7A2D8F2D9E2DF80144
:101F90000995811116C02196CC16DD0694F0CC9FD0
:101FA000C001CD9F900D900D112420E030E045E35D
:101FB0004A95F1F700002F5F3F4F28173907B9F70F
:101FC000E2CFCDB7DEB7EAE00C94C9340F931F938C
:101FD000CF93DF93843038F5962F942B983018F5F3
:101FE00020E1629FE001112450E0440F551FC40F0F
:101FF000D51F30E8839FC0011124C80FD91FCE011F
:1020000089960E947535082F10E0102F0027CE0109
:102010008A960E9475359801282BC901DF91CF91CE
:102020001F910F91089580E090E0F8CF0F931F93D8
:10203000CF93DF93843078F5623068F528E0829F93
:102040008001112434E0639FB0011124060F171F93
:10205000075D1D4FC8014423A1F00E947535C82FAC
:10206000D0E0DC2FCC2781E090E0800F911F0E9410
:1020700075359E01282BC901DF91CF911F910F91DA
:10208000089502960E947535C82FD0E0DC2FCC272A
:1020900083E090E0EACF80E090E0EECF2091080767
:1020A00030910907232BD9F4703F39F4603FB9F41C
:1020B00080910607909107070895783048F46830BA
:1020C00070F4843060F4462F672F0E94E60F089565
:1020D0007D3F41F4623018F441E0843050F080E0FC
:1020E00090E008957C3FD9F76230C8F78430B8F7A4
:1020F00040E00E9416100895A0E0B0E0E2E8F0E1B0
:102100000C94B0347C010091C4078091C307082B64
:10211000C3E0D0E010E0C8010C2E02C09595879571
:102120000A94E2F780FD09C02197A8F7D12C8D2DE4
:10213000CDB7DEB7E7E00C94CC34DC2EB7018C2FA2
:102140000E944E100E94230B019771F3F0CF0F9362
:102150001F93CF93FC01858100811181882391F029
:10216000662381F0C8010E947C10C82F682FC80127
:102170000E94CF09B8018C2F0E944E10CF911F9161
:102180000F910895C8010E94EA09C82FF3CFCF9399
:10219000DF93D82FC92F0E947C106D2F7C2F0E94B7
:1021A0004E100E94230BDF91CF910895FC01848192
:1021B0008823A1F0808191810E94C710282F9295D9
:1021C0009F70963091F060F4925F9F70923030F47F
:1021D00081E0203F79F030F4283E30F080E004C008
:1021E0009A5FF3CF243FD1F7089581E0283E18F09D
:1021F000213FF9CF0895089585E290E00E9475355A
:10220000803289F486E290E00E947535803859F476
:1022100087E290E00E94753591E0823D09F090E000
:10222000892F8170089580E0FCCF8091C207909142
:10223000C507892B8093D60148E050E06EE077E037
:1022400086ED91E00E944835892BA9F088E0E6ED03
:10225000F1E0AEE0B7E001900D928A95E1F7E091F0
:102260000C07F0910D07309731F00280F381E02DDB
:1022700086ED91E0099508951092C207E8EDF1E02E
:1022800086E0DF011D928A95E9F780E090E00E94E8
:10229000BD0C80E090E00E94E30C1092C5070E9404
:1022A000151108950E943C112FEF84E39CE021500A
:1022B00080409040E1F700C0000088E19CE00FB64C
:1022C000F894A895809360000FBE90936000FFCFB4
:1022D000AAE2B0E0EEE6F1E10C94B43483EF91E0D1
:1022E000FC0101962091F100208321E08B3F9207B1
:1022F000B9F78091F401893009F456C0C8F48230EE
:1023000009F4B3C0833009F482C0813071F1809147
:10231000E80083FFE7C08091F3019091F4019A30C7
:1023200008F0E0C0E92FF0E0E952FA4C0C94FC34DC
:102330008A3009F489C08B3051F78091F3018132E2
:1023400031F78091F7019091F801892B01F7809185
:10235000E800877F8093E8000E94BA0D8091F50124
:10236000809300010E943C11D2CF8091F301813A09
:1023700071F68091E800877F8093E8008091F701F3
:102380009091F801892B61F060E080E090E070E0CE
:102390000E94610D8091E8008B778093E800B7CFB1
:1023A00068E08BEF91E0F3CF8091F301813209F087
:1023B000AECF8091F7019091F8018D7F892B09F0C4
:1023C000A6CF8091E800877F8093E8008091E800A5
:1023D00082FF18C09091F3008091F200029731F4CF
:1023E0008091F100813011F0863021F48091F1006C
:1023F000809303028091E8008B778093E8000E942D
:10240000BA0D85CF8091C5068111E0CF80CF809134
:10241000F301813A09F07BCF8091F7019091F801A7
:10242000892B09F074CF8091E800877F8093E800C2
:102430008091E80080FFFCCF809100018093F10043
:102440008091E8008E77D9CF8091F301813209F035
:102450005ECF8091E800877F8093E8000E94BA0DEC
:102460008091F6018093EF0152CF8091F301813A80
:1024700009F04DCF8091E800877F8093E80080913C
:10248000E80080FFFCCF8091EF01D8CF803889F041
:10249000823841F58091F7018F70873018F580936D
:1024A000E9008091EB0085FB882780F91092E90014
:1024B00006C08091F0019091A606911182609091E2
:1024C000E800977F9093E8008093F1001092F1006C
:1024D0008091E8008E7723C0811116C08091F501AC
:1024E000813011F18091E80083FF0AC08091E800FB
:1024F000877F8093E8008091EB0080628093EB00FF
:10250000AA96E3E00C94D034823061F78091F50113
:10251000882389F01092E9008091E800877F8093FA
:10252000E8000E94BA0DDECF81E0933009F080E030
:102530008093A606EFCF8091F7018F702FEF280FC1
:10254000263080F68093E9002091EB0020FFE2CF57
:10255000933031F48091EB0080628093EB00DACF0E
:102560009091EB0090619093EB0021E030E0A901A5
:1025700002C0440F551F8A95E2F74093EA0010927B
:10258000EA008091EB008860E8CF8111ABCF109119
:10259000F5011F778091E3008078812B8093E30021
:1025A0008091E800877F8093E8000E94BA0D8091B7
:1025B000E80080FFFCCF8091E30080688093E30017
:1025C00083E0111101C082E08093C5068BCF805853
:1025D000823008F087CF4091F5015091F6014C3DD3
:1025E00083E0580799F583E08A838AE289834FB7AD
:1025F000F894DE01139620E03EE051E2E32FF0E094
:1026000050935700849120FF03C082958F703F5FE5
:102610008F708A30C8F0895C90E08D939D932F5F16
:10262000243161F74FBF8091E800877F8093E800F5
:102630006AE270E0CE0101960E94610D8091E8008F
:102640008B778093E8004ECF805DE6CF8091F701D5
:102650009091F801252F33272330310509F44AC022
:1026600078F52130310509F483C08BE590E0E8E38B
:10267000F7E02230310509F035CF2091E800277FBF
:102680002093E8002091F9013091FA018217930715
:1026900008F49C0140E02115310509F06EC041119C
:1026A0006CC08091E80082FDC9CF8091C506882367
:1026B00029F2853019F28091E80083FFF2CFBECF76
:1026C0002132310509F445C02232310509F00ACF23
:1026D0008330910508F006CFFC01EE0FFF1FEE5985
:1026E000FE4F0190F081E02D815A9E4FDC018C91CC
:1026F00090E010C0CA019927423019F1833091054A
:1027000068F4892BB1F4E5EFF7E0E4918E2F90E0C7
:10271000E5EFF7E0009709F4E5CEAFCF039709F0B6
:10272000E1CEE5EAF7E0E4918E2F90E0E5EAF7E00C
:10273000F1CFEBEDF7E0E4918E2F90E0EBEDF7E0D9
:10274000E9CFE3ECF7E0E4918E2F90E0E3ECF7E0E3
:10275000E1CF8330910508F0C5CEFC01EE0FFF1FDD
:10276000E859FE4F0190F081E02D89E090E085CF9F
:1027700082E190E0E3E9F7E080CF8091C50688230D
:1027800009F45CCF853009F459CF8091E80083FDCE
:1027900055CF8091E80082FD84CF8091E80080FFD2
:1027A0007ACF9091F3008091F2002115310519F054
:1027B0008830910550F041E0089709F040E08091A1
:1027C000E8008E778093E80066CF44914093F10053
:1027D0003196215031090196E8CF803809F082CE38
:1027E0008091E800877F8093E8008091F1018093D9
:1027F000F1006ECE811176CE1091F501123008F005
:1028000071CE8091E800877F8093E8001093F101FA
:102810000E94BA0D1123D1F084E08093C50642E0F6
:1028200061EC81E00E94290E42E261EC84E00E94AA
:10283000290E42E261EC82E00E94290E42E260EC45
:1028400083E00E94290E8091C5064CCE8091E30062
:1028500087FDE2CF81E0E1CF0F931F93CF93C82F85
:10286000882339F18CEF8C0F813AB0F508ED11E037
:10287000F8018191C81709F121E0EE3DF207C9F78F
:10288000EFEF80E0D8019D918D01C91781F0EF3FF6
:1028900019F4911101C0E82F8F5F863099F7EF3F4F
:1028A00031F00E2E000CFF0BEA52FE4FC2830E9445
:1028B0001511CF911F910F910895E8EDF1E08191ED
:1028C000C81303C0DF0111971C9231E0EE3DF307FE
:1028D000B1F70E941511D4CF80E28C0F883068F4D4
:1028E000C77081E090E001C0880FCA95EAF7C091F7
:1028F000C207C82BC093C207DACF8BE58C0F833099
:1029000038F42C2F2452330BC9010E94BD0CD1CFB7
:10291000C85ACB3170F6EC2FF0E0EE0FFF1FE256F5
:10292000FE4F808191810E94E30CC3CF8823C1F1C7
:102930009CEF980F913A78F4E8EDF1E091918913CA
:1029400003C0DF0111971C9241E0EE3DF407B1F79F
:102950000E941511089590E2980F983088F48770BE
:1029600021E030E0A90102C0440F551F8A95E2F72B
:10297000CA0180959091C20789238093C207E8CF4E
:102980009BE5980F933028F480E090E00E94BD0C06
:102990000895885A8B3120F480E090E00E94E30C87
:1029A00008951F93CF93DF93182FEB010E942C14EF
:1029B000209739F4812F0E949614DF91CF911F91B7
:1029C00008958FE99FE00197F1F700C0000021977B
:1029D000EFCFA0E0B0E0EFEEF4E10C94AE34EC0108
:1029E0008881882309F4BBC0813009F042C09981F5
:1029F0008A81913051F4229660E070E0893311F4BD
:102A000060E570E00E94D11405C0923029F422964E
:102A10000E942C142196E4CF933021F422960E9438
:102A20009614F8CF943011F02196F4CF229620E03E
:102A300030E06AE0AE014F5F5F4F8053990B8A3000
:102A4000910560F02115310529F38FE99FE0019789
:102A5000F1F700C0000021503109F4CF629FF0016E
:102A6000639FF00D11249C012E0F3F1F8981EA0105
:102A7000E1CFE82FF0E0E854F94FB490282F2695E5
:102A80002695269530E0F901E855F94FE4908770D6
:102A9000F12C082E02C0F594E7940A94E2F791E035
:102AA000E922FF24F901E856F94FC490D12C082EF1
:102AB00002C0D594C7940A94E2F791E0C922DD24BC
:102AC000F901E857F94F049110E002C015950795F8
:102AD0008A95E2F701701127E114F10499F4C11409
:102AE000D10449F589E3B81611F160E070E08B2D4F
:102AF0000E94D1140115110509F48CCF60E070E03B
:102B00008CE280CF81EE0E942C14C114D10499F480
:102B100099E360E070E08B2DB91203C060E570E0CE
:102B200089E30E94D11481EE0E949614E3CF60E500
:102B300070E089E3DDCF86EE0E942C1489E360E526
:102B400070E0B81619F060E070E08B2D0E94D1148F
:102B500086EE0E949614E114F10429F7CBCFCDB78D
:102B6000DEB7E9E00C94CA34882339F09091C207AB
:102B7000892B8093C2070E9415110895882341F084
:102B800080959091C20789238093C2070E941511F6
:102B90000895882339F09091C507892B8093C50744
:102BA0000E9415110895882341F080959091C507E2
:102BB00089238093C5070E9415110895CF93DF9351
:102BC000EC0149855A856D857E850E94A70C9B8105
:102BD00090958091C50789238093C5070E941511A0
:102BE00085E0FE0111928A95E9F7DF91CF91089572
:102BF000CF93DF93EC018C8181FD11C082608C83C7
:102C00008091C5079B81892B8093C5070E94151170
:102C10004F8158856D857E85CE010E94A70C10924C
:102C20003C0710923B078C8180FD03C0CE010E94BF
:102C3000DE15DF91CF910895A0E0B0E0E2E2F6E189
:102C40000C94AF348901D42FC52F6B017C010E94F5
:102C5000540CA8016D2F7C2F88E090E00E94AB35CA
:102C600098014D2F5C2FB601C70100E20E94243568
:102C7000622F84E290E00E949935CDB7DEB7E8E09C
:102C80000C94CB34EAEBF7E085E0808311828FEF80
:102C9000828383831482A7EBB7E012968C911297FC
:102CA000836012968C93758125E030E04FEF5FEFE3
:102CB00060E0868197810E941C1608958091BE076E
:102CC000833018F48F5F8093BE072091BA0730914C
:102CD000BB074091BC075091BD076091BE07709142
:102CE000BF078091C0079091C1070E941C160895EC
:102CF0008091BE07882319F081508093BE072091F0
:102D0000BA073091BB074091BC075091BD07609155
:102D1000BE077091BF078091C0079091C1070E94C4
:102D20001C160895A0E0B0E0E8E9F6E10C94AA349E
:102D3000982EC62FD42F722EB090BA07B0FE51C075
:102D40008091BB07891108C08091BC07861304C01D
:102D50008091BD07841729F08091B9078260809324
:102D6000B907EB2DE695E695F0E0E258FE4F80813D
:102D70008093B7078B2D8C7F8430E9F4ED2FF0E042
:102D8000EE51F14FC11132C0F491AF2E8F2EB0FE33
:102D900012C080910A0190910B01282F30E0D901D7
:102DA000AA0FBB1FA20FB31FAE5ABD4F891708F45D
:102DB00092C00E94DA0E9092BB07C093BC07D093DA
:102DC000BD07772071F02091BA076091BE0770911E
:102DD000BF07392DAE018091C0079091C1070E94B5
:102DE0001C16CDB7DEB7EDE00C94C634292D30E0CB
:102DF000EC2EF12CE491FE2F86E0829F6001839FF0
:102E0000D00C11240FEF10E0C601B8010E949134DC
:102E1000220F331F45E5469FC001479F900D1124A7
:102E2000281B390B822F880F280FA8014E195F0924
:102E3000E49FC001E59F900D1124A92E2E9DA001B5
:102E40002F9D500D1124452F5527D801A41BB50BDC
:102E5000AD01E49FD001E59FB00D11248B2EA80198
:102E6000421B51099A012E9DA0012F9D500D3E9DA0
:102E7000500D1124452F55279801241B350BA9010E
:102E8000E49F9001E59F300D112463307105C9F076
:102E90004CEFC41643E0D40650F46130710509F4D8
:102EA00076CF6230710589F08F2EF32F70CF6430AA
:102EB000710571F066307105B9F3F92FAB2E8E2EC6
:102EC00066CFFB2F892EAE2E62CF892EA32E5FCF29
:102ED000832EF92FF8CF11968C921197FC931296AE
:102EE000AC9212978F5F139661CF2091BA0720FFA3
:102EF00024C0237024602093BA078091B9078160B1
:102F00008093B907662381F03091BB074091BC07DD
:102F10005091BD076091BE077091BF078091C007B7
:102F20009091C1070E941C1620E04091BD0760915E
:102F3000BC078091BB070E949216089561E081E072
:102F40000E94751708959091BA07969596958FEF00
:102F5000890F913009F481E061E00E9475170895AE
:102F6000EAEBF7E0818121E043816281885F0E9482
:102F700092160895EAEBF7E0818121E043816281B6
:102F800088500E9492160895EAEBF7E0628121E1F1
:102F9000620F08F46FEF21E0438181810E94921655
:102FA0000895EAEBF7E0628121E1621B08F460E03A
:102FB00021E0438181810E9492160895EAEBF7E0B7
:102FC000438121E1420F08F44FEF21E062818181CA
:102FD0000E9492160895EAEBF7E0438121E1421B3B
:102FE00008F440E021E0628181810E9492160895F8
:102FF0001F93CF93DF93C62F122F632F8430E0F4FB
:103000009C2F942B9830C0F420E1C29FE001112442
:1030100050E0440F551FC40FD51F20E8829FC00108
:103020001124C80FD91FCE0189960E949935612FAE
:10303000CE018A960E949935DF91CF911F91089514
:103040001F93CF93DF93962F122F632F8430D0F4EA
:103050009230C0F428E0829FE001112424E0929F86
:10306000C0011124C80FD91FC75DDD4FCE01442315
:1030700069F00E94993581E090E0612F8C0F9D1FCF
:103080000E949935DF91CF911F91089502960E9479
:10309000993583E090E0F1CFCF93DF93C9E9D2E097
:1030A00060E0CE010E9499352196C11584E0D807D1
:1030B000B9F7DF91CF910895882381F060E285E22E
:1030C00090E00E94993560E886E290E00E94993590
:1030D00062ED87E290E00E94993508956FEF85E2F6
:1030E00090E00E9499356FEF86E290E00E9499355A
:1030F0006FEFEFCFA0E0B0E0E0E8F8E10C94AF3480
:10310000FA0169017801C82F880FDD0B3097B1F003
:10311000DE0193E0AA0FBB1F9A95E1F7A65EBE4FB2
:1031200011968D919C9112978951994F4C9150E035
:10313000E417F50708F4AF010E945535CE010E944F
:103140001C34182F8823D1F0E114F104B9F083E086
:10315000CC0FDD1F8A95E1F7FE01E65EFE4F43814D
:1031600050E0E416F50608F4A701C65EDE4F6C8158
:103170007D816951794FC6010E945535812FCDB7A8
:10318000DEB7E8E00C94CB34A1E0B0E0EAECF8E183
:103190000C94AA34762E6A014901580101E010E02E
:1031A0009E012F5F3F4F40E050E060E070E00E94E2
:1031B0007A18182F882309F442C0D6014D915D91E9
:1031C0006D917C912FB7F8948091E3069091E4067D
:1031D000A091E506B091E6062FBF841B950BA60BC8
:1031E000B70B84369105A105B10538F4B701C501C7
:1031F0000E948E0C9981891711F18701940140E09A
:1032000050E060E070E0872D0E947A18182FB70117
:10321000C5010E948E0C9981981731F010E0812F22
:103220002196EDE00C94C63411701123C1F30E9475
:10323000090DF6016083718382839383F0CFA70128
:10324000B501C4010E945535EACFA4E0B0E0EBE23D
:10325000F9E10C94AF346B0184E0E82EF12C08EE18
:1032600016E09E012F5F3F4F4FED56E061E080E09A
:103270000E94C418882361F049815A816B817C8146
:103280004093DB065093DC066093DD067093DE0608
:103290004091DB065091DC066091DD067091DE0600
:1032A000F60140835183628373832496E8E00C9493
:1032B000CB34A0E0B0E0EFE5F9E10C94AF34EB01E2
:1032C000942FB901A801C880D980EA80FB80EFB7AC
:1032D000F8940091E3061091E4062091E506309100
:1032E000E606EFBF0C191D092E093F09043611052A
:1032F0002105310510F4992371F000E010E020E081
:1033000030E00E947A18882339F00E94090D688302
:1033100079838A839B8381E0CDB7DEB7E8E00C94A4
:10332000CB34ABE0B0E0E7E9F9E10C94B33428E04A
:10333000EAEBF7E0CE010196DC0101900D922A95AF
:10334000E1F73091B7072091B8075091B907398755
:103350002A875B8741E09C01511101C040E00BE0EE
:1033600010E06BEC76E085E00E9459198111109213
:10337000B9072B96E4E00C94CF34A1E0B0E0E3EC85
:10338000F9E10C94B3348091C60689832091FD063F
:1033900030E090E041E02817390709F440E001E00F
:1033A00010E09E012F5F3F4F67EC76E086E00E94C1
:1033B00059192196E4E00C94CF34A8E0B0E0E3EE94
:1033C000F9E10C94B3344091CF065091D00660914E
:1033D000D1067091D2062FB7F8948091E3069091B0
:1033E000E406A091E506B091E6062FBF841B950B7D
:1033F000A60BB70B11E084369105A105B10520F1AC
:103400000E94260DDC01CB010296A11DB11D89830E
:103410009A83AB83BC8300E010E020E030E044E01E
:1034200050E0BE016F5F7F4F84E00E947A18182F32
:10343000882351F00E94090D6093CF067093D00647
:103440008093D1069093D206812F2896E4E00C94C5
:10345000CF34CF93DF93682F80919A0290919B0293
:103460006A30B9F42091A2068C599240622F70E024
:103470000E949134281B822F66E00E94DC34C82F02
:10348000C15018F4DF91CF91089580E20E94291A6B
:10349000F7CF6D30F9F49C012C5932404091A206CF
:1034A000642F70E0C9010E949134481B842FA90148
:1034B000480F511D4115544018F080E020E030E0E5
:1034C000820F932F911D84569D4F90939B02809362
:1034D0009A02D8CF26E0FC01A8EEB1E001900D924F
:1034E0002A95E1F7603E08F458C026E0FC011192ED
:1034F0002A95E9F7C0919A02D0919B0246E050E0EC
:10350000BE0188EE91E00E9448359E012C59324060
:10351000892B41F1C90146E0969587954A95E1F7D7
:1035200041E050E0BA0102C0660F771F8A95E2F7CA
:10353000CB016091980270919902862B972BB9016B
:103540006B5F7F4FE6E076956795EA95E1F702C0FD
:10355000440F551F6A95E2F7842B952B909399029F
:10356000809398022A5F3F4F4091A206642F70E03B
:10357000C9010E949134481B463010F4240F311DBC
:10358000211574E0370710F020E030E024563D4F5D
:1035900030939B0220939A0275CFF6E06F9FB001A3
:1035A0001124685B7E4F46E050E00E943F35A2CF79
:1035B000CF93DF93EC01FE018491811103C0DF9171
:1035C000CF9108950E94291A2196F5CFAAE0B0E084
:1035D000ECEEFAE10C94A834A090C306B090C406B7
:1035E00081E090E09093C4068093C30639EFE32E08
:1035F00039E0F32EC12CD12C10E0360100E015C0CB
:10360000F40125913491452D602F812F0E94F817E8
:1036100022E0820E911C539438E05312F1CF88E0DF
:10362000680E711C0F5F083049F0C301880F991FA5
:103630009C012750384F4901512CE2CFF7012591C9
:10364000349141E060E0812F0E942018F70132960A
:103650002591349140E060E0812F0E942018F7010D
:1036600034962591349141E061E0812F0E94201829
:10367000F70136962591349140E061E0812F0E9458
:10368000201838E0E30EF11C1F5F80E4C80ED11C47
:10369000143009F0B2CF1A8219821C821B821E825A
:1036A0001D8218861F8288EC90E09A87898709E43A
:1036B00012E04AE050E0B801CE0101960E94BD350B
:1036C000065F1F4F093922E0120799F7B092C4062E
:1036D000A092C3062A96EFE00C94C43480E00E94C6
:1036E0005C1860E088E290E00E9499350E94E61A3A
:1036F0000E944C1881E00E945C180895A8E0B0E098
:10370000E4E8FBE10C94B53466EE7EEF80E090E0F7
:103710000E94B73560E082E090E00E94993581E038
:103720008093C30761E083E090E00E94993560E0F8
:1037300074E184E090E00E94B73560E086E090E0BC
:103740000E9499356FEF87E090E00E94993540E044
:1037500050E0BA0188E090E00E94AB3560E084E27E
:1037600090E00E94993560E087E190E00E949935F1
:1037700060E08CE090E00E94993560E08DE090E0A0
:103780000E94993519821A821B821C821D821E8218
:103790001F82188648E050E068E170E0CE01019693
:1037A0000E94893540E050E0BA0180E290E00E943A
:1037B000AB3580E00E945C180E946E1B40E050E038
:1037C000BA018FE090E00E94AB3540E050E0BA01D2
:1037D00083E190E00E94AB352896E2E00C94D1346E
:1037E000A0E0B0E0E6EFFBE10C94AF347C016B01AC
:1037F00064E670E088E70E94DD31EC0197FD12C0BD
:1038000000E010E0F701E00FF11F849164E670E042
:103810000E944C32EC010F5F1F4FC016D10611F011
:1038200097FFF0CF0E94CE3281E0CD2B09F080E0EF
:10383000CDB7DEB7E8E00C94CB3480919D068823A9
:1038400069F08091C606882349F062E070E086E462
:1038500091E00E94F01B81111092C6060895A4E029
:10386000B0E0E5E3FCE10C94B53480919D0688233B
:10387000F9F00E94090DDC01CB01805A9541AF4F50
:10388000BF4F80939E0690939F06A093A006B0938F
:10389000A1068091C60681110BC062E070E084E44D
:1038A00091E00E94F01B882319F081E08093C60606
:1038B0002496E2E00C94D134282FCB01283070F408
:1038C0004AE0249F90011124B901675B7D4F4AE0D3
:1038D00050E00E94653580E090E008958FEF9FEF03
:1038E0000895AAE0B0E0E7E7FCE10C94B5349C0150
:1038F00097558F3F910509F070F4BE016F5F7F4FC0
:10390000822F0E945C1C892B31F489859A852A9626
:10391000E2E00C94D13488EC90E0F9CF1F921FB60E
:103920001F9211248F939F93AF93BF938091A5060D
:10393000811113C08091E3069091E406A091E50601
:10394000B091E6064196A11DB11D8093E3069093C8
:10395000E406A093E506B093E606BF91AF919F9170
:103960008F911F901FBE1F9018952FB7F8948091CC
:10397000E3069091E406A091E506B091E6062FBF1C
:103980000895A6E0B0E0E7ECFCE10C94B3348C01C0
:103990009093070780930607011580E21807B0F49B
:1039A000802F0E949614C801805E9109089728F024
:1039B00063ED75E10115110511F46EEB75E1C801B8
:1039C0000E9418092696E4E00C94CF3480EF898396
:1039D0008A830E94B51C8160BC0149815A8181E0C3
:1039E00090E00E94DC22EECFCF93DF93D82FC92F37
:1039F0000E9485238D2F9C2F0E94C11CDF91CF91A7
:103A00000895A4E0B0E0E7E0FDE10C94AF347C0160
:103A1000DC0114968C91882309F401C261E0C7018E
:103A20000E94A7108C01F7018581882309F18091FC
:103A30003B0790913C070097D9F008171907C1F090
:103A4000FFE08F9FC0011124FC01ED5BF84F208146
:103A500024602083815C984FDC010D931C930E94AD
:103A6000F8151092C50761E0C7010E94A7108C01EC
:103A7000F7018581882309F4BAC0C80197578038B7
:103A8000910508F040C1F02EFFE0F01708F4C7C11F
:103A90008FEF93E00E9475358111C1C109E912E0F1
:103AA000F1103CC08091520190915301A0915401BA
:103AB000B091550189839A83AB83BC8378014FEF22
:103AC000E41AF40AC8010E94753589831A82882392
:103AD00009F4A5C1813009F084C0680152E0C50E27
:103AE000D11CC7010E947535E82E8A83882309F40A
:103AF00096C1C6010E947535F82E8FEF8E0D83306A
:103B0000D8F4FB82FF2021F0CE0101960E94E91437
:103B1000680183E0C80ED11C8601D0CF011524E0D6
:103B2000120709F47CC1C8010E9475350F5F1F4F51
:103B30008111F4CFFA94B4CF8BEF8E0D833040F522
:103B4000680193E0C90ED11CFB82FF2029F3C60156
:103B50000E9475358C83882381F08B819C81813014
:103B6000AFEF9A0710F0982F8827B6E0EB1651F0C8
:103B7000E7E0EE1651F00E94F41C6801F4E0CF0E6D
:103B8000D11CCACF0E948523F8CF0E94C11CF5CF5B
:103B900024E0E212C1CF680144E0C40ED11CC80188
:103BA00003960E947535FF2009F439C1882309F472
:103BB00036C18150990B4FEF489F9001499F300DBE
:103BC0001124AF2DA150BB0B2A0F3B1F21503109EF
:103BD00008F4A2CFEFE9FFE03197F1F700C0000051
:103BE000F5CFCE0101960E94E914670195CF01152A
:103BF00027E5120708F470C1011548E5140708F01D
:103C0000E1C0680157E5D51A61E377E08C2D0E9489
:103C10005C1C892B29F58FE08C9DF0018D9DF00DAA
:103C20001124E15CF84F8281813009F052C080910B
:103C3000310790913207892B99F080913307909149
:103C40003407892B69F080913507909136072091D0
:103C5000370730913807822B932B892B09F442C008
:103C60008FE0089FF0011124DF01A15CB84F6D01C6
:103C7000D70115968C91ED5BF84F908180FB90F900
:103C80009083882309F45AC00E94B51C90933E0784
:103C900080933D07F60182818F5F82838091C50703
:103CA0009091C207892B83834581568165857685EE
:103CB000C6010E94A70CD60114968C9181FD3BC0D1
:103CC000902F812F90933B0780933C07F7018581CC
:103CD00055C0823029F68091350790913607892B9F
:103CE00009F4BECF2FE02C9DC0012D9D900D112415
:103CF000FC01ED5BF84F20812E7F2083815C984F83
:103D00000E94F815ADCFC80197558F3F910509F076
:103D100008F4A6CFD70115968C910737BCE71B078F
:103D200009F4C1C00837ECE71E0751F5882309F4F0
:103D3000C9C082E0BBC090E080E0C4CFD6011B9632
:103D40004D915C911C971D966D917C91C6010E94CE
:103D5000A70CF601848181FFB9CFC6010E94DE1550
:103D600020913B0730913C07D70115968C910217A3
:103D7000130721F410923C0710923B07882351F25D
:103D8000D70115968C91882309F4A6C00130BCE7B1
:103D90001B0709F49FC00330ECE71E0709F494C029
:103DA0000115FCE71F0709F0CAC00E943C112FEF64
:103DB00044E35CE0215040405040E1F700C0000087
:103DC0000E942C0F8091C2078272F801E052F847DE
:103DD000E531F10508F09ECFEF51FA4C0C94FC341C
:103DE0008091BA0780FF1FC0282F2E7F2093BA072B
:103DF0003091BB074091BC075091BD076091BE0751
:103E00007091BF078091C0079091C1070E941C1656
:103E10008091B90781608093B9070E94DA0E2496D9
:103E2000E8E00C94CB3481608093BA0761E086951A
:103E300086950E947517F3CF43EA57E16EE977E163
:103E40000E94620CECCF4EE957E163EA77E1F8CFCC
:103E50004AEB57E160EB77E1F3CF40EB57E16AEBD8
:103E600077E1EECF41ED57E164EC77E1E9CF44EC47
:103E700057E161ED77E1E4CF4BEE57E16EED77E18D
:103E8000DFCF4EED57E16BEE77E1DACF48E756E151
:103E90006EE576E1D5CF4EE556E168E776E1D0CF25
:103EA00061E081E0C6CF882349F081E00E945C098F
:103EB00043E062E081E00E94050AB1CF81E00E9408
:103EC0006809F6CF82E0FBCF6FEF7FEF80E090E0F4
:103ED0000E94B7350E945211D701CD90DC90C601E7
:103EE0000E94EA09182FB601812F0E944E100E94ED
:103EF000230B182FD70115962C91159716963C91E8
:103F000032953F70492F42954F70483009F4ADC04B
:103F100050F5443000F5892F8F704230A0F1907F2A
:103F2000903211F08295807F113009F06CC022230D
:103F300009F463C0363090F40E94B4150FC0F70145
:103F4000C080D180C6010E947C10182F682FC60146
:103F50000E94CF09C8CF443009F46CC060E0C701AB
:103F60000E94A7105CCF493009F4F2C04A5F4F703D
:103F70004230A0F7823F09F0FCC0892F8F712223C5
:103F800009F425C1F3C0082F903110F00295007F8D
:103F90002223C9F0002369F080E2810F883010F0FD
:103FA00011110BC08091C207802B8093C2070E9421
:103FB0001511812F0E942C14D1CF8091C507802B21
:103FC0008093C507F4CF812F0E949614002331F20D
:103FD000009580E2810F883010F0111108C08091A7
:103FE000C20780238093C2070E941511B7CF80912A
:103FF000C50780238093C507F7CF353008F0AECFD3
:104000000E94BE15ABCF222321F0332309F494CFB5
:10401000D0CF3323A9F3193349F4BFEFE7EEF3E030
:10402000B150E040F040E1F700C00000812F0E9455
:10403000961494CF892F869586958370882361F096
:10404000813009F08BCF812F9370211102C080E065
:1040500090E00E94E30C82CF812F9370211102C067
:1040600080E090E00E94BD0C79CF892F8370811190
:1040700036C0211129C0812F829586958770880FBF
:10408000880F212F2F70082E01C0220F0A94EAF703
:104090001071112341F04FE050E001C0440F8A95A8
:1040A000EAF7142F1095969596959370923091F0AB
:1040B000812F822B933031F08091C307913039F0FA
:1040C000212B82230E9456090E94AC0C47CF822BE1
:1040D000812BF8CF212B8091C3078227F3CF222396
:1040E00061F190FFF1CF812F829586958770880FBF
:1040F000880F212F2F70082E01C0220F0A94EAF793
:104100001071112341F04FE050E001C0440F8A9537
:10411000EAF7142F1095969596959370923099F032
:10412000812F822B933031F08091C407913041F080
:10413000212B82230E945909C7CF823028F2D3CF86
:10414000822B812BF7CF212B8091C4078227F2CFBE
:10415000092F0F70222339F0802F0E945C09812FD4
:104160000E94B415B1CF0E94BE15802F0E9468092D
:10417000ABCF833F60F4803F99F0813F21F1222350
:10418000B9F1332391F1812F0E942C149DCF833FED
:1041900009F12111F6CF311138C0892F8F71E6CF87
:1041A000222379F0353008F08FCF292F2F7181E04D
:1041B00090E001C0880F2A95EAF79091C4078927FB
:1041C000B9CF3530F0CF892F8F71222379F20E9439
:1041D0005C097ACF80E0222309F4ACCF9F7181E0A3
:1041E00001C0880F9A95EAF7A5CF892F8F71EFCF7D
:1041F000332399F2893349F42FEF47EE53E02150EE
:1042000040405040E1F700C00000812F0E9496140A
:104210005BCFA0E0B0E0EFE0F1E20C94B03480912D
:104220000608803108F049C080910508882309F408
:1042300044C0C091C70787E0D82E8091C6078C176D
:10424000E1F1EC2EF12CDC9EE0011124FE01E8539B
:10425000F84F84818823B1F19181809101089813EE
:1042600031C090818091000898132CC08581811104
:1042700029C0028113818091020890910308081BD4
:10428000190B60E080E098E00E94A7100E94711C6A
:1042900008171907B8F4809106088F708061809321
:1042A0000608C253D84F88818F708061888380E070
:1042B00098E00E94011D0E94260ACDB7DEB7E7E014
:1042C0000C94CC34E7012196C770B7CFADE0B0E0D5
:1042D000ECE6F1E20C94A8348C0186E0F801DE01F2
:1042E000189601900D928A95E1F7F801C0805180EF
:1042F000F580A280B380E48080E0882E88E0982E4C
:1043000080910408811118C0EE2099F0FF2009F473
:104310004FC1C8010E94D610882309F449C187E023
:10432000F801A0E0B8E001900D928A95E1F70E94B3
:104330000921FF24F3945DC0D09005088091020804
:10434000909103083501681A790A60E080E098E0EE
:10435000DD2009F4EBC00E94A7100E94711C6816B2
:10436000790608F09EC0EE2021F3E09006089091B7
:104370000108F8018181FFE0FE1508F45BC0981385
:1043800017C090910008F8018081981311C0F110B6
:104390004BC08E2D8F7080618093060880E098E07E
:1043A0000E94011D80910608F8018683F12C21C02E
:1043B000F1103AC040E0652D8C2D0E94BB0E40E00C
:1043C000652D8C2D0E94BB0EF82E8111EFCF8885B4
:1043D00099850E94C710292F22952F70903470F470
:1043E0009F702230A0F09923B1F0F80196819031AE
:1043F00090F48F2D2D96EFE00C94C4342A5F2F702B
:10440000223068F0C8010E94011DFD2CF2CF9923D3
:1044100011F0882371F3805E883058F3F3CF803F2A
:1044200040F3815F8230F9CF8091060881608093EC
:104430000608BCCF981315C090910008F801808140
:1044400098130FC0F1100DC0E682C8010E94011D33
:1044500087E0F801A0E0B8E001900D928A95E1F7BD
:1044600068CFC8010E94D610882309F4A1C0FF209C
:1044700009F49EC080910608803208F450CF8091E4
:104480000008909101089A838983BC82AB82809155
:1044900004088D831E82EF82CE0101960E94011DC9
:1044A0003ECFD0900608FFE0FD1550F080E098E088
:1044B0000E94011D87E0F40111928A95E9F776CFF9
:1044C000EE2009F436CF90910108F801818198130C
:1044D00011C090910008808198130CC0F1100AC09F
:1044E000D682C8010E94011D87E0F40111928A95CD
:1044F000E9F71FCFC8010E94D610882309F458C0DD
:10450000FF2009F455C080910608803208F407CFD7
:1045100080910008909101089A838983BC82AB82C4
:10452000809104088D831E82DF82B6CF0E94A7107F
:104530000E94711C6816790608F0BCCFEE2009F4C1
:10454000F8CEFF20A9F190910108F801818198131C
:1045500025C0909100088081981320C080910208A6
:1045600090910308A81AB90AF8ECAF16B10408F044
:104570006FCF8091060880FD6BCF803108F468CF43
:10458000F8018683982F907F903F09F45ECF982F93
:10459000907F905F8F70892B868357CFC8010E94D0
:1045A000D6108111BCCE80910608816080930608E8
:1045B000C8010E94011DBDCEABE1B0E0E2EEF2E227
:1045C0000C94B4344E8B5F8B688F798F8A8F9B8F5E
:1045D00091111092C5071D8A86E0FE017696DE01D4
:1045E0001F9601900D928A95E1F78B89882329F017
:1045F00061E0CE010F960E94A71087E0FE013F9672
:10460000DE01189601900D928A95E1F7CE01089689
:104610000E94662181112BC087E0FE013896DE01E1
:10462000119601900D928A95E1F72091C60740916D
:10463000C7078C858823D9F030E0C90101968770BF
:10464000992750E084179507E9F097E0929FD001F1
:10465000939FB00D1124A853B84FFE0131960190DD
:104660000D929A95E1F78093C6070E94260A17E0FB
:104670008091C7079091C607891312C06B96E3E03B
:104680000C94D0340E943C111092C6071092C707B8
:1046900087E0E0E0F8E0DF011D928A95E9F7E7CFD7
:1046A000189FC00111248853984F0E9466218823C7
:1046B00029F38091C70790E001968770992780932E
:1046C000C707D6CFA6E0B0E0E8E6F3E20C94B33437
:1046D0000E94B51C8C0180910A0790910B078017EE
:1046E000910779F019821A820E94B51CBC01498198
:1046F0005A8180E090E00E94DC2210930B07009327
:104700000A072696E4E00C94CF34A6E0B0E0EBE88C
:10471000F3E20C94B3348C0190930707809306075F
:10472000011580E21807B0F4C801805E910908976E
:1047300028F069EC75E10115110511F464EB75E1E0
:10474000C8010E941809802F0E942C142696E4E0CC
:104750000C94CF3480EF89838A830E94B51C8160DA
:10476000BC0149815A8181E091E00E94DC22EECFB8
:104770000F931F93CF93DF938C01862F61E377E034
:104780000E945C1C892BB1F4C0913107D091320793
:10479000209781F0F8018281833051F4CE010E948C
:1047A000F41CCE010E94F41CCE010E94F41C02C035
:1047B0008430D0F7DF91CF911F910F9108950F931F
:1047C0001F93CF93DF938C01EB0161E377E08C2F94
:1047D0000E945C1C892B09F05AC0FE01FF27D801FA
:1047E00012968C911297E65BFD4F8130A9F41496D6
:1047F0008C9182FD51C080FF4FC082E08083809108
:104800003307909134070097B9F480913107909164
:1048100032070097E1F110C08230B9F514968C91FF
:1048200082FD28C080FD0BC083E080838091350726
:1048300090913607009701F10E94852328C084E0FB
:10484000808380913707909138070097A9F780916E
:10485000310790913207009711F10E94F41C80916A
:10486000330790913407009739F780913107909181
:104870003207E2CF85E08083809131079091320743
:10488000009729F00E94F41CF0CF86E08083DF912E
:10489000CF911F910F91089581E08083B6CF8091D1
:1048A000330790913407B5CF0F931F93CF93DF93C6
:1048B0008C01EB0161E377E08C2F0E945C1C892B5B
:1048C00071F4DD27C65BDD4F8881F8011282188202
:1048D0008330F1F048F4813059F0823081F0DF917B
:1048E000CF911F910F9108958430B9F08530B9F7B9
:1048F0008091310790913207009789F306C080912B
:10490000330790913407009799F30E94C11CE7CFB9
:104910008091350790913607F6CF809137079091B7
:104920003807009791F72091310730913207809135
:1049300033079091340721153105F1F2009729F7DB
:10494000C901E3CFACE0B0E0E8EAF4E20C94B334A0
:10495000182F8F836623D9F00DEF08870E94B51CAE
:10496000BC014F81588582E091E00E94DC221983CE
:104970000A830E94B51C682F82E0792F49815A81F1
:1049800090E00E94DC222C96E4E00C94CF340CEFF3
:1049900008870E94B51CBC014F81588583E091E0D7
:1049A0000E94DC2219830A830E94B51C682F83E0D1
:1049B000E4CFA1E0B0E0EFEDF4E20C94AE34EE24ED
:1049C000E394F12C0DEE16E09E012F5F3F4F47ED73
:1049D00056E063E082E00E94C418082F882339F172
:1049E000D12C80E01DC0C090D606CD0C2C2D30E01F
:1049F000A9014C52594F7A01E1E0F0E0EC0FFD1FA4
:104A0000ED0DF11D1081FA019081191BB12E1B14BF
:104A10009CF0912F17FD90E0191B111118C0D39431
:104A20009091D306D916F8F281110E94590D802F6A
:104A30002196E9E00C94CA34BA94F70180818F5F23
:104A4000808360E08C2D0E94A224802FE0CF1F5F26
:104A5000F70180818150808361E08C2D0E94A22427
:104A6000802FDBCF9C014FB7F8948091E3069091A3
:104A7000E406A091E506B091E6064FBF821B930BBA
:104A800008952F923F925F926F927F928F929F92A2
:104A9000AF92BF92CF92DF92EF92FF920F931F934C
:104AA000CF93DF9300D000D000D0CDB7DEB7809198
:104AB0009D06882309F497C080914802909149028D
:104AC0000E943225C29708F450C00E94B51C9093F2
:104AD0004902809348028CE992E090939B02809374
:104AE0009A028091FE06882309F4ADC082EA9EE016
:104AF0000E94D81A8BE99EE00E94D81A84E99EE0B1
:104B00000E94D81A8CE89EE00E94D81A9091C4079F
:104B10008091C307892B0E944409873008F08DC01B
:104B2000E82FF0E0EA50FA4C0C94FC3484E89EE064
:104B30000E94D81A0E94AC0C898380FD81C089E351
:104B40009EE00E94D81A298189E29EE021FF02C0DE
:104B500081E39EE00E94D81A398181E29EE032FD15
:104B600002C089E19EE00E94D81A8091980290913B
:104B70009902892BA9F080919D06882389F0809164
:104B80009C0681110DC00E942F1C2091980230912B
:104B9000990280E061E070E02115310509F083C0E1
:104BA0008091C6068823F9F00E94090D69837A83F3
:104BB0008B839C8380919E0690919F06A091A00676
:104BC000B091A10629813A814B815C81281B390B68
:104BD0004A0B5B0BDA01C9018F3F9F4FAF4FBF47B5
:104BE00010F40E941D1C0F900F900F900F900F90CB
:104BF0000F90DF91CF911F910F91FF90EF90DF9079
:104C0000CF90BF90AF909F908F907F906F905F906C
:104C10003F902F9008958CE79EE08ACF80E79EE03A
:104C200087CF8BE69EE084CF86E69EE081CF8CE541
:104C30009EE07ECF84E59EE07BCF89E49EE078CF46
:104C400081E49EE07ECF2091980230919902ACE9F8
:104C5000B2E080E090E061E070E0FC01E75EF54FDB
:104C600014914D911417A1F07D0141E0E41AF1086F
:104C7000F7011083AC01E6E056954795EA95E1F718
:104C8000FB0102C0EE0FFF1F4A95E2F72E2B3F2BD0
:104C900001968115F4E09F0701F730939902209364
:104CA000980263CF8F5F082F10E01B01082E02C00F
:104CB000220C331C0A94E2F7A10142235323452B13
:104CC00089F39091A30690FD43C0980136952795EE
:104CD000922F8295880F880F80743FE3380F80935E
:104CE000030120930601309304019093070124E609
:104CF00030E047E050E061E071E088E70E947C32FC
:104D0000892B09F04DCFA80126E0440F551F2A95A5
:104D1000E1F78091A30680FD23C044565D4F04E671
:104D200010E020E430E060E488E70E94A332892BA1
:104D300009F036CF9101209530958091980290919D
:104D4000990228233923309399022093980228CF7F
:104D5000880F880F880F37E0380F20E097E0BFCF2B
:104D6000E8E0F2E080E4DF011D928A95E9F7E6E7EA
:104D7000F1E0FE83ED830EE611E08EE7C82E81E0C0
:104D8000D82E97E0592E77247394AD81BE818D91F2
:104D9000BE83AD83F80121918F01240F352F311D82
:104DA00024563D4FE82FF0E0E85FFD4F80E090E0B3
:104DB000652C681A872C082E01C0880C0A94EAF723
:104DC0007901A12CD701BD907D01B820662D6A190B
:104DD000677070E0BB2D062E01C0BB0F0A94EAF786
:104DE0009B2E7195619571096770772701C0B69404
:104DF0006A95EAF79B286081962A9082A39468E0DE
:104E0000A612E0CF019631968830910589F68D8102
:104E10009E81C816D90609F0B8CF04E610E020E458
:104E200030E048E052E07FCFA7E1B0E0EAE1F7E20E
:104E30000C94A8341D861C86FE013E9686E0DF0198
:104E40001D928A95E9F780E8E82E81E0F82E8E0120
:104E5000045F1F4F94E8C92E91E0D92E3801AA248F
:104E6000A394B12C3CE8832E31E0932EF70181917D
:104E70007F018F3F09F441C0F894E82FE295EF706D
:104E8000F0E021A18F70A50102C0440F551F8A9543
:104E9000E2F7CA01922F982B91A392A180958923C2
:104EA00082A3789400C0E4E8F1E031E0512C219134
:104EB0002F3F09F49DC0A22FA295AF70A05EB0E075
:104EC0008C9190E02F7002C0959587952A95E2F716
:104ED000817081118DC0832F582A330F8E169F0643
:104EE00031F7F701319780818F3F11F00E943B0C21
:104EF00050EA5A95F1F7D8015C920F5F1F4FCE141C
:104F0000DF0409F0B3CF48E050E0B3018EE892E04F
:104F10000E9448350091970210E00554194F892BE3
:104F200009F468C088E0F301AEE8B2E001900D92A8
:104F30008A95E1F781E08093E7010E94B51C909388
:104F4000E6018093E5018091FE06882309F4ABC059
:104F50001A8219821C821B828091EE018A3008F02D
:104F60006BC045E259E1FE0131967F01BF01C801E6
:104F70000E94AC0F6701882309F483C049ED54E215
:104F8000B701C8010E94AC0F882309F47AC04DED27
:104F900059E1B701C8010E94AC0F882309F471C020
:104FA00041E959E1B701C8010E94AC0F882309F417
:104FB00068C04DEB59E1B701C8010E94AC0F8823CE
:104FC00009F45FC01092EE018091960290E044E0F7
:104FD00050E0B6018554994F0E94483521E0209356
:104FE000E401892B09F03FC06796EFE00C94C434CC
:104FF00080E072CF8091E701882309F4A4CF8091EB
:10500000E5019091E6010E943225059708F49BCFB7
:1050100044E050E06EE872E0C8010E944835892BF8
:1050200041F084E0EEE8F2E0D80101900D928A951B
:10503000E1F71092E70187CF8091E2019091E301BF
:105040000E943225843F914008F08BCF8091E4018B
:10505000882351F284E0FE013196DF011D928A958A
:10506000E9F71092E401E0919602F0E0E554F94F7F
:1050700089819A81AB81BC8180839183A283B38330
:10508000B3CF8091EE018F3F39F40E94B51C90930D
:10509000E3018093E201DACF8F5F8093EE018A30E3
:1050A00008F492CFF2CFF80180819181A281B3817F
:1050B0008093E8069093E906A093EA06B093EB0686
:1050C00064E070E088EE96E00E948E0C8093E70624
:1050D0004091B30650E06091B20670E06C52794F97
:1050E0008E010F5F1F4FC8010E9455358981809343
:1050F000ED0661E070E0C8010E948E0C8093EC0622
:10510000C090EE06D090EF06E090F006F090F10629
:105110008091DE019091DF01A091E001B091E10169
:10512000C816D906EA06FB06B1F0C092DE01D0929D
:10513000DF01E092E001F092E1010E94090DC61A40
:10514000D70AE80AF90AC0920007D0920107E09254
:105150000207F09203078BE0E2EFF6E0D80101903E
:105160000D928A95E1F78091F206869586950091D9
:10517000F306F090F406E090F5061091FC0610920C
:10518000FC061123A9F010FF0BC029819091BA07EA
:1051900020FF15C091609093BA0760E00E947517D8
:1051A00011FF06C020E04E2D6F2D802F0E94921619
:1051B0008091FD06882371F00E942F1C15CF9E7FE1
:1051C0009093BA078091B90781608093B9070E94D4
:1051D000DA0EE6CF0E941D1C07CFCDB7DEB7AE9723
:1051E0000FB6F894DEBF0FBECDBF85B7806885BF10
:1051F00085B7806885BF84B7877F84BF0FB6F89472
:10520000A895809160008861809360001092600092
:105210000FBE80E890E00FB6F89480936100909301
:1052200061000FBE89E39CE09093D5018093D40187
:105230000E94760C0E940A0E0E94600E8091E2008D
:1052400084608093E20078948091C506882399F069
:105250008091E9001091EC001795112717958F7038
:10526000182B1092E9008091E80083FD0E946811DC
:105270001F701093E90082E084BD93E095BD9AEF22
:1052800097BD80936E001092000710920107109254
:105290000207109203070E94FC10811102C00E94B5
:1052A0006E1B8091D80080618093D8002AE12A95F6
:1052B000F1F700C08091D90080FDDBC00E940A0E8A
:1052C0001092C5061092FE061092FF0610920D0174
:1052D0008AE0809308018093090180910D0191E09B
:1052E00089278093B206392F381B3093D6068091D8
:1052F0000D019093B30680910D019093D306809198
:105300000D01811106C085E38093190186E6809323
:10531000180180911901E82FE295EF70F0E041A1AA
:105320008F7021E030E0B90102C0660F771F8A95C7
:10533000E2F7CB01962F9095942391A392A1892B0C
:1053400082A380911801E82FE295EF70F0E041A16F
:105350008F70D90102C0AA0FBB1F8A95E2F7CD0159
:105360009A2F9095942391A392A1892B82A3EFE881
:10537000F1E03197F1F700C000001091B30669E148
:1053800071E048E151E0F4EBEF2EF6E0FF2EFB0177
:105390008E2F861B811708F47BC080910D018091B0
:1053A0000D0191E08927880F880F8093970294E080
:1053B000981B9093960284E30E943B0C86EC0E941B
:1053C0003B0C87E90E943B0C84E90E943B0C04E8FB
:1053D00011E0ECE8EE2EE1E0FE2EF80181918F0164
:1053E0008F3F11F00E943B0CE016F106B1F788E008
:1053F000EBEBF6E0DF01282F1D922A95E9F7EEE8A6
:10540000F2E0DF011D928A95E9F780E090E00E94CA
:105410008335863E9E4F21F40E94FC10811102C00C
:105420000E947E1B82E090E00E9475358093A70663
:1054300084E090E00E9483359093050780930407F1
:105440000E941427EFEFF6E721E0E150F040204002
:10545000E1F700C000000E9414278091BB0680FF86
:105460003FC06FEF7FEF80E090E00E94B7350E9471
:105470002C0F81E08093FE068093FF0680930D0140
:10548000109208018AE0809309010E942E3325CFF3
:105490000191802F82958F70805E90E0DC012C91CD
:1054A000DA013D91AD01832F82958F70805E90E08F
:1054B000DC018C9190E03F7002C0959587953A95FC
:1054C000E2F78170880F30E00F7002C035952795A4
:1054D0000A95E2F72170822BD7018D937D0158CF79
:1054E00083E090E00E9475350E94560982E0809327
:1054F000A30680E88093A2060E94D7316BE070E09B
:1055000089EF9FE00E94F01B882309F443C080913B
:10551000A30665E070E081FD45C184EF9FE00E9435
:10552000F01B8823B9F16DE070E082EE9FE00E94ED
:10553000F01B882379F10E94090D6BA77CA78DA72A
:105540009EA7DC01CB01805A9541AF4FBF4F80939E
:105550009E0690939F06A093A006B093A106ECE947
:10556000F2E080E094E0DF019C011D922150304088
:10557000E1F7F0939B02E0939A028FEF9FEF9093F5
:1055800099028093980281E080939D068093C606DD
:1055900010929C068091A406811195C080E090E055
:1055A0000E948335863E9E4F21F40E94FC1081119B
:1055B00004C00E947E1B0E94421688E090E00E9478
:1055C0007D356B017C0184E290E00E947535282FC7
:1055D00030E040E050E060E070E080E090E000E229
:1055E0000E940935E22FA32EB42EB52FA62FF72F38
:1055F0009701860140E050E0BA01EC29A12AB22AC5
:10560000B32BA42BF52B862B972BE093BA07A092F4
:10561000BB07B092BC07B093BD07A093BE07F09341
:10562000BF078093C0079093C1078091B90783603B
:105630008093B907E430C8F50E94421688E090E0F4
:105640000E947D356B017C0184E290E00E947535FB
:10565000282F30E040E050E060E070E080E090E033
:1056600000E20E9409355901B42FA52FF62FE72F2C
:105670009701860140E050E0BA01AC28B12AB22B74
:10568000A32BF42BE52B862B972BA092BA07B09275
:10569000BB07B093BC07A093BD07F093BE07E09390
:1056A000BF078093C0079093C1070E94540C80915C
:1056B000BA0780FF05C060E0869586950E94751741
:1056C00081E08093A4068091FE06811102C00E94B1
:1056D00031338EE091E090930D0780930C0768E1E1
:1056E000462E512C74E0272E312C8091C506853032
:1056F00049F48091C506853009F457C00E943C11D9
:105700000E94AC0C0E94142708EA16E05BEBE52E21
:1057100056E0F52E20EB36E0D701F80191918D91FE
:105720002E173F0709F493C09817C1F38090FE0627
:10573000D12CD701CD907D01F80191908F019C145F
:1057400041F19C24B12CAA24A394892D8A21882379
:10575000C1F08820B1F0B982DA820E94B51C9C8326
:105760008B83F1E0FD8391E08C2D8A21811101C0B2
:1057700090E09E8349815A816B817C818D810E945A
:10578000DC22B394AA0C28E0B212DFCFF8013197E3
:10579000C082D39438E0D312CCCF0E94260DDD24F2
:1057A000D3945AC08FEE9FE0BACE8091C506843064
:1057B00021F10E941D1C1092A50660E40FB6F8941A
:1057C000A895409260000FBE6093600083B7817F10
:1057D000846083BF83B7816083BF7894889583B7E3
:1057E0008E7F83BF0FB6F894A89580916000886182
:1057F00080936000109260000FBE8091A6068823FF
:1058000009F477CF0E941427EBEBF6E083EC96E0E7
:105810002191211104C08E179F07D1F76ACF80E133
:1058200089BD82E189BD09B400FEFDCF8091D80019
:105830008F7D8093D8008091E00082608093E000AB
:105840008091E00081FDFCCF0E943C1152CF981363
:105850006DCF0E946223D12C8091FE06882321F116
:10586000E0903B07F0903C07E114F104E9F08091EF
:105870003D0790913E070E9432258C01C7010E948E
:10588000711C8017910780F480913B076FE0869F21
:10589000C0011124FC01ED5BF84F208122FD04C002
:1058A000815C984F0E94F815E12CC12C76C00E2D1A
:1058B00010E0F801E75EFE4F4081E42FE295EF70C3
:1058C000E05EF0E02081F801E85EFE4F3081E32FDA
:1058D000E295EF70E05EF0E0808190E03F7002C002
:1058E000959587953A95E2F78170880F30E04F7073
:1058F00002C0359527954A95E2F72170822BD80191
:10590000AC54B94FEC919E2F9370891709F444C0A1
:10591000EE0FEE0FE82BEC93F090B206FE0CEF705A
:10592000F0E0E457FE4F0055194F8081D8019C915B
:10593000890F8C93B12C84307CF0EF2DF0E0EC5289
:10594000F94F80818F5F8083B090FE06BB20B9F055
:1059500060E08F2D0E94A224F80180818D3F8CF49D
:10596000EF2DF0E0EC52F94F8081815080838091DF
:10597000FE06882321F061E08F2D0E94A224BB2423
:10598000B394D8018C91082E000C990BB1010E94A0
:10599000E834F8018083CB28E3948091B306E816BD
:1059A00008F485CFCC2039F00E94590D0E94412582
:1059B0000E942F1C04C00E944125D110F9CF0E94E3
:1059C000AC0C9091B606891721F08093B6060E9420
:1059D000090D8091C506843009F087CE83E080935D
:1059E000E9008091E80082FF80CE8091E80085FD8B
:1059F00006C08091E8008B778093E80076CE0E9405
:105A0000D90D40E2E42EF12C8E010F5F1F4F882349
:105A100061F18091E8008B778093E800009108079E
:105A200010910907E9810115110569F1EE3F09F0AF
:105A30004EC08A81833020F08550833008F047C003
:105A4000EA81EE3008F043C0F0E0E350FA4C0C94E9
:105A5000FC348091F100D8018C93B1E0EB1AF1088D
:105A6000E114F104B1F20F5F1F4F8091E80085FD52
:105A7000F0CF8091E8008B778093E8000E94D90DE9
:105A8000882399F3C6CFE43150F4EE2351F0E1506E
:105A9000E33138F4F0E0E55FF94C0C94FC34EE3F70
:105AA00079F28FEF898313C01A8289E08B830FC04C
:105AB0008A818230A9F08330E1F0813091F70E9431
:105AC000090D0E9402356B837C838D839E8340E2A7
:105AD00050E0BE016F5F7F4F82E00E94500F05CE05
