:100000000C94BE080C94F6080C94F6080C948C33EF
:100010000C94F6080C94F6080C94F6080C94F60868
:100020000C94F6080C94F6080C94CC300C94A43183
:100030000C94191D0C94F6080C94F6080C94F60810
:100040000C94F6080C94F6080C94F6080C94F60838
:100050000C94F6080C94A8300C94F6080C94F6084E
:100060000C94F6080C94F6080C94F6080C94F60818
:100070000C94F6080C94F6080C94F6080C94F60808
:100080000C94F6080C94F6080C94F6080C94F608F8
:100090000C94F6080C94F6080C94F6080C94F608E8
:1000A0000C94F6080C94F6080C94F60805010980E7
:1000B000A101850319012AB700150126B700950192
:1000C00075108100C0050C0901A101850419012AE0
:1000D000A002150126A002950175108100C00660DE
:1000E000FF0961A1010962150026FF00952075082E
:1000F00081020963150026FF00952075089102C052
:1001000005010906A101050719E029E715002501E8
:10011000950875018102950175088101050719008F
:1001200029FF150026FF00950675088100050819AE
:1001300001290515002501950575019102950175A7
:10014000039101C000AF00AE07087F0807003E5BC7
:100150004F5B3E003E6B4F6B3E001C3E7C3E1C00E6
:10016000183C7E3C18001C577D571C001C5E7F5EAF
:100170001C0000183C180000FFE7C3E7FF00001850
:1001800024180000FFE7DBE7FF0030483A060E00C6
:10019000262979292600407F05050700407F05258F
:1001A0003F005A3CE73C5A007F3E1C1C0800081CDC
:1001B0001C3E7F0014227F2214005F5F005F5F00FF
:1001C00006097F017F00006689956A0060606060B3
:1001D000600094A2FFA2940008047E04080010208E
:1001E0007E20100008082A1C0800081C2A080800A5
:1001F0001E10101010000C1E0C1E0C0030383E3863
:100200003000060E3E0E0600000000000000000058
:100210005F000000000700070000147F147F140037
:10022000242A7F2A120023130864620036495620CC
:100230005000000807030000001C2241000000419C
:10024000221C00002A1C7F1C2A0008083E08080007
:100250000080703000000808080808000000606096
:1002600000002010080402003E5149453E000042B3
:100270007F4000007249494946002141494D330001
:100280001814127F10002745454539003C4A49495A
:1002900031004121110907003649494936004649D4
:1002A00049291E0000001400000000403400000036
:1002B00000081422410014141414140000412214E4
:1002C00008000201590906003E415D594E007C12AA
:1002D00011127C007F49494936003E4141412200CC
:1002E0007F4141413E007F49494941007F09090959
:1002F00001003E41415173007F0808087F00004122
:100300007F4100002040413F01007F08142241004E
:100310007F40404040007F021C027F007F040810A5
:100320007F003E4141413E007F09090906003E41F0
:1003300051215E007F0919294600264949493200AA
:1003400003017F0103003F4040403F001F20402049
:100350001F003F4038403F0063140814630003044B
:10036000780403006159494D4300007F4141410039
:10037000020408102000004141417F0004020102F4
:1003800004004040404040000003070800002054A3
:10039000547840007F2844443800384444442800BE
:1003A000384444287F0038545454180000087E090B
:1003B000020018A4A49C78007F080404780000447C
:1003C0007D4000002040403D00007F102844000098
:1003D00000417F4000007C04780478007C0804041D
:1003E0007800384444443800FC18242418001824A9
:1003F0002418FC007C0804040800485454542400C9
:1004000004043F4424003C4040207C001C20402049
:100410001C003C4030403C004428102844004C90D4
:1004200090907C004464544C440000083641000025
:1004300000007700000000413608000002010204BD
:1004400002003C2623263C00000000000000404043
:1004500040F0F8F8FF38FFF8F83FF8F8FF38FFF8F9
:10046000F8F040404000000000000080C0C0C080A4
:100470000000C0C08000000080C0C000C0C00000FC
:1004800080C0C00000000000C0C0C0C0C000C0C02C
:10049000000000000000000000000000000000005C
:1004A000000000000000000000000000000000004C
:1004B000000000000000000000000000000000003C
:1004C00000000000000000C0F0F8FC3E1E06010025
:1004D00000007F4141417F007F4141417F0000801A
:1004E000C0E07E5B4F5BFEC00000C000DCD7DEDEFC
:1004F000DED7DC00C00000000000000000000000AB
:100500000000000000000000000000000000494959
:1005100049FFFFFFFFE0DFBFBF00BFBFDFE0FFFF1E
:10052000FFFF49494900000000001F3F6060E0BF35
:100530001F007F7F071E381E077F7F007F7F0E1FF3
:100540003B716000000000007F7F0C0C0C007E7E81
:10055000007F7E0303007F7E03037E7E03037F7E96
:10056000000F3E703C063C703E0F00327B49493F15
:100570007E007F7E0303001E3F69696F2600000036
:1005800000000000000000030F1F3F3C7870600077
:1005900000007F4141417F007F4141417F00307B2E
:1005A0007F7830202030787F3B0003000F7F0F0FD3
:1005B0000F7F0F000300000000000000000000009B
:1005C0000000000000000000000000000000010129
:1005D00001070F0F7F0F7F0F0F7E0F0F7F0F7F0F12
:1005E0000F070101010000000000000000000001F1
:1005F00001000000000000000000000000000000FA
:1006000000000000000000000000000000000000EA
:1006100000000000000000000000000000000000DA
:1006200000000000000000000000000000000000CA
:1006300000000000000000000000000000000000BA
:1006400000000000000000000000000000000000AA
:10065000000000000000000000000000000000009A
:10066000000000000000000000000000000000008A
:10067000000000000000000000000000000000007A
:10068000000000000000000000000000000000006A
:10069000000000000000000000000000000000005A
:1006A0000000000000000000000000007E0F00D4E9
:1006B000FFFFFFC7000000780000000000000000FE
:1006C0002A2B2800000000000000000000000000AD
:1006D00000000029000000002C1E342021222434B8
:1006E0002627252E362D3738271E1F20212223248A
:1006F00025263333362E37381F0405060708090A26
:100700000B0C0D0E0F101112131415161718191AC1
:100710001B1C1D2F3130232D350405060708090A3F
:100720000B0C0D0E0F101112131415161718191AA1
:100730001B1C1D2F3130354C09025B00030100A04A
:10074000FA0904000001030101000921110100015F
:100750002244000705810308000109040100020387
:100760000000000921110100012222000705820377
:100770002000010705030320000109040200010312
:100780000000000921110100012232000705840345
:1007900020000112010002000000081D8D44CF005E
:1007A00001010203011C037600690061006C003A3C
:1007B00000660036003400630032006200330063DC
:1007C00000000016034B00790072006900610020F0
:1007D000007200650076003300000018037300709B
:1007E000006C00690074006B0062002E0063006FF3
:1007F000006D000000040309040000170015000844
:10080000001A0014002B0000000A0009000700165F
:10081000000400292139000500190006001B001DF5
:1008200000E10021522824E3002F0001002C0000E9
:100830000000001C0018000C00120013002A000029
:10084000000B000D000E000F003300343123521155
:10085000001000360037003800E5002252E600E7BD
:1008600000300065002C00000000000100010001C4
:100870000001000100010000000100E100E000E2D1
:1008800000E3000100470001000100010001000138
:100890000001000100010001000100010001000051
:1008A0000000004B004A0052004D00A9004C00001F
:1008B000004E00500051004F00AA004900010048BE
:1008C00000AC00AE00AB00A8004600010001000132
:1008D00000010001000100000000002200210020B2
:1008E000001F001E00350000002202210220021F0E
:1008F000021E02350201002F002D003300330231A9
:100900000031020100010001002F0201000100007E
:10091000000000230024002500260027002E0000F0
:1009200000230224022502260227022E02010030A3
:10093000002D0236003700380038020100010001A6
:1009400000300201000100000000000100450044E9
:100950000043004200010000000100410040003F50
:10096000003E000100010001003D003C003B003A58
:100970000001000100010001000100010001000070
:100980000000000100010001000100010001000061
:10099000000100E500E400E200E7000100010001C1
:1009A000000100010001000100010001000100013F
:1009B000000100010001000000A900AA004E004B48
:1009C00000A900AA004E004B00A900AA004E004B4F
:1009D00000A900AA004E004B00000000000000002B
:1009E0000000000000008080C0E0F07078383C1CFF
:1009F0001E0E0E0E0707070707070707070707075B
:100A0000070707070E0E0E1E1C3C387870F0E0C07A
:100A100080800000000000000000000000000000D6
:100A200000000000000000000000000000000000C6
:100A300000000000000000000000000000000000B6
:100A400000000000000000000000000000000000A6
:100A50000000000000000000000000000000000096
:100A6000C0E0F07C3E1F0F07030180C0E0F0783843
:100A70003C1C1E0E0E070787E77F1FFFFF1F7FE747
:100A80008707070E0E1E1C3C3878F0E0C08001037B
:100A9000070F1F3E7CF0E0C00000000000000000D7
:100AA0000000000000000000000000000000000046
:100AB0000000000000000000000000000000000036
:100AC0000000000000000000000000000000000026
:100AD00000000000000000000000000000F0FCFF2B
:100AE0001F07010000C0F0FCFEFFF7F3B1B030308B
:100AF000303030303078FE87010000FFFF00000109
:100B000087FE7830303030303030B0B1F3F7FFFE50
:100B1000FCF0C0000001071FFFFCF0000000000017
:100B200000000000000000000000000000000000C5
:100B300000000000000000000000000000000000B5
:100B400000000000000000000000000000000000A5
:100B5000000000000000000000000000FFFFFF0098
:100B600000000000FEFFFF0101071E78E181838382
:100B700086868C8C9898B1B7FEF8E0FFFFE0F8FE0F
:100B8000B7B198988C8C8686838381E1781E0701A3
:100B900001FFFFFE0000000000FFFFFF000000005B
:100BA000FFFF0000C0C030300000F0F00000000087
:100BB0000000F0F00000F0F0C0C030303030C0C0B5
:100BC00000003030F3F3000000000000303030301F
:100BD0003030C0C00000000000000000FFFFFF0038
:100BE000000000007FFFFF8080E0781E8781C1C188
:100BF0006161313119198DED7F1F07FFFF071F7FDD
:100C0000ED8D191931316161C1C181871E78E08094
:100C100080FFFF7F0000000000FFFFFF00000000DA
:100C20003F3F03030C0C30300000000033333333FC
:100C300033330F0F00003F3F0000000000000000B2
:100C4000000030303F3F303000000C0C3333333382
:100C500033333F3F0000000000000000000F3FFF63
:100C6000F8E0800000030F3F7FFFEFCF8D0D0C0CED
:100C70000C0C0C0C0C1E7FE1800000FFFF000080BC
:100C8000E17F1E0C0C0C0C0C0C0C0D8DCFEFFF7FBC
:100C90003F0F03000080E0F8FF3F0F00000000005E
:100CA0000000000000000000000000000000000044
:100CB0000000000000000000000000000000000034
:100CC0000000000000000000000000000000000024
:100CD0000000000000000000000000000000000014
:100CE00003070F3E7CF8F0E0C0800103070F1E1CD5
:100CF0003C38787070E0E0E1E7FEF8FFFFF8FEE7CF
:100D0000E1E0E0707078383C1C1E0F07030180C0E2
:100D1000E0F0F87C3E0F0703000000000000000038
:100D200000000000000000000000000000000000C3
:100D300000000000000000000000000000000000B3
:100D400000000000000000000000000000000000A3
:100D50000000000000000000000000000000000093
:100D6000000000000000010103070F0E1E1C3C38AC
:100D700078707070E0E0E0E0E0E0E0E0E0E0E0E02B
:100D8000E0E0E0E070707078383C1C1E0E0F070346
:100D90000101000000000000000000000000000051
:100DA0000000000000000000000000000000000043
:100DB0000000000000000000000000000000000033
:100DC0000000000000000000000000000000000023
:100DD0000000000000000000002020202020202033
:100DE000005343524C434B20002020202020202041
:100DF000004341504C434B20002020202020202045
:100E0000004E554D4C434B2000556E646566696E2F
:100E100065640A0041646A7573740A0046756E63FE
:100E200074696F6E0A0053796D0A004E61760A008C
:100E3000436F6C656D616B2D44480A0044766F7298
:100E4000616B0A005157455254590A004C6179654B
:100E5000723A2000726576330A0A004B7972696132
:100E60002000808182838485868788898A8B8C8D07
:100E70008E8F9091929394A0A1A2A3A4A5A6A7A8B7
:100E8000A9AAABACADAEAFB0B1B2B3B4C0C1C2C32E
:100E9000C4C5C6C7C8C9CACBCCCDCECFD0D1D2D39A
:100EA000D40000010101010101010101020202025D
:100EB0000202020202030303030303030304040404
:100EC00004040404050505050506060606060707CD
:100ED00007070708080808090909090A0A0A0B0B85
:100EE0000B0C0C0C0D0D0D0E0E0E0F0F0F10101124
:100EF00011111212131314141515161617171818AA
:100F000019191A1A1B1B1C1D1D1E1E1F2020212211
:100F100022232424252626272829292A2B2C2D2D57
:100F20002E2F30313232333435363738393A3B3C74
:100F30003D3E3F404142434445464748494A4C4D67
:100F40004E4F50515354555658595A5B5D5E5F6130
:100F50006264656668696B6C6D6F707273757778C3
:100F60007A7B7D7E8082838587888A8C8E8F919321
:100F70009596989A9C9EA0A2A3A5A7A9ABADAFB148
:100F8000B3B5B7BABCBEC0C2C4C6C9CBCDCFD1D42D
:100F9000D6D8DBDDDFE2E4E7E9EBEEF0F3F5F8FAD3
:100FA000FDFF00DA1281FFD9F1DB20A4A62EAF00ED
:100FB000A0C0D30000A1C8D30000AED580A83F4098
:100FC0008D142000FD377A585A000004E6D6B44646
:100FD0000200210116000000742FE5A3E005920134
:100FE000785D003D888986D3DC0AE842C3249258A4
:100FF00042597FBD199EB8FF9AB15C1A1E3308454D
:10100000639C1174376FBFEF729718248DD00CE872
:101010000D1B11A7AC767001EF12B1BE189D8F8920
:10102000629290C7EFA9899669F6BD48E89CFD28B1
:101030002591F693619AAC4E0D322FA9EE1A1F2C12
:101040007CDEC23B30427D74BECFFEE4438B43382E
:10105000AB11402AE38FBA4429E3A33AE87277BC84
:1010600008ED8F35335CE2134BFF2AAB8588B7411F
:101070002A5E8C92FCB9D0EC7A62892271B618D6BD
:10108000131E6EA01E57F94981F8DBC9646A6277A6
:10109000FD9D9359FD7384DA6CA94BCB4BC2861D21
:1010A000B954C1E5ECE8782679769B215CD2D1660B
:1010B000A0C46AA4553F9D38F77768F9F0E33AFA7F
:1010C000622DD857EB00638A403E14B9DA1D1DE447
:1010D00098C519E31A967B5E2F0E47D12657AB7839
:1010E000586D2B49085CFF9F104619A0CCB8DEF262
:1010F00086735785C95ABBACD572C0DEA6C0312DE8
:1011000026CCFDA92B11B22947331C5BC18F581A7D
:1011100086B316DE0E9AAC79270E3F0EA886AC4039
:101120004A5197BBC8790CD9CEE18749FFADB13997
:10113000A156785CD99D6661B543733959D931A6FA
:1011400067061AB16634315524177B70FF6993E244
:1011500031097435CA2A9BE53CB4DF00A85A6B0EEE
:101160009F45EEF500019403930B0000F35BA2A1F1
:10117000B1C467FB020000000004595A11241FBECD
:10118000CFEFDAE0DEBFCDBF04B603FE18C080911A
:10119000960990919709A0919809B0919909873083
:1011A000904BA740B04B59F41092960910929709B2
:1011B0001092980910929909E0E0F8E3099512E07D
:1011C000A0E0B1E0E0EFFBE602C005900D92AC3D7F
:1011D000B107D9F729E0ACEDB2E001C01D92A63904
:1011E000B207E1F70E944B290C94AF350C94000034
:1011F0009C01FB019A9581159F4120F5D901AA27F1
:10120000B270832F8170B90166277470A9014427D9
:10121000587034FF0DC08295807FAB2B09F080623F
:10122000672B09F08064452B09F0806809950895C3
:10123000AB2B09F08260672B09F08460452BB1F37A
:101240008860F4CF80E0F2CF982F82958F7088234A
:1012500011F0982F84E0292F26952695222311F04E
:101260008E5F922F969591118F5F0895809352090A
:10127000089580935309089521E030E001C0220FC2
:101280008A95EAF780915309822B0E9439090895C3
:1012900021E030E0A90102C0440F551F8A95E2F712
:1012A000CA0180959091530989230E9439090895B4
:1012B0009B01677091E001C0990F6A95EAF763E0BE
:1012C000369527956A95E1F7B901660F771F260FC6
:1012D000371FFA01E20FF31F40E050E0682F70E083
:1012E0008191DF0111979B01042E02C0369527954D
:1012F0000A94E2F7217021952827292328272C9387
:101300004F5F5F4F4330510559F708959C01A82F57
:10131000A77083E0369527958A95E1F7C901880F74
:10132000991F820F931FFB01E80FF91F40E050E067
:1013300080E0219130E00A2E02C0369527950A946C
:10134000E2F721703327042E01C0220F0A94EAF736
:10135000822B4F5F5F4F4330510559F70895282F77
:10136000862F903F79F0983070F4273058F4622F30
:1013700070E027E0929F600D711D11244DEA58E046
:101380000E94580908959C5F9230E0F7622F70E048
:101390004AEA58E0F5CF903FC9F0983080F48730A2
:1013A000A8F4282F30E06DEA78E0A901E7E09E9FDD
:1013B000400D511D1124CA010E94860908959C5FA9
:1013C000923020F46AEA78E090E0F6CF80E0089569
:1013D0009091530921E030E0F90101C0EE0F8A95A8
:1013E000EAF7D90102C0AA0FBB1F6A95E2F7EA2B00
:1013F00001C0220F4A95EAF7892F8E23E81305C012
:10140000892F822B0E94390908952095822F8923E4
:10141000F9CF8091560990915509981301C008950C
:101420008F5F8770FACF803E9105D1F1C8F4813388
:10143000910509F47FC048F48932910509F46FC021
:101440008A32910509F47DC0089589339105E1F050
:1014500082389105C9F08533910509F45BC0089580
:10146000843E9105D1F148F4823E910531F1833EED
:10147000910541F181EE90E00895863E9105C1F11C
:10148000873E9105E1F1089520919808237021117C
:1014900065C02091990823FF14C089E290E0089567
:1014A0002091980820FD43C03091990830FF09C071
:1014B00024FF4EC080E090E008952091980822FD1E
:1014C000F7CF08952091980822FD45C030919908E2
:1014D00030FD44C024FFF5CFEDCF2091990821FFC6
:1014E000F0CF8091980884FDE5CF87EE90E00895D5
:1014F0002091980823FFE5CF24FDDCCFF6CF209183
:10150000980823FD2EC03091990831FFE3CF84EE77
:1015100090E008952091980825FFD3CFBECF209169
:10152000980825FD21C02091990823FFCACF89E39F
:1015300090E008952091980826FFC3CF8AE290E0BA
:1015400008952091980826FFBCCF81E390E008958C
:1015500083EE90E0089582EE90E0089580EE90E0B2
:10156000089586EE90E0089585E390E0AACF9091EB
:10157000980892FF10C041E0282F2471243009F010
:1015800040E031E0282F2871283009F030E043177F
:1015900011F02CE0822793FF10C041E0282F247126
:1015A000243109F040E031E0282F2871283109F07A
:1015B00030E0431711F02CE082273091990830FF7A
:1015C00010C051E0282F2171213009F050E041E096
:1015D000282F2871283009F040E0541711F029E035
:1015E000822731FF10C041E0282F2171213109F0FD
:1015F00040E031E0282F2871283109F030E043170E
:1016000011F029E0822794FD877E08951F93CF93E0
:10161000DF930E94130AEC01811520E5920708F080
:1016200048C0811540E4940708F0C2C0803E91058F
:10163000E0F0811550E2950798F18D2F8F710E948F
:10164000B70A182FCE0199270E94130A212F30E0E4
:10165000322F222722273F71282B392BE901D06214
:10166000CE01DF91CF911F9108958D3C910508F037
:101670008BC0883A910560F4853A910508F076C0F0
:101680008130910569F30497813A910548F305C0CB
:10169000885A91094B9708F46CC0C0E0D0E0E0CFC5
:1016A0008F3F910511F008F071C0805E9109079796
:1016B000EDCFC03682E5D80738F5C03422E5D20731
:1016C00008F093C0C03242E5D40738F0CF71D0E0C3
:1016D000DC2FCC27C16FD06AC3CF8C2FC11552E548
:1016E000D50708F06EC08F710E94B70A282F30E02E
:1016F00084FD9CC085E0D695C7958A95E1F7CF70AB
:101700003C2BE901D069ACCFC03C82E5D80708F595
:10171000C03A22E5D20708F07EC0CE01805692453D
:10172000809708F0BACF8C2F86958695877050E207
:10173000859FC0011124C37021E030E0A90102C0DF
:10174000440F551FCA95E2F7EA01C82BD92BDA6876
:1017500087CFCE01805C9245809708F09ECFDC2F2A
:10176000CC27CC27DF71C06FD06A7ACFA497D06422
:1017700077CFC85AD0E0CC0FDD1FCB55DD4F099095
:10178000D881C02DD4646CCFD0656ACF8D2F0E94D4
:10179000B70A182FCE0199270E94130A212F30E093
:1017A000322F2227E901CC27DF71C82BD92B58CF44
:1017B00099270E94130ACC27DF70C82BD92BD06A37
:1017C0004FCF8695869540E2849FC0011124C37057
:1017D00021E030E0A90102C0440F551FCA95E2F78D
:1017E000EA01C82BD92BDD683BCF8C2F86958695D7
:1017F000877050E2859FC0011124C37021E030E062
:10180000A90102C0440F551FCA95E2F7EA01C82B8F
:10181000D92BDC6825CF8C2F8F710E94B70AC82F77
:10182000D0E0DC2FCC27CC27DF711ACF94E0220F39
:10183000331F9A95E1F75ECF80E00895F894E82F82
:10184000E295EF70F0E041A18F7021E030E0B90146
:1018500002C0660F771F8A95E2F7CB01962F90950D
:10186000942391A392A1892B82A378940895FF9247
:101870000F931F93CF93DF93182F062FF42EC0E002
:10188000D0E02F2D402F612FCE010E94090D21960F
:10189000CE33D105B1F7CDB7DEB7E5E00C94E43433
:1018A0009DE0899F802D1124980F9F3308F09EE3BF
:1018B00020919308211104C08F3128F48FE10895FD
:1018C000903208F09FE10895962F80914909837026
:1018D000882351F0846080934909109265016091DA
:1018E0004809692B60934809089561E081E00E94EE
:1018F000640C089590914909969596958FEF890FFC
:10190000913009F481E061E00E94640C0895922F07
:10191000209149092370222371F080934A09609332
:101920004B09413808F040E840934C0920914809A0
:10193000292B209348090895E9E4F9E0818190E09A
:1019400021E04381628108960E94870C0895E9E4B2
:10195000F9E0818121E0438162818850990B0E94E6
:10196000870C0895E9E4F9E0628120E1620F08F450
:101970006FEF818121E0438190E00E94870C089500
:10198000E9E4F9E0628120E1621B08F460E0818112
:1019900021E0438190E00E94870C0895E9E4F9E09A
:1019A000438120E1420F08F44FEF818121E0628101
:1019B00090E00E94870C0895E9E4F9E0438120E17A
:1019C000421B08F440E0818121E0628190E00E94A6
:1019D000870C0895E9E4F9E0248130E1230F08F44D
:1019E0002FEF2483809148098160809348090895EE
:1019F000E9E4F9E0248130E1231B08F420E02483AA
:101A000080914809816080934809089510921804D4
:101A10000895FC0180919308811123C0EF31F105F5
:101A20001CF17F97CF01880F991FDC01AE0FBF1FFC
:101A3000A25ABC4F11963C911197361307C03C91A6
:101A4000341304C012963C91321771F031E0309398
:101A50001804E80FF91FE25AFC4F61834083228388
:101A600003C0EF31F105F4F20895FA01882311F073
:101A700009950895FB01FCCF81152CE7920741F4ED
:101A80002091550830915608232B11F480E090E006
:101A90000895E0EDF8E080E090E06AE274E241E56C
:101AA00054E226EC34E2768365835087478332879D
:101AB00021879687858701963F968830910599F70B
:101AC0000895FC01680F791F8FEF91E3E617F70780
:101AD00009F408952191822728E030E087FF08C0AB
:101AE000880F89272150310921153105B9F7EECF2B
:101AF000880FF8CFFA01309709F009950895809181
:101B00009208882359F0E091A008F091A10830973D
:101B100029F00190F081E02D0995089580E0089565
:101B2000A3E0B0E0E6E9FDE00C94CB349C018091A9
:101B300012039091130382179307A1F030931303BC
:101B400020931203E091A008F091A108309751F082
:101B500083E089833B832A830084F185E02DCE01D5
:101B6000019609952396E2E00C94E734A3E0B0E0F7
:101B7000ECEBFDE00C94CB349C0180911003909130
:101B8000110382179307A1F03093110320931003E0
:101B9000E091A008F091A108309751F084E089838A
:101BA0003B832A830084F185E02DCE0101960995BF
:101BB0002396E2E00C94E734A4E0B0E0E2EEFDE02E
:101BC0000C94CB348FB7F89420910C0330910D0313
:101BD00040910E0350910F0329833A834B835C831A
:101BE0008FBF69817A818B819C812496E2E00C947D
:101BF000E734A4E0B0E0EFEFFDE00C94CB3480914B
:101C00009208882371F00E94DC0D69837A838B83AC
:101C10009C8369817A818B819C812496E2E00C947B
:101C2000E7340E94DC0D69837A838B839C838091E7
:101C3000940890919508A0919608B09197082981F1
:101C40003A814B815C81280F391F4A1F5B1F298312
:101C50003A834B835C83DDCF0E94F90D0895A4E0A5
:101C6000B0E0E5E3FEE00C94C934462F572FBC01E9
:101C70002FB7F89480910C0390910D03A0910E035F
:101C8000B0910F032FBF8C019D01041B150B260B78
:101C9000370BC901B8012496E4E00C94E534809137
:101CA0000B03089508950895FC019B0180910103A1
:101CB000909102038617970740F0672B29F48091D3
:101CC000E8008E778093E800C90140E0009741F476
:101CD000411106C08091E80082FF2FC080E0089586
:101CE000209157082223A9F12530A9F12091E8007D
:101CF00023FD2DC02091E80022FDECCF2091E800CB
:101D000020FFE4CF3091F3002091F200009719F00A
:101D10002830310558F041E02830310509F040E025
:101D20002091E8002E772093E800D0CF4191409396
:101D3000F10001972F5F3F4FE9CF8091570888232B
:101D400041F0853041F08091E80083FFC3CF81E00E
:101D5000089582E0089583E008958091FB0287FF53
:101D600013C08091E80082FF06C08091E8008B7765
:101D70008093E80004C0809157088111F2CF089544
:101D8000809157088823D9F38091E80080FFF8CF2D
:101D90008091E8008E77ECCF2091E4003091E5004F
:101DA00095E6A9018091EC008170882331F0809143
:101DB000E80080FF06C080E008952091E80022FD41
:101DC0001BC080915708882391F0853091F0809155
:101DD000EB0085FD10C02091E4003091E500421732
:101DE000530701F391509111DCCF84E0089582E014
:101DF000089583E0089581E00895E8EDF0E08081A2
:101E00008E7F80831092E2001092DA001092E1003F
:101E1000A0EEB0E08C9181608C9380818F7780837D
:101E200019BCA7EDB0E08C918E7F8C9380818F7E62
:101E300080831092FA020895982FE42FE270909315
:101E4000E900891308C0762F242F50E0E11111C05A
:101E500091E0980FF4CF7091EC002091ED0050913B
:101E6000F00021FD06C09F5F973049F78093E9009D
:101E700008953091EB003E7F3093EB003091ED0000
:101E80003D7F3093ED003091EB0031603093EB00FB
:101E90007093EC002093ED005093F0002091EE0041
:101EA00027FDE1CF0895A0E0B0E0E9E5FFE00C9464
:101EB000C534C8EDD0E088818F7E8883E7EDF0E0FF
:101EC00080818160808384E082BF81E08093FA0218
:101ED00088818E7F888302EE10E0F80110821092D4
:101EE000DA0081EEC82ED12CF601108288818F771E
:101EF000888388818068888388818F7D888319BCE6
:101F0000109257081092F902109238081092F802B5
:101F100090EEE92EF12CF70180818B7F8083888100
:101F20008160888342E060E080E00E941C0FF6013F
:101F300080818E7F8083F8018081816080838081B1
:101F400088608083F70180818E7F808388818061B3
:101F50008883CDB7DEB7E8E00C94E134E091560910
:101F60009091550927E0E91302C080E00895AE2F53
:101F7000B0E02E9FF0011124E95AF64F318136135B
:101F800006C03081381303C03581341304C0FD010D
:101F90003196E770E8CF81E0089580911804882396
:101FA00041F1539A3BB1377F2BB128604FB7F8947A
:101FB0008EE593E0FC010196508168E02BB90000AA
:101FC00000C057FF3BB9550F000000C000C000C063
:101FD0003BB900C06A9591F754E08831950751F7F5
:101FE0004FBF8FE594E00197F1F700C00000109219
:101FF0001804089581E08093E00080E28093D80087
:102000001092C9008FE19EE40197F1F700C0000033
:1020100087E090EBDC018093960990939709A09359
:102020009809B093990988E19CE00FB6F894A895B7
:10203000809360000FBE90936000FFCF0F931F93BB
:10204000CF93DF93EB018A0190915708943079F593
:102050008093E9008FEF9091E80095FD07C095ED22
:102060009A95F1F7000081508111F5CF8091E80039
:1020700085FF1DC00E94CC0E811114C08091E80024
:1020800085FD06C08091E8008E778093E800F2CF4E
:1020900088818093F100015011090115110511F09B
:1020A0002196ECCF8091E8008E778093E800DF9155
:1020B000CF911F910F910895CF93DF93D82FC92F00
:1020C00048E050E0682F792F81E00E941E1088E0E0
:1020D000ED2FFC2FA3E0B3E001900D928A95E1F77C
:1020E000DF91CF910895BC0143E050E084E00E946D
:1020F0001E100895A0E0B0E0E0E8F0E10C94C334D5
:10210000F82EE92EB62EA72E8A018091F602CC2455
:10211000C394D12C8A3018F48AE0C82ED12CC1E0A7
:10212000D0E06B2D7A2D8F2D9E2DF8010995811110
:1021300016C02196CC16DD0694F0CC9FC001CD9F31
:10214000900D900D112420E030E045E34A95F1F721
:1021500000002F5F3F4F28173907B9F7E2CFCDB7FF
:10216000DEB7EAE00C94DF340F931F93CF93DF9335
:10217000843030F5683020F5473010F5C42FD0E0BA
:10218000CC0FDD1F2EE0629FC00DD11D112430E762
:10219000839FC00DD11D1124CE0189960E94553513
:1021A000082F10E0102F0027CE018A960E94553587
:1021B0009801282BC901DF91CF911F910F910895AC
:1021C00080E090E0F8CF0F931F93CF93DF9384309C
:1021D00078F5623068F528E0829F8001112434E0B0
:1021E000639FB0011124060F171F07511E4FC8012E
:1021F0004423A1F00E945535C82FD0E0DC2FCC2716
:1022000081E090E0800F911F0E9455359E01282BA0
:10221000C901DF91CF911F910F91089502960E94FD
:102220005535C82FD0E0DC2FCC2783E090E0EACFF3
:1022300080E090E0EECF20919C0830919D08232B08
:10224000D9F4703F39F4603FB9F480919A089091C5
:102250009B080895783048F4673070F4843060F457
:10226000462F672F0E94B41008957D3F41F46230DD
:1022700018F441E0843050F080E090E008957C3F15
:10228000D9F76230C8F78430B8F740E00E94E31015
:102290000895A0E0B0E0EFE4F1E10C94C6347C01D5
:1022A0000091530980915209082BC3E0D0E010E05F
:1022B000C8010C2E02C0959587950A94E2F780FD1F
:1022C00009C02197A8F7D12C8D2DCDB7DEB7E7E057
:1022D0000C94E234DC2EB7018C2F0E941B110E945B
:1022E000060B019771F3F0CF0F931F93CF93FC016F
:1022F000858100811181882391F0662381F0C801D6
:102300000E944911C82F682FC8010E94AF09B80167
:102310008C2F0E941B11CF911F910F910895C8011E
:102320000E94CB09C82FF3CFCF93DF93D82FC92FAB
:102330000E9449116D2F7C2F0E941B110E94060BD9
:10234000DF91CF910895FC0184818823A1F08081E1
:1023500091810E949411282F92959F70963091F050
:1023600060F4925F9F70923030F481E0203F79F00A
:1023700030F4283E30F080E004C09A5FF3CF243F71
:10238000D1F7089581E0283E18F0213FF9CF089554
:10239000089585E290E00E9455358C3B89F486E2F1
:1023A00090E00E945535803559F487E290E00E9414
:1023B000553591E0833509F090E0892F81700895BB
:1023C00080E0FCCF8091510990915409892B809332
:1023D000DE0248E050E062EA78E08EED92E00E9492
:1023E0002835892BA9F088E0EEEDF2E0A2EAB8E00A
:1023F00001900D928A95E1F7E091A008F091A10873
:10240000309731F00280F381E02D8EED92E0099556
:10241000089510925109E0EEF2E086E0DF011D928E
:102420008A95E9F780E090E00E94900D80E090E0CE
:102430000E94B60D109254090E94E21108950E9464
:1024400009122FEF84E39CE0215080409040E1F797
:1024500000C0000088E19CE00FB6F894A895809336
:1024600060000FBE90936000FFCFAAE2B0E0EBE304
:10247000F2E10C94CA348BEF92E0FC0101962091BA
:10248000F100208323E083309207B9F78091FC02AA
:10249000893009F456C0C8F4823009F4B3C08330DF
:1024A00009F482C0813071F18091E80083FFE7C0B8
:1024B0008091FB029091FC029A3008F0E0C0E92F75
:1024C000F0E0EF54FA4C0C9412358A3009F489C0CC
:1024D0008B3051F78091FB02813231F78091FF02FE
:1024E00090910003892B01F78091E800877F80930A
:1024F000E8000E94AD0E8091FD02809300010E94D1
:102500000912D2CF8091FB02813A71F68091E800E6
:10251000877F8093E8008091FF0290910003892BD0
:1025200061F060E080E090E070E00E94540E8091E5
:10253000E8008B778093E800B7CF68E083E093E012
:10254000F3CF8091FB02813209F0AECF8091FF0280
:10255000909100038D7F892B09F0A6CF8091E80030
:10256000877F8093E8008091E80082FF18C09091F7
:10257000F3008091F200029731F48091F1008130F4
:1025800011F0863021F48091F10080930B0380914B
:10259000E8008B778093E8000E94AD0E85CF809194
:1025A00057088111E0CF80CF8091FB02813A09F07A
:1025B0007BCF8091FF0290910003892B09F074CFAB
:1025C0008091E800877F8093E8008091E80080FF99
:1025D000FCCF809100018093F1008091E8008E771C
:1025E000D9CF8091FB02813209F05ECF8091E80063
:1025F000877F8093E8000E94AD0E8091FE02809359
:10260000F70252CF8091FB02813A09F04DCF8091C1
:10261000E800877F8093E8008091E80080FFFCCF8E
:102620008091F702D8CF803889F0823841F58091C7
:10263000FF028F70873018F58093E9008091EB00DE
:1026400085FB882780F91092E90006C08091F80286
:1026500090913808911182609091E800977F909353
:10266000E8008093F1001092F1008091E8008E77ED
:1026700023C0811116C08091FD02813011F180913B
:10268000E80083FF0AC08091E800877F8093E8001C
:102690008091EB0080628093EB00AA96E3E00C94BB
:1026A000E634823061F78091FD02882389F0109230
:1026B000E9008091E800877F8093E8000E94AD0EDA
:1026C000DECF81E0933009F080E080933808EFCFCF
:1026D0008091FF028F702FEF280F263080F68093B5
:1026E000E9002091EB0020FFE2CF933031F480919C
:1026F000EB0080628093EB00DACF9091EB00906169
:102700009093EB0021E030E0A90102C0440F551F77
:102710008A95E2F74093EA001092EA008091EB007C
:102720008860E8CF8111ABCF1091FD021F778091B7
:10273000E3008078812B8093E3008091E800877F1D
:102740008093E8000E94AD0E8091E80080FFFCCFEE
:102750008091E30080688093E30083E0111101C061
:1027600082E0809357088BCF8058823008F087CF63
:102770004091FD025091FE024C3D83E0580799F5CF
:1027800083E08A838AE289834FB7F894DE01139647
:1027900020E03EE051E2E32FF0E0509357008491B7
:1027A00020FF03C082958F703F5F8F708A30C8F022
:1027B000895C90E08D939D932F5F243161F74FBF2B
:1027C0008091E800877F8093E8006AE270E0CE01A4
:1027D00001960E94540E8091E8008B778093E80068
:1027E0004ECF805DE6CF8091FF0290910003252FB0
:1027F00033272330310509F44AC078F521303105FB
:1028000009F483C08BE590E0E8E3F7E0223031057E
:1028100009F035CF2091E800277F2093E800209130
:102820000103309102038217930708F49C0140E0F2
:102830002115310509F06EC041116CC08091E8008E
:1028400082FDC9CF80915708882329F2853019F27B
:102850008091E80083FFF2CFBECF2132310509F429
:1028600045C02232310509F00ACF8330910508F0C6
:1028700006CFFC01EE0FFF1FEF57FE4F0190F081D6
:10288000E02D82589E4FDC018C9190E010C0CA016F
:102890009927423019F18330910568F4892BB1F4FE
:1028A000E5EFF7E0E4918E2F90E0E5EFF7E0009799
:1028B00009F4E5CEAFCF039709F0E1CEE5EAF7E002
:1028C000E4918E2F90E0E5EAF7E0F1CFEBEDF7E051
:1028D000E4918E2F90E0EBEDF7E0E9CFE3ECF7E049
:1028E000E4918E2F90E0E3ECF7E0E1CF83309105A7
:1028F00008F0C5CEFC01EE0FFF1FE957FE4F019017
:10290000F081E02D89E090E085CF82E190E0E3E97D
:10291000F7E080CF80915708882309F45CCF853099
:1029200009F459CF8091E80083FD55CF8091E800EC
:1029300082FD84CF8091E80080FF7ACF9091F300F0
:102940008091F2002115310519F08830910550F081
:1029500041E0089709F040E08091E8008E7780938D
:10296000E80066CF44914093F1003196215031093F
:102970000196E8CF803809F082CE8091E800877F09
:102980008093E8008091F9028093F1006ECE81116E
:1029900076CE1091FD02123008F071CE8091E800E1
:1029A000877F8093E8001093F9020E94AD0E1123F7
:1029B000D1F084E08093570842E061EC81E00E940E
:1029C0001C0F42E261EC84E00E941C0F42E261ECC9
:1029D00082E00E941C0F42E260EC83E00E941C0F28
:1029E000809157084CCE8091E30087FDE2CF81E0D3
:1029F000E1CF0F931F93CF93C82F882339F18CEF2A
:102A00008C0F813AB0F500EE12E0F8018191C81701
:102A100009F122E0E63EF207C9F7EFEF80E0D801C6
:102A20009D918D01C91781F0EF3F19F4911101C0FB
:102A3000E82F8F5F863099F7EF3F31F00E2E000CB4
:102A4000FF0BE252FD4FC2830E94E211CF911F9112
:102A50000F910895E0EEF2E08191C81303C0DF0109
:102A600011971C9232E0E63EF307B1F70E94E211A3
:102A7000D4CF80E28C0F883068F4C77081E090E09A
:102A800001C0880FCA95EAF7C0915109C82BC093BD
:102A90005109DACF8BE58C0F833038F42C2F245278
:102AA000330BC9010E94900DD1CFC85ACB3170F6BB
:102AB000EC2FF0E0EE0FFF1FEB55FD4F8081918171
:102AC0000E94B60DC3CF8823C1F19CEF980F913AB5
:102AD00078F4E0EEF2E09191891303C0DF011197E1
:102AE0001C9242E0E63EF407B1F70E94E21108951D
:102AF00090E2980F983088F4877021E030E0A901C7
:102B000002C0440F551F8A95E2F7CA018095909143
:102B10005109892380935109E8CF9BE5980F9330A1
:102B200028F480E090E00E94900D0895885A8B313F
:102B300020F480E090E00E94B60D08951F93CF939B
:102B4000DF93182FEB010E94F914209739F4812F9D
:102B50000E946315DF91CF911F9108958FE99FE047
:102B60000197F1F700C000002197EFCFA0E0B0E09F
:102B7000ECEBF5E10C94C434EC018881882309F472
:102B8000BBC0813009F042C099818A81913051F4F3
:102B9000229660E070E0893311F460E570E00E94F5
:102BA0009E1505C0923029F422960E94F9142196B0
:102BB000E4CF933021F422960E946315F8CF94302D
:102BC00011F02196F4CF229620E030E06AE0AE01C9
:102BD0004F5F5F4F8053990B8A30910560F021154C
:102BE000310529F38FE99FE00197F1F700C000005C
:102BF00021503109F4CF629FF001639FF00D112441
:102C00009C012E0F3F1F8981EA01E1CFE82FF0E000
:102C1000E854F94FB490282F26952695269530E054
:102C2000F901E855F94FE4908770F12C082E02C0A5
:102C3000F594E7940A94E2F791E0E922FF24F90180
:102C4000E856F94FC490D12C082E02C0D594C794F1
:102C50000A94E2F791E0C922DD24F901E857F94F1F
:102C6000049110E002C0159507958A95E2F701706E
:102C70001127E114F10499F4C114D10449F589E351
:102C8000B81611F160E070E08B2D0E949E150115C1
:102C9000110509F48CCF60E070E08CE280CF81EE0A
:102CA0000E94F914C114D10499F499E360E070E032
:102CB0008B2DB91203C060E570E089E30E949E1578
:102CC00081EE0E946315E3CF60E570E089E3DDCF1C
:102CD00086EE0E94F91489E360E570E0B81619F0F9
:102CE00060E070E08B2D0E949E1586EE0E946315B9
:102CF000E114F10429F7CBCFCDB7DEB7E9E00C94AE
:102D0000E034882339F090915109892B809351093F
:102D10000E94E2110895882341F080959091510915
:102D20008923809351090E94E2110895882339F084
:102D300090915409892B809354090E94E2110895BF
:102D4000882341F0809590915409892380935409F8
:102D50000E94E2110895CF93DF93EC0149855A85D3
:102D60006D857E850E947A0D9B8190958091540996
:102D70008923809354090E94E21185E0FE0111929B
:102D80008A95E9F7DF91CF910895CF93DF93EC0116
:102D90008C8181FD11C082608C83809154099B815C
:102DA000892B809354090E94E2114F8158856D85CB
:102DB0007E85CE010E947A0D1092CD081092CC082B
:102DC0008C8180FD03C0CE010E94AB16DF91CF91B4
:102DD000089548E050E068E170E089E499E00E94DD
:102DE0006335109248090895E9E4F9E085E08083AD
:102DF0008091660190916701A0916801818392831F
:102E0000A3838FE784838FEF85830E94E91608955B
:102E10001F93CF93DF93962F122F632F8430D8F414
:102E20009830C8F44730B8F4C42FD0E0CC0FDD1F81
:102E30002EE0929FC00DD11D112490E7899FC00DF7
:102E4000D11D1124CE0189960E947335612FCE01C8
:102E50008A960E947335DF91CF911F9108951F9339
:102E6000CF93DF93962F122F632F8430D0F49230BC
:102E7000C0F428E0829FE001112424E0929FC00169
:102E80001124C80FD91FC751DE4FCE01442369F06A
:102E90000E94733581E090E0612F8C0F9D1F0E948E
:102EA0007335DF91CF911F91089502960E9473357B
:102EB00083E090E0F1CFCF93DF93C9E5D2E060E00B
:102EC000CE010E9473352196C11584E0D807B9F769
:102ED000DF91CF910895882381F06CEB85E290E03B
:102EE0000E94733560E586E290E00E94733563E5E9
:102EF00087E290E00E94733508956FEF85E290E0DD
:102F00000E9473356FEF86E290E00E9473356FEF99
:102F1000EFCFA0E0B0E0EFE8F7E10C94C534FA01A0
:102F200069017801C82F880FDD0B3097B1F0DE0101
:102F300093E0AA0FBB1F9A95E1F7AB5DBE4F1196C8
:102F40008D919C9112978758974F4C9150E0E417C0
:102F5000F50708F4AF010E943535CE010E943234E6
:102F6000182F8823D1F0E114F104B9F083E0CC0FDD
:102F7000DD1F8A95E1F7FE01EB5DFE4F438150E0D6
:102F8000E416F50608F4A701CB5DDE4F6C817D8168
:102F90006758774FC6010E943535812FCDB7DEB710
:102FA000E8E00C94E134A5E0B0E0E9EDF7E10C9441
:102FB000BF34762E6A014901580101E010E09E01FC
:102FC0002F5F3F4F40E050E060E070E00E948917C3
:102FD000182F8823B9F1D6018D919D910D90BC9148
:102FE000A02DBC01CD010E942F0E698064367105B1
:102FF0008105910530F4B701C5010E94610D861568
:1030000009F18701940140E050E060E070E0872D15
:103010000E948917182FB701C5010E94610D8615FE
:1030200031F010E0812F2596EEE00C94DB34117026
:103030001123C1F30E94DC0DF6016083718382834A
:103040009383F0CFA701B501C4010E943535EACFC3
:10305000A4E0B0E0EEE2F8E10C94C5346B0184E04A
:10306000E82EF12C0AE718E09E012F5F3F4F45E75D
:1030700058E061E080E00E94D317882361F0498125
:103080005A816B817C8140937108509372086093E0
:1030900073087093740840917108509172086091A0
:1030A000730870917408F6014083518362837383BF
:1030B0002496E8E00C94E134AAE0B0E0E2E6F8E11E
:1030C0000C94C334F82E6D837E83A42ED22EE32E6F
:1030D000B02EC12EAD81BE818D919D910D90BC9180
:1030E000A02DBC01CD010E942F0E64367105810513
:1030F000910510F4AA20A9F000E010E020E030E0F3
:103100004B2D5C2D6D2D7E2D8F2D0E9489178823D0
:1031100049F00E94DC0DED81FE8160837183828322
:10312000938381E02A96EAE00C94DF34A9E0B0E0D2
:10313000ECE9F8E10C94C93488E0E9E4F9E08E01A7
:103140000F5F1F4FD80101900D928A95E1F7198604
:1031500049E050E068E878E0C8010E94283541E085
:103160009801892B09F440E009E010E06DE578E072
:1031700086E00E945C182996E4E00C94E5340F93F5
:103180001F93CF93DF93D82FC92F44E050E06EE711
:1031900078E00E94283541E0892B09F440E004E002
:1031A00010E02D2F3C2F6DE678E082E00E945C1845
:1031B000DF91CF911F910F910895A1E0B0E0E3EE70
:1031C000F8E10C94C93480915808898320919108C2
:1031D00030E090E041E02817390709F440E001E0D1
:1031E00010E09E012F5F3F4F69E578E087E00E9485
:1031F0005C182196E4E00C94E534A8E0B0E0E3E04C
:10320000F9E10C94C9348091610890916208A09111
:103210006308B0916408BC01CD010E942F0E11E03B
:10322000643671058105910520F10E94F90DDC01DC
:10323000CB010296A11DB11D89839A83AB83BC8308
:1032400000E010E020E030E044E050E0BE016F5FBD
:103250007F4F85E00E948917182F882351F00E9424
:10326000DC0D60936108709362088093630890930B
:103270006408812F2896E4E00C94E534AAE0B0E0DD
:10328000E4E4F9E10C94BE34A0905508B0905608DF
:1032900081E090E0909356088093550839EBE32E37
:1032A00039E0F32EC12CD12C10E0360100E015C01E
:1032B000F40125913491452D602F812F0E9408172C
:1032C00022E0820E911C539437E05312F1CF87E035
:1032D000680E711C0F5F083049F0C301880F991FF9
:1032E0009C012750384F4901512CE2CFF70125911D
:1032F000349141E060E0812F0E942F17F701329650
:103300002591349140E060E0812F0E942F17F70152
:1033100034962591349141E061E0812F0E942F176E
:10332000F70136962591349140E061E0812F0E94AB
:103330002F1738E0E30EF11C1F5F88E3C80ED11C85
:10334000143009F0B2CF1A8219821C821B821E82AD
:103350001D8218861F8288EC90E09A87898709E091
:1033600012E04AE050E0B801CE0101960E94973584
:10337000065F1F4F093522E0120799F7B0925608F1
:10338000A09255082A96EFE00C94DA3480E00E946F
:103390006B1760E088E290E00E9473350E943E194E
:1033A0000E945B1781E00E946B170895A8E0B0E0CF
:1033B000ECEDF9E10C94CB3466EE7EEF80E090E02A
:1033C0000E94913560E082E090E00E94733581E0D8
:1033D0008093520961E083E090E00E94733560E0E1
:1033E00074E184E090E00E94913560E086E090E036
:1033F0000E9473356FEF87E090E00E94733540E0E4
:1034000050E0BA0188E090E00E94853560E084E2F7
:1034100090E00E94733560E087E190E00E94733590
:1034200060E08CE090E00E94733560E08DE090E019
:103430000E94733519821A821B821C821D821E8291
:103440001F82188648E050E068E170E0CE010196E6
:103450000E94633540E050E0BA0180E290E00E94B3
:10346000853580E00E946B170E94C61940E050E04D
:10347000BA018FE090E00E94853540E050E0BA014B
:1034800083E190E00E9485352896E2E00C94E734D1
:10349000282FCB01283070F44AE0249F900111249A
:1034A000B901675F7D4F4AE050E00E94453580E0FA
:1034B00090E008958FEF9FEF0895AAE0B0E0E3E673
:1034C000FAE10C94CB349C0197558F3F910509F09C
:1034D00070F4BE016F5F7F4F822F0E94481A892BC4
:1034E00031F489859A852A96E2E00C94E73488ECD9
:1034F00090E0F9CFA8E0B0E0E0E8FAE10C94C23443
:103500000E94F90D6093190470931A0480931B04B0
:1035100090931C0420914909322F3370398333234F
:1035200021F0C22EC694C694C98230916501323012
:1035300009F419C180F4311115C010920A01609389
:103540001D0470931E0480931F049093200481E057
:103550008093650103C0333009F40EC12896EBE077
:103560000C94DE3480910901D980D8122AC02370CE
:10357000822F90E04091080150E021E084179507E8
:1035800009F420E0822F817080930C0180914E0914
:1035900090910B01981739F080930B0140E060E0A7
:1035A00080E00E94370CC980CC2069F0A0900A010D
:1035B0002C2D213029F181E08A0D80930A0182E0CF
:1035C000C7CF81E0E0CF80910C01811107C08091CD
:1035D0000A018F5F80930A0183E0BACF40E060E088
:1035E00080E00E94370C80910A018F5F80930A016E
:1035F00082E08093650180910C018111AFCFECCF07
:103600008A2D0E94500C982E092F20914B09E09191
:103610004C09F0E0EE55F14F211118C0E491E98317
:103620001E2FED83E92CF12CE01608F486C0809162
:103630009308882309F494C081E00F3108F080E0FA
:10364000A394A0920A01811189CFB9CFC0904A09F1
:10365000D12C30E0B490B98286E08C9D70018D9DB4
:10366000F00C1124EFEFF0E0C701BF010E94A73476
:10367000CC0CDD1C45E5469FC001479F900D1124F1
:10368000C81AD90A8C2D880F8C0DDF01A21BB30B31
:10369000BA9EA001BB9E500D1124152F829FD00110
:1036A000839FB00D1124AB2FBB276F01CA1ADB0A11
:1036B000D601BA9E6001BB9ED00C1124DD82DF01D1
:1036C000A81BB109CD01829FD001839FB00D929FAD
:1036D000B00D1124AB2FBB279F012A1B3B0BB29EC1
:1036E000C001B39E900D112463307105C9F03CEF09
:1036F000E31633E0F30650F46130710509F492CF1C
:103700006230710589F0BD8299838CCF6430710578
:1037100071F06630710571F059831D2DBD8282CF25
:10372000D9825D831B2D7ECF5D83192F7BCF9D8337
:103730005983F8CFC980CD82E7CFF701EF5AFD4F0B
:10374000808190910B018923882331F0212F4981B9
:103750006D81C7010E94090D2FEFE21AF20A64CFB2
:1037600081E00D336BCFC980C09209012370209393
:1037700008010E94CD0F30CF8091480981110E942D
:10378000E91680911D0490911E04A0911F04B09130
:10379000200489839A83AB83BC8380919208882319
:1037A00091F069817A818B819C810E942F0E462F36
:1037B000572FBC01403151056105710508F4CECE8B
:1037C00010926501CBCE0E94F90DAB01BC0189813D
:1037D0009A81AB81BC81481B590B6A0B7B0BEACFEA
:1037E000CF93DF93682F80912D0490912E046A303F
:1037F000B9F4209135088F529440622F70E00E94F6
:10380000A734281B822F66E00E94F234C82FC150D3
:1038100018F4DF91CF91089580E20E94F01BF7CF5A
:103820006D30F9F49C012F52344040913508642FDB
:1038300070E0C9010E94A734481B842FA901480FDA
:10384000511D4115544018F080E020E030E0820F17
:10385000932F911D815D9B4F90932E0480932D0497
:10386000D8CF26E0FC01A0EFB2E001900D922A959E
:10387000E1F7603E08F458C026E0FC0111922A9559
:10388000E9F7C0912D04D0912E0446E050E0BE012E
:1038900080EF92E00E9428359E012F523440892B00
:1038A00041F1C90146E0969587954A95E1F741E0D7
:1038B00050E0BA0102C0660F771F8A95E2F7CB018C
:1038C00060912B0470912C04862B972BB9016B5FB0
:1038D0007F4FE6E076956795EA95E1F702C0440FE1
:1038E000551F6A95E2F7842B952B90932C048093B7
:1038F0002B042A5F3F4F40913508642F70E0C901C7
:103900000E94A734481B463010F4240F311D2115A6
:1039100074E0370710F020E030E0215D3B4F30933A
:103920002E0420932D0475CFF6E06F9FB001112473
:10393000685B7E4F46E050E00E941F35A2CFCF93D8
:10394000DF93EC01FE018491811103C0DF91CF91DF
:1039500008950E94F01B2196F5CFA0E0B0E0E3EBC4
:10396000FCE10C94C5347C016B0164E670E088E7EF
:103970000E94F331EC0197FD12C000E010E0F70166
:10398000E00FF11F849164E670E00E946232EC0166
:103990000F5F1F4FC016D10611F097FFF0CF0E94A6
:1039A000E43281E0CD2B09F080E0CDB7DEB7E8E06E
:1039B0000C94E13480913008882369F08091580894
:1039C000882349F062E070E086E491E00E94AD1C3B
:1039D0008111109258080895A4E0B0E0E2EFFCE1F4
:1039E0000C94CB34809130088823F9F00E94DC0DD0
:1039F000DC01CB01805A9541AF4FBF4F8093310816
:103A000090933208A0933308B093340880915808FB
:103A100081110BC062E070E084E491E00E94AD1C73
:103A2000882319F081E0809358082496E2E00C94F2
:103A3000E7341F921FB61F9211248F939F93AF9369
:103A4000BF9380913708811113C080910C0390912E
:103A50000D03A0910E03B0910F034196A11DB11D5E
:103A600080930C0390930D03A0930E03B0930F0368
:103A7000BF91AF919F918F911F901FBE1F9018957E
:103A80002FB7F89480910C0390910D03A0910E0331
:103A9000B0910F032FBF0895A6E0B0E0E2E5FDE18D
:103AA0000C94C9348C0190939B0880939A0801155B
:103AB00080E21807B0F4802F0E946315C801805E71
:103AC0009109089728F060EA76E10115110511F4D3
:103AD0006BE876E1C8010E94F8082696E4E00C94B1
:103AE000E53480EF89838A830E94401D8160BC0198
:103AF00049815A8181E090E00E944E23EECFCF931E
:103B0000DF93D82FC92F0E94F7238D2F9C2F0E945F
:103B10004C1DDF91CF910895A4E0B0E0E2E9FDE112
:103B20000C94C5347C01DC0114968C91882309F433
:103B3000EFC161E0C7010E9474118C01F70185811A
:103B4000882309F18091CC089091CD080097D9F095
:103B500008171907C1F0FFE08F9FC0011124FC0175
:103B6000EC52F74F2081246020838053974FDC0173
:103B70000D931C930E94C5161092540961E0C70171
:103B80000E9474118C01F7018581882309F4BAC061
:103B9000C80197578038910508F040C1F02EFFE02A
:103BA000F01708F4B5C18FEF93E00E9455358111ED
:103BB000AFC109E512E0F1103CC08091690190911C
:103BC0006A01A0916B01B0916C0189839A83AB83E8
:103BD000BC8378014FEFE41AF40AC8010E945535FE
:103BE00089831A82882309F493C1813009F084C043
:103BF000680152E0C50ED11CC7010E945535E82E60
:103C00008A83882309F484C1C6010E945535F82EA1
:103C10008FEF8E0D8330D8F4FB82FF2021F0CE0190
:103C200001960E94B615680183E0C80ED11C86017A
:103C3000D0CF011524E0120709F46AC1C8010E941F
:103C400055350F5F1F4F8111F4CFFA94B4CF8BEF2E
:103C50008E0D833040F5680193E0C90ED11CFB82C4
:103C6000FF2029F3C6010E9455358C83882381F0FB
:103C70008B819C818130AFEF9A0710F0982F8827B5
:103C8000B6E0EB1651F0E7E0EE1651F00E947F1D12
:103C90006801F4E0CF0ED11CCACF0E94F723F8CF01
:103CA0000E944C1DF5CF24E0E212C1CF680144E030
:103CB000C40ED11CC80103960E945535FF2009F49B
:103CC00027C1882309F424C18150990B4FEF489FE5
:103CD0009001499F300D1124AF2DA150BB0B2A0F2D
:103CE0003B1F2150310908F4A2CFEFE9FFE03197E3
:103CF000F1F700C00000F5CFCE0101960E94B61585
:103D0000670195CF011527E5120708F457C1011582
:103D100048E5140708F0E1C0680157E5D51A62ECE0
:103D200078E08C2D0E94481A892B29F58FE08C9D14
:103D3000F0018D9DF00D1124E053F74F8281813009
:103D400009F052C08091C2089091C308892B99F064
:103D50008091C4089091C508892B69F08091C608AC
:103D60009091C7082091C8083091C908822B932BE5
:103D7000892B09F442C08FE0089FF0011124DF0174
:103D8000A053B74F6D01D70115968C91EC52F74FA8
:103D9000908180FB90F99083882309F45AC00E9497
:103DA000401D9093CF088093CE08F60182818F5FEB
:103DB00082838091540990915109892B8383458195
:103DC000568165857685C6010E947A0DD6011496C6
:103DD0008C9181FD3BC0902F812F9093CC088093D4
:103DE000CD08F701858155C0823029F68091C6083B
:103DF0009091C708892B09F4BECF2FE02C9DC001FC
:103E00002D9D900D1124FC01EC52F74F20812E7F47
:103E100020838053974F0E94C516ADCFC801975598
:103E20008F3F910509F008F4A6CFD70115968C9124
:103E30000737BCE71B0709F4A8C00837ECE71E07E3
:103E400051F5882309F4B0C082E0A2C090E080E080
:103E5000C4CFD6011B964D915C911C971D966D9118
:103E60007C91C6010E947A0DF601848181FFB9CF51
:103E7000C6010E94AB162091CC083091CD08D70125
:103E800015968C910217130721F41092CD08109209
:103E9000CC08882351F2D70115968C91882309F418
:103EA0008DC00130BCE71B0709F486C00330ECE786
:103EB0001E0709F47BC00115FCE71F0709F0B1C01C
:103EC0000E9409122FEF44E35CE021504040504033
:103ED000E1F700C000000E94FA0F80915109827240
:103EE000F801E052F847E531F10508F09ECFE554BE
:103EF000FA4C0C9412358091490991E089278093FE
:103F000049091092650180914809816080934809B0
:103F10002496E8E00C94E1344AE75CE065E77CE055
:103F20000E94350DF5CF45E75CE06AE77CE0F8CF0D
:103F300047EA5CE06CE97CE0F3CF4CE95CE067EADF
:103F40007CE0EECF40EC5CE062EB7CE0E9CF42EB62
:103F50005CE060EC7CE0E4CF4CED5CE06EEC7CE09F
:103F6000DFCF4EEC5CE06CED7CE0DACF48EF5CE05C
:103F70006AEE7CE0D5CF4AEE5CE068EF7CE0D0CF23
:103F800061E081E00E94640CC3CF882349F081E0A6
:103F90000E943C0943E062E081E00E94E809B8CF5A
:103FA00081E00E944809F6CF82E0FBCF6FEF7FEF00
:103FB00080E090E00E9491350E941F12D701CD90C1
:103FC000DC90C6010E94CB09182FB601812F0E94F8
:103FD0001B110E94060B182FD70115962C911597CF
:103FE00016963C9132953F70492F42954F7048305C
:103FF00009F4ADC050F5443000F5892F8F70423080
:10400000A0F1907F903211F08295807F113009F0FD
:104010006CC0222309F463C0363090F40E948116EC
:104020000FC0F701C080D180C6010E944911182F2E
:10403000682FC6010E94AF09C8CF443009F46CC094
:1040400060E0C7010E94741163CF493009F4F2C0E7
:104050004A5F4F704230A0F7823F09F0FCC0892FC1
:104060008F71222309F425C1F3C0082F903110F07D
:104070000295007F2223C9F0002369F080E2810FBE
:10408000883010F011110BC080915109802B809362
:1040900051090E94E211812F0E94F914D1CF809121
:1040A0005409802B80935409F4CF812F0E9463150B
:1040B000002331F2009580E2810F883010F0111159
:1040C00008C0809151098023809351090E94E21118
:1040D000B7CF80915409802380935409F7CF3530AE
:1040E00008F0AECF0E948B16ABCF222321F03323F2
:1040F00009F494CFD0CF3323A9F3193349F4BFEF98
:10410000E7EEF3E0B150E040F040E1F700C000001E
:10411000812F0E94631594CF892F86958695837091
:10412000882361F0813009F08BCF812F93702111AA
:1041300002C080E090E00E94B60D82CF812F937084
:10414000211102C080E090E00E94900D79CF892F6C
:104150008370811136C0211129C0812F82958695E7
:104160008770880F880F212F2F70082E01C0220F13
:104170000A94EAF71071112341F04FE050E001C0BA
:10418000440F8A95EAF7142F10959695969593709B
:10419000923091F0812F822B933031F0809152092F
:1041A000913039F0212B82230E9436090E947F0D25
:1041B00047CF822B812BF8CF212B80915209822768
:1041C000F3CF222361F190FFF1CF812F8295869565
:1041D0008770880F880F212F2F70082E01C0220FA3
:1041E0000A94EAF71071112341F04FE050E001C04A
:1041F000440F8A95EAF7142F10959695969593702B
:10420000923099F0812F822B933031F080915309B5
:10421000913041F0212B82230E943909C7CF82308F
:1042200028F2D3CF822B812BF7CF212B80915309FA
:104230008227F2CF092F0F70222339F0802F0E949E
:104240003C09812F0E948116B1CF0E948B16802FCE
:104250000E944809ABCF833F60F4803F99F0813FD3
:1042600021F12223B9F1332391F1812F0E94F91416
:104270009DCF833F09F12111F6CF311138C0892F2D
:104280008F71E6CF222379F0353008F08FCF292FB8
:104290002F7181E090E001C0880F2A95EAF7909194
:1042A00053098927B9CF3530F0CF892F8F71222359
:1042B00079F20E943C097ACF80E0222309F4ACCF46
:1042C0009F7181E001C0880F9A95EAF7A5CF892FE9
:1042D0008F71EFCF332399F2893349F42FEF47EEF3
:1042E00053E0215040405040E1F700C00000812FD2
:1042F0000E9463155BCFA0E0B0E0E1E8F1E20C942E
:10430000C63480919509803108F049C080919409A4
:10431000882309F444C0C091560987E0D82E8091C3
:1043200055098C17E1F1EC2EF12CDC9EE0011124F3
:10433000FE01E95AF64F84818823B1F19181809181
:104340009009981331C0908180918F0998132CC0E7
:104350008581811129C002811381809191099091F9
:104360009209081B190B60E08FE899E00E94741114
:104370000E945D1A08171907B8F4809195098F708B
:10438000806180939509C35AD64F88818F70806170
:1043900088838FE899E00E948C1D0E94090ACDB79E
:1043A000DEB7E7E00C94E234E7012196C770B7CF9F
:1043B000ADE0B0E0EEEDF1E20C94BE348C0186E0AD
:1043C000F801DE01189601900D928A95E1F7F80147
:1043D000C0805180F580A280B380E4808FE8882E71
:1043E00089E0982E80919309811118C0EE2099F0F0
:1043F000FF2009F44FC1C8010E94A311882309F4CA
:1044000049C187E0F801AFE8B9E001900D928A95C3
:10441000E1F70E947B21FF24F3945DC0D0909409C2
:1044200080919109909192093501681A790A60E0AA
:104430008FE899E0DD2009F4EBC00E9474110E941E
:104440005D1A6816790608F09EC0EE2021F3E09010
:10445000950990919009F8018181FFE0FE1508F41B
:104460005BC0981317C090918F09F8018081981351
:1044700011C0F1104BC08E2D8F7080618093950913
:104480008FE899E00E948C1D80919509F801868340
:10449000F12C21C0F1103AC040E0652D8C2D0E9416
:1044A000AE0F40E0652D8C2D0E94AE0FF82E8111CD
:1044B000EFCF888599850E949411292F22952F701E
:1044C000903470F49F702230A0F09923B1F0F8017D
:1044D0009681903190F48F2D2D96EFE00C94DA3484
:1044E0002A5F2F70223068F0C8010E948C1DFD2CBD
:1044F000F2CF992311F0882371F3805E883058F34E
:10450000F3CF803F40F3815F8230F9CF80919509EE
:10451000816080939509BCCF981315C090918F0945
:10452000F801808198130FC0F1100DC0E682C80118
:104530000E948C1D87E0F801AFE8B9E001900D9270
:104540008A95E1F768CFC8010E94A311882309F476
:10455000A1C0FF2009F49EC080919509803208F423
:1045600050CF80918F09909190099A838983BC8262
:10457000AB82809193098D831E82EF82CE010196DA
:104580000E948C1D3ECFD0909509FFE0FD1550F0A4
:104590008FE899E00E948C1D87E0F40111928A95C2
:1045A000E9F776CFEE2009F436CF90919009F80123
:1045B0008181981311C090918F09808198130CC04C
:1045C000F1100AC0D682C8010E948C1D87E0F40158
:1045D00011928A95E9F71FCFC8010E94A311882381
:1045E00009F458C0FF2009F455C080919509803224
:1045F00008F407CF80918F09909190099A8389835D
:10460000BC82AB82809193098D831E82DF82B6CFFC
:104610000E9474110E945D1A6816790608F0BCCFDA
:10462000EE2009F4F8CEFF20A9F190919009F8014D
:104630008181981325C090918F098081981320C0A3
:104640008091910990919209A81AB90AF8ECAF16D5
:10465000B10408F06FCF8091950980FD6BCF803158
:1046600008F468CFF8018683982F907F903F09F473
:104670005ECF982F907F905F8F70892B868357CF66
:10468000C8010E94A3118111BCCE8091950981605F
:1046900080939509C8010E948C1DBDCEABE1B0E0AE
:1046A000E4E5F3E20C94CA344E8B5F8B688F798F0C
:1046B0008A8F9B8F9111109254091D8A86E0FE010A
:1046C0007696DE011F9601900D928A95E1F78B890F
:1046D000882329F061E0CE010F960E94741187E0D3
:1046E000FE013F96DE01189601900D928A95E1F742
:1046F000CE0108960E94D82181112BC087E0FE01CF
:104700003896DE01119601900D928A95E1F720917D
:104710005509409156098C858823D9F030E0C901AC
:1047200001968770992750E084179507E9F097E084
:10473000929FD001939FB00D1124A95AB64FFE014C
:10474000319601900D929A95E1F7809355090E9458
:10475000090A17E08091560990915509891312C0F2
:104760006B96E3E00C94E6340E940912109255090E
:104770001092560987E0EFE8F9E0DF011D928A9573
:10478000E9F7E7CF189FC0011124895A964F0E947C
:10479000D821882329F38091560990E001968770EB
:1047A000992780935609D6CFA6E0B0E0EAEDF3E270
:1047B0000C94C9340E94401D8C0180919E089091F8
:1047C0009F088017910779F019821A820E94401D74
:1047D000BC0149815A8180E090E00E944E231093F1
:1047E0009F0800939E082696E4E00C94E534A6E02A
:1047F000B0E0EDEFF3E20C94C9348C0190939B0888
:1048000080939A08011580E21807B0F4C801805E11
:104810009109089728F066E976E10115110511F470
:1048200061E876E1C8010E94F808802F0E94F9141F
:104830002696E4E00C94E53480EF89838A830E9415
:10484000401D8160BC0149815A8181E091E00E9454
:104850004E23EECF0F931F93CF93DF938C01862FC0
:1048600062EC78E00E94481A892BB1F4C091C2082A
:10487000D091C308209781F0F8018281833051F4F0
:10488000CE010E947F1DCE010E947F1DCE010E949D
:104890007F1D02C08430D0F7DF91CF911F910F911F
:1048A00008950F931F93CF93DF938C01EB0162EC7C
:1048B00078E08C2F0E94481A892B09F05AC0FE011B
:1048C000FF27D80112968C911297EA5AFC4F81303B
:1048D000A9F414968C9182FD51C080FF4FC082E0F4
:1048E00080838091C4089091C5080097B9F48091A5
:1048F000C2089091C3080097E1F110C08230B9F569
:1049000014968C9182FD28C080FD0BC083E08083CB
:104910008091C6089091C708009701F10E94F72383
:1049200028C084E080838091C8089091C9080097CE
:10493000A9F78091C2089091C308009711F10E94D5
:104940007F1D8091C4089091C508009739F7809128
:10495000C2089091C308E2CF85E080838091C208AD
:104960009091C308009729F00E947F1DF0CF86E048
:104970008083DF91CF911F910F91089581E0808313
:10498000B6CF8091C4089091C508B5CF0F931F93FF
:10499000CF93DF938C01EB0162EC78E08C2F0E94C7
:1049A000481A892B71F4DD27CA5ADC4F8881F80137
:1049B000128218828330F1F048F4813059F082304D
:1049C00081F0DF91CF911F910F9108958430B9F05C
:1049D0008530B9F78091C2089091C308009789F398
:1049E00006C08091C4089091C508009799F30E9471
:1049F0004C1DE7CF8091C6089091C708F6CF8091F3
:104A0000C8089091C908009791F72091C208309189
:104A1000C3088091C4089091C50821153105F1F2B1
:104A2000009729F7C901E3CFACE0B0E0EAE1F5E295
:104A30000C94C934182F8F836623D9F00DEF0887A3
:104A40000E94401DBC014F81588582E091E00E9488
:104A50004E2319830A830E94401D682F82E0792F1C
:104A600049815A8190E00E944E232C96E4E00C94F8
:104A7000E5340CEF08870E94401DBC014F8158852A
:104A800083E091E00E944E2319830A830E94401D17
:104A9000682F83E0E4CFA1E0B0E0E1E5F5E20C941B
:104AA000C434EE24E394F12C03E818E09E012F5F58
:104AB0003F4F49E658E064E083E00E94D317082F97
:104AC000882339F1D12C80E01DC0C0906808CD0C3E
:104AD0002C2D30E0A9014A59574F7A01E1E0F0E06E
:104AE000EC0FFD1FED0DF11D1081FA019081191BD6
:104AF000B12E1B149CF0912F17FD90E0191B111182
:104B000018C0D39490916508D916F8F281110E94CB
:104B10002C0E802F2196E9E00C94E034BA94F70132
:104B200080818F5F808360E08C2D0E941425802F10
:104B3000E0CF1F5FF70180818150808361E08C2D81
:104B40000E941425802FDBCF9C014FB7F8948091F1
:104B50000C0390910D03A0910E03B0910F034FBF72
:104B6000821B930B08952F923F925F926F927F92D8
:104B70008F929F92AF92BF92CF92DF92EF92FF926D
:104B80000F931F93CF93DF9300D000D000D0CDB709
:104B9000DEB780913008882309F497C080915403D0
:104BA000909155030E94A425C29708F450C00E941A
:104BB000401D90935503809354038FE294E09093AB
:104BC0002E0480932D0480919208882309F4ADC0AF
:104BD00082E69EE00E949F1C8BE59EE00E949F1C47
:104BE00084E59EE00E949F1C8CE49EE00E949F1C36
:104BF0009091530980915209892B0E942409873092
:104C000008F08DC0E82FF0E0E053FA4C0C94123518
:104C100084E49EE00E949F1C0E947F0D898380FD9A
:104C200081C089EF9DE00E949F1C298189EE9DE053
:104C300021FF02C081EF9DE00E949F1C398181EE1F
:104C40009DE032FD02C089ED9DE00E949F1C809195
:104C50002B0490912C04892BA9F080913008882393
:104C600089F080912F0881110DC00E94EC1C2091C9
:104C70002B0430912C0480E061E070E021153105B7
:104C800009F083C0809158088823F9F00E94DC0D58
:104C900069837A838B839C83809131089091320859
:104CA000A0913308B091340829813A814B815C810D
:104CB000281B390B4A0B5B0BDA01C9018F3F9F4F51
:104CC000AF4FBF4710F40E94DA1C0F900F900F9067
:104CD0000F900F900F90DF91CF911F910F91FF9048
:104CE000EF90DF90CF90BF90AF909F908F907F908C
:104CF0006F905F903F902F9008958CE39EE08ACF55
:104D000080E39EE087CF8BE29EE084CF86E29EE048
:104D100081CF8CE19EE07ECF84E19EE07BCF89E075
:104D20009EE078CF81E09EE07ECF20912B043091F1
:104D30002C04AFE2B4E080E090E061E070E0FC01C0
:104D4000E752F64F14914D911417A1F07D0141E007
:104D5000E41AF108F7011083AC01E6E05695479597
:104D6000EA95E1F7FB0102C0EE0FFF1F4A95E2F75B
:104D70002E2B3F2B01968115F4E09F0701F730930E
:104D80002C0420932B0463CF8F5F082F10E01B01AE
:104D9000082E02C0220C331C0A94E2F7A101422320
:104DA0005323452B89F39091360890FD43C0980119
:104DB00036952795922F8295880F880F80743FE350
:104DC000380F8093030120930601309304019093E0
:104DD000070124E630E047E050E061E071E088E759
:104DE0000E949232892B09F04DCFA80126E0440F92
:104DF000551F2A95E1F78091360880FD23C0415D5B
:104E00005B4F04E610E020E430E060E488E70E94B5
:104E1000B932892B09F036CF9101209530958091D8
:104E20002B0490912C042823392330932C042093B5
:104E30002B0428CF880F880F880F37E0380F20E029
:104E400097E0BFCFE4E1F3E080E4DF011D928A95B3
:104E5000E9F7E5E9F1E0FE83ED830DE811E08DE986
:104E6000C82E81E0D82E97E0592E77247394AD8117
:104E7000BE818D91BE83AD83F80121918F01240FF6
:104E8000352F311D215D3B4FE82FF0E0EC5EFC4FEC
:104E900080E090E0652C681A872C082E01C0880CF1
:104EA0000A94EAF77901A12CD701BD907D01B820C1
:104EB000662D6A19677070E0BB2D062E01C0BB0F0E
:104EC0000A94EAF79B2E71956195710967707727AF
:104ED00001C0B6946A95EAF79B286081962A908271
:104EE000A39468E0A612E0CF019631968830910530
:104EF00089F68D819E81C816D90609F0B8CF04E6DF
:104F000010E020E430E044E153E07FCFA0E1B0E0E6
:104F1000ECE8F7E20C94C0341A821982FE01339651
:104F200086E0DF011D928A95E9F784E1A82E81E0F1
:104F3000B82E8E010F5F1F4F4801EE24E394F12C31
:104F400024E1C22E21E0D22EF50181915F018F3F35
:104F500009F441C0F894E82FE295EF70F0E021A148
:104F60008F70A70102C0440F551F8A95E2F7CA014E
:104F7000922F982B91A392A18095892382A3789454
:104F800000C0EDE0F1E031E0712C21912F3F09F4F8
:104F9000A9C0A22FA295AF70A05EB0E08C9190E066
:104FA0002F7002C0959587952A95E2F7817081113F
:104FB00099C0832F782A330FCE16DF0631F7F5011B
:104FC000319780818F3F11F00E941E0C50EA5A9554
:104FD000F1F7D8017C920F5F1F4FB8E1AB16B1E03B
:104FE000BB0609F0B1CF48E050E0B40181E294E0A3
:104FF0000E94283500912A0410E0035B174F892B8B
:1050000009F472C088E0F401A1E2B4E001900D92CD
:105010008A95E1F781E08093EF020E94401D909312
:10502000EE028093ED0280919208882309F4B5C0C6
:105030001A8619861C861B868091F6028A3008F033
:1050400075C07E01E9E0EE0EF11C48E258E1B701BF
:10505000C8010E947A106701882309F48CC04FEBC5
:1050600058E1B701C8010E947A10882309F483C06F
:105070004BE455E2B701C8010E947A10882309F475
:105080007AC04DEF58E1B701C8010E947A10882319
:1050900009F471C046E958E1B701C8010E947A10CD
:1050A000882309F468C04DED58E1B701C8010E949A
:1050B0007A10882309F45FC01092F60280912904C7
:1050C00090E044E050E0B601835B974F0E942835A2
:1050D00021E02093EC02892B09F03FC06096EDE0BF
:1050E0000C94DC3480E066CF8091EF02882309F4D1
:1050F0009ACF8091ED029091EE020E94A42505972F
:1051000008F491CF44E050E061E274E0C8010E94ED
:105110002835892B41F084E0E1E2F4E0D8010190E8
:105120000D928A95E1F71092EF027DCF8091EA020D
:105130009091EB020E94A425843F914008F081CF1A
:105140008091EC02882351F2FE01399684E0DF0160
:105150001D928A95E9F71092EC02E0912904F0E0A3
:10516000E35BF74F89859A85AB85BC858083918306
:10517000A283B383B3CF8091F6028F3F39F40E94AC
:10518000401D9093EB028093EA02DACF8F5F809309
:10519000F6028A3008F492CFF2CFE0902904F12C85
:1051A000F701E35BF74F7F01F80180819181A281D4
:1051B000B38180937A0890937B08A0937C08B09386
:1051C0007D0864E070E08AE798E00E94610D8093BA
:1051D000790880917E0890917F08A0918008B09115
:1051E0008108F70180839183A283B38340914508AE
:1051F00050E06091440870E06A59774FCE010996FB
:105200000E94353589858093830861E070E0CE0186
:1052100009960E94610D80938208C0908408D09006
:105220008508E0908608F09087088091E6029091CA
:10523000E702A091E802B091E902C816D906EA0691
:10524000FB06B1F0C092E602D092E702E092E802DB
:10525000F092E9020E94DC0DC61AD70AE80AF90AA0
:10526000C0929408D0929508E0929608F092970820
:1052700088E0E8E8F8E0A9E4B9E001900D928A95A9
:10528000E1F780919108882319F00E94EC1C26CF49
:105290000E94DA1C23CFCDB7DEB7AE970FB6F894D5
:1052A000DEBF0FBECDBF85B7806885BF85B780687C
:1052B00085BF84B7877F84BF0FB6F894A895809187
:1052C0006000886180936000109260000FBE80E8EB
:1052D00090E00FB6F89480936100909361000FBE48
:1052E0008CE19CE09093DD028093DC020E94490DEA
:1052F0000E94FD0E0E94530F8091E2008460809313
:10530000E200789480915708882399F08091E90011
:105310001091EC001795112717958F70182B10928C
:10532000E9008091E80083FD0E9435121F70109300
:10533000E90082E084BD93E095BD9AEF97BD80932C
:105340006E00109294081092950810929608109290
:1053500097080E94C911811102C00E94C61980914C
:10536000D80080618093D8002AE12A95F1F700C027
:105370001091D9001170111104C00E94FD0E1092FD
:1053800057081093920825982D988FE891E001977F
:10539000F1F700C0000083B185FB882780F9809376
:1053A0009308809318018091920881110E944433E0
:1053B0008091180191E0892780934408A92FA81BA8
:1053C000A093680880911801909345088091180176
:1053D0009093650880911801811106C084EF809335
:1053E000240185EF8093230180912401E82FE29529
:1053F000EF70F0E041A18F7021E030E0B90102C010
:10540000660F771F8A95E2F7CB01962F909594232C
:1054100091A392A1892B82A380912301E82FE29589
:10542000EF70F0E041A18F70D90102C0AA0FBB1F3D
:105430008A95E2F7CD019A2F9095942391A392A19A
:10544000892B82A3EFE8F1E03197F1F700C000006B
:105450001091450864E271E043E251E0A6E4EA2ECF
:10546000A8E0FA2EFB018E2F861B811708F498C046
:105470008091180181111EC086EF8093140187EF7F
:105480008093150181E38093160183E380931701D4
:1054900087E0EDE6F1E0DE01119601900D928A952C
:1054A000E1F787E0FE013196ADE0B1E001900D92A9
:1054B0008A95E1F78091180191E08927880F880F7C
:1054C00080932A0494E0981B9093290404E111E04E
:1054D000F8E1EF2EF1E0FF2EF80181918F018F3F6F
:1054E00011F00E941E0CE016F106B1F70DE011E07C
:1054F000E4E1EE2EE1E0FE2ED8018D918D018F3F8B
:1055000011F00E941E0CE016F106B1F788E0EDE400
:10551000F8E0DF01282F1D922A95E9F7E1E2F4E097
:10552000DF011D928A95E9F780E090E00E945D35E9
:10553000863E9E4F21F40E94C911811102C00E9433
:10554000D61982E090E00E9455358093390884E0B6
:1055500090E00E945D3590939908809398080E948E
:105560008627EFEFF6E721E0E150F0402040E1F739
:1055700000C000000E948627E091930881E0E827A0
:10558000EE0FEE0FF0E0E35BF74F808186FF30C057
:105590006FEF7FEF80E090E00E9491350E94FA0F5C
:1055A0000191802F82958F70805E90E0DC012C91BC
:1055B000DA013D91AD01832F82958F70805E90E07E
:1055C000DC018C9190E03F7002C0959587953A95EB
:1055D000E2F78170880F30E00F7002C03595279593
:1055E0000A95E2F72170822BD7018D937D013BCF85
:1055F00083E090E00E9455350E9436090E94060D16
:1056000080E090E00E945D35863E9E4F21F40E942E
:10561000C911811104C00E94D6190E94F41681E0BC
:105620008093480948E050E068E170E089E499E03F
:105630000E9445351092480980914909843010F440
:105640000E94F41682E08093360880E88093350843
:105650000E94ED316BE070E089EB9FE00E94AD1C91
:10566000882309F443C08091360865E070E081FD2D
:10567000ABC084EB9FE00E94AD1C8823B9F16DE0C4
:1056800070E082EA9FE00E94AD1C882379F10E94BD
:10569000DC0D6BA77CA78DA79EA7DC01CB01805AF0
:1056A0009541AF4FBF4F8093310890933208A0933C
:1056B0003308B0933408EFE2F4E080E094E0DF01D7
:1056C0009C011D9221503040E1F7F0932E04E093AD
:1056D0002D048FEF9FEF90932C0480932B0481E097
:1056E000809330088093580810922F088091920878
:1056F000811102C00E94473389E191E09093A10893
:105700008093A00868E1462E512C72E0272E312CA0
:1057100080915708853049F480915708853009F405
:1057200056C00E9409120E947F0D0E9486270AE33C
:1057300018E05DE4E52E58E0F52ED701F8019191CF
:105740008D9168E0E234F60709F495C09817B9F333
:1057500080909208D12CD701CD907D01F8019190D5
:105760008F019C1441F19C24B12CAA24A394892D6F
:105770008A218823C1F08820B1F0B982DA820E94A0
:10578000401D9C838B83F1E0FD8391E08C2D8A2169
:10579000811101C090E09E8349815A816B817C8197
:1057A0008D810E944E23B394AA0C27E0B212DFCF62
:1057B000F8013197C082D39438E0D312CCCF0E9445
:1057C000F90DDD24D3945CC08FEA9FE054CF809123
:1057D0005708843031F10E947A1A0E94DA1C109224
:1057E000370830E40FB6F894A895409260000FBED9
:1057F0003093600083B7817F846083BF83B781600B
:1058000083BF7894889583B78E7F83BF0FB6F89453
:10581000A89580916000886180936000109260007C
:105820000FBE80913808882309F476CF0E9486271E
:10583000EDE4F8E085E598E02191211104C08E1790
:105840009F07D1F769CF80E189BD82E189BD09B4A5
:1058500000FEFDCF8091D8008F7D8093D80080918D
:10586000E00082608093E0008091E00081FDFCCF49
:105870000E94091251CF98136BCF0E94D423D12CD0
:1058800080919208882321F1E090CC08F090CD0817
:10589000E114F104E9F08091CE089091CF080E94C4
:1058A000A4258C01C7010E945D1A8017910780F41E
:1058B0008091CC086FE0869FC0011124FC01EC525E
:1058C000F74F208122FD04C08053974F0E94C516D8
:1058D0000E947A1AE12CC12C80914508E81650F0FC
:1058E000CC2009F47EC00E942C0E0E94B3250E9499
:1058F000EC1C7BC00E2D10E0F801EC5DFE4F4081EA
:10590000E42FE295EF70E05EF0E02081F801ED5DBC
:10591000FE4F3081E32FE295EF70E05EF0E0808192
:1059200090E03F7002C0959587953A95E2F78170B7
:10593000880F30E04F7002C0359527954A95E2F701
:105940002170822BD801AA5BB74FEC919E2F9370E8
:10595000891709F444C0EE0FEE0FE82BEC93F0909A
:105960004408FE0CEF70F0E0E157FD4F0E5B174F5F
:105970008081D8019C91890F8C93B12C82307CF06E
:10598000EF2DF0E0EA59F74F80818F5F8083B09070
:105990009208BB20B9F060E08F2D0E941425F80119
:1059A00080818F3F8CF4EF2DF0E0EA59F74F808132
:1059B0008150808380919208882321F061E08F2DAF
:1059C0000E941425BB24B394D8018C91082E000C9E
:1059D000990BB1010E94FE34F8018083CB28E39437
:1059E0007BCF0E94B325D11082CF0E947F0D909172
:1059F0004808891721F0809348080E94DC0D8091A7
:105A00005708843009F084CE83E08093E9008091C8
:105A1000E80082FF7DCE8091E80085FD06C0809180
:105A2000E8008B778093E80073CE0E94CC0E40E2B2
:105A3000E42EF12C8E010F5F1F4F882361F18091BE
:105A4000E8008B778093E80000919C0810919D08F6
:105A5000E9810115110569F1EE3F09F04EC08A8117
:105A6000833020F08550833008F047C0EA81EE3063
:105A700008F043C0F0E0E952FA4C0C9412358091E2
:105A8000F100D8018C93B1E0EB1AF108E114F104B4
:105A9000B1F20F5F1F4F8091E80085FDF0CF80913C
:105AA000E8008B778093E8000E94CC0E882399F35E
:105AB000C6CFE43150F4EE2351F0E150E33138F435
:105AC000F0E0EB51FA4C0C941235EE3F79F28FEF87
:105AD000898313C01A8289E08B830FC08A81823048
